{
  "_format": "hh-sol-artifact-1",
  "contractName": "NFTPawnShop",
  "sourceName": "contracts/NFTPawnShop.sol",
  "abi": [
    {
      "inputs": [],
      "stateMutability": "nonpayable",
      "type": "constructor"
    },
    {
      "inputs": [
        {
          "internalType": "address",
          "name": "",
          "type": "address"
        },
        {
          "internalType": "address",
          "name": "",
          "type": "address"
        },
        {
          "internalType": "uint256",
          "name": "",
          "type": "uint256"
        },
        {
          "internalType": "bytes",
          "name": "",
          "type": "bytes"
        }
      ],
      "name": "onERC721Received",
      "outputs": [
        {
          "internalType": "bytes4",
          "name": "",
          "type": "bytes4"
        }
      ],
      "stateMutability": "nonpayable",
      "type": "function"
    },
    {
      "inputs": [
        {
          "internalType": "contract IERC721",
          "name": "_nftAddress",
          "type": "address"
        },
        {
          "internalType": "uint256",
          "name": "_nftTokenID",
          "type": "uint256"
        },
        {
          "internalType": "uint256",
          "name": "_amountInWei",
          "type": "uint256"
        },
        {
          "internalType": "uint256",
          "name": "_duration",
          "type": "uint256"
        },
        {
          "internalType": "uint256",
          "name": "_interestRate",
          "type": "uint256"
        }
      ],
      "name": "pawn",
      "outputs": [],
      "stateMutability": "nonpayable",
      "type": "function"
    }
  ],
  "bytecode": "0x608060405234801561001057600080fd5b5061077e806100206000396000f3fe608060405234801561001057600080fd5b50600436106100365760003560e01c8063150b7a021461003b578063977b344c1461006b575b600080fd5b61005560048036038101906100509190610442565b610087565b6040516100629190610598565b60405180910390f35b610085600480360381019061008091906104bd565b61009b565b005b600063150b7a0260e01b9050949350505050565b60006040518061012001604052808773ffffffffffffffffffffffffffffffffffffffff168152602001868152602001858152602001838152602001600081526020018481526020013373ffffffffffffffffffffffffffffffffffffffff168152602001600073ffffffffffffffffffffffffffffffffffffffff16815260200160006003811115610157577f4e487b7100000000000000000000000000000000000000000000000000000000600052602160045260246000fd5b81525090508573ffffffffffffffffffffffffffffffffffffffff166342842e0e3330886040518463ffffffff1660e01b815260040161019993929190610561565b600060405180830381600087803b1580156101b357600080fd5b505af11580156101c7573d6000803e3d6000fd5b505050506000803373ffffffffffffffffffffffffffffffffffffffff1673ffffffffffffffffffffffffffffffffffffffff16815260200190815260200160002081908060018154018082558091505060019003906000526020600020906008020160009091909190915060008201518160000160006101000a81548173ffffffffffffffffffffffffffffffffffffffff021916908373ffffffffffffffffffffffffffffffffffffffff1602179055506020820151816001015560408201518160020155606082015181600301556080820151816004015560a0820151816005015560c08201518160060160006101000a81548173ffffffffffffffffffffffffffffffffffffffff021916908373ffffffffffffffffffffffffffffffffffffffff16021790555060e08201518160070160006101000a81548173ffffffffffffffffffffffffffffffffffffffff021916908373ffffffffffffffffffffffffffffffffffffffff1602179055506101008201518160070160146101000a81548160ff0219169083600381111561038c577f4e487b7100000000000000000000000000000000000000000000000000000000600052602160045260246000fd5b02179055505050505050505050565b60006103ae6103a9846105d8565b6105b3565b9050828152602081018484840111156103c657600080fd5b6103d1848285610683565b509392505050565b6000813590506103e881610703565b92915050565b600082601f8301126103ff57600080fd5b813561040f84826020860161039b565b91505092915050565b6000813590506104278161071a565b92915050565b60008135905061043c81610731565b92915050565b6000806000806080858703121561045857600080fd5b6000610466878288016103d9565b9450506020610477878288016103d9565b93505060406104888782880161042d565b925050606085013567ffffffffffffffff8111156104a557600080fd5b6104b1878288016103ee565b91505092959194509250565b600080600080600060a086880312156104d557600080fd5b60006104e388828901610418565b95505060206104f48882890161042d565b94505060406105058882890161042d565b93505060606105168882890161042d565b92505060806105278882890161042d565b9150509295509295909350565b61053d81610609565b82525050565b61054c8161061b565b82525050565b61055b81610679565b82525050565b60006060820190506105766000830186610534565b6105836020830185610534565b6105906040830184610552565b949350505050565b60006020820190506105ad6000830184610543565b92915050565b60006105bd6105ce565b90506105c98282610692565b919050565b6000604051905090565b600067ffffffffffffffff8211156105f3576105f26106c3565b5b6105fc826106f2565b9050602081019050919050565b600061061482610659565b9050919050565b60007fffffffff0000000000000000000000000000000000000000000000000000000082169050919050565b600061065282610609565b9050919050565b600073ffffffffffffffffffffffffffffffffffffffff82169050919050565b6000819050919050565b82818337600083830152505050565b61069b826106f2565b810181811067ffffffffffffffff821117156106ba576106b96106c3565b5b80604052505050565b7f4e487b7100000000000000000000000000000000000000000000000000000000600052604160045260246000fd5b6000601f19601f8301169050919050565b61070c81610609565b811461071757600080fd5b50565b61072381610647565b811461072e57600080fd5b50565b61073a81610679565b811461074557600080fd5b5056fea2646970667358221220c60d2a10269fd81a2633dc657dc7c80623660554073ffbf5f7c8319b5a55a1cf64736f6c63430008010033",
  "linkReferences": {},
  "deployedLinkReferences": {}
}