{
  "_format": "hh-sol-artifact-1",
  "contractName": "NFTPawnShop",
  "sourceName": "contracts/NFTPawnShop.sol",
  "abi": [
    {
      "inputs": [],
      "stateMutability": "nonpayable",
      "type": "constructor"
    },
    {
      "inputs": [
        {
          "internalType": "address",
          "name": "borrower",
          "type": "address"
        },
        {
          "internalType": "uint256",
          "name": "termIndex",
          "type": "uint256"
        }
      ],
      "name": "acceptTerms",
      "outputs": [],
      "stateMutability": "payable",
      "type": "function"
    },
    {
      "inputs": [
        {
          "internalType": "uint256",
          "name": "_amountInWei",
          "type": "uint256"
        },
        {
          "internalType": "uint256",
          "name": "_interestRate",
          "type": "uint256"
        },
        {
          "internalType": "uint256",
          "name": "_startTime",
          "type": "uint256"
        }
      ],
      "name": "calculatePayment",
      "outputs": [
        {
          "internalType": "uint256",
          "name": "amount",
          "type": "uint256"
        }
      ],
      "stateMutability": "view",
      "type": "function"
    },
    {
      "inputs": [
        {
          "internalType": "uint256",
          "name": "termIndex",
          "type": "uint256"
        }
      ],
      "name": "claimCollateral",
      "outputs": [],
      "stateMutability": "nonpayable",
      "type": "function"
    },
    {
      "inputs": [
        {
          "internalType": "address",
          "name": "_lender",
          "type": "address"
        }
      ],
      "name": "getLoans",
      "outputs": [
        {
          "components": [
            {
              "internalType": "contract IERC721",
              "name": "nftAddress",
              "type": "address"
            },
            {
              "internalType": "uint256",
              "name": "nftTokenID",
              "type": "uint256"
            },
            {
              "internalType": "uint256",
              "name": "amountInWei",
              "type": "uint256"
            },
            {
              "internalType": "uint256",
              "name": "interestRate",
              "type": "uint256"
            },
            {
              "internalType": "uint256",
              "name": "startTime",
              "type": "uint256"
            },
            {
              "internalType": "uint256",
              "name": "duration",
              "type": "uint256"
            },
            {
              "internalType": "address",
              "name": "borrower",
              "type": "address"
            },
            {
              "internalType": "address",
              "name": "lender",
              "type": "address"
            },
            {
              "internalType": "enum NFTPawnShop.CollateralStatus",
              "name": "status",
              "type": "uint8"
            },
            {
              "internalType": "uint256",
              "name": "index",
              "type": "uint256"
            }
          ],
          "internalType": "struct NFTPawnShop.Terms[]",
          "name": "",
          "type": "tuple[]"
        }
      ],
      "stateMutability": "view",
      "type": "function"
    },
    {
      "inputs": [],
      "name": "getWaitingTerms",
      "outputs": [
        {
          "components": [
            {
              "internalType": "contract IERC721",
              "name": "nftAddress",
              "type": "address"
            },
            {
              "internalType": "uint256",
              "name": "nftTokenID",
              "type": "uint256"
            },
            {
              "internalType": "uint256",
              "name": "amountInWei",
              "type": "uint256"
            },
            {
              "internalType": "uint256",
              "name": "interestRate",
              "type": "uint256"
            },
            {
              "internalType": "uint256",
              "name": "startTime",
              "type": "uint256"
            },
            {
              "internalType": "uint256",
              "name": "duration",
              "type": "uint256"
            },
            {
              "internalType": "address",
              "name": "borrower",
              "type": "address"
            },
            {
              "internalType": "address",
              "name": "lender",
              "type": "address"
            },
            {
              "internalType": "enum NFTPawnShop.CollateralStatus",
              "name": "status",
              "type": "uint8"
            },
            {
              "internalType": "uint256",
              "name": "index",
              "type": "uint256"
            }
          ],
          "internalType": "struct NFTPawnShop.Terms[]",
          "name": "",
          "type": "tuple[]"
        },
        {
          "internalType": "uint256",
          "name": "",
          "type": "uint256"
        }
      ],
      "stateMutability": "view",
      "type": "function"
    },
    {
      "inputs": [
        {
          "internalType": "address",
          "name": "",
          "type": "address"
        },
        {
          "internalType": "address",
          "name": "",
          "type": "address"
        },
        {
          "internalType": "uint256",
          "name": "",
          "type": "uint256"
        },
        {
          "internalType": "bytes",
          "name": "",
          "type": "bytes"
        }
      ],
      "name": "onERC721Received",
      "outputs": [
        {
          "internalType": "bytes4",
          "name": "",
          "type": "bytes4"
        }
      ],
      "stateMutability": "nonpayable",
      "type": "function"
    },
    {
      "inputs": [
        {
          "internalType": "contract IERC721",
          "name": "_nftAddress",
          "type": "address"
        },
        {
          "internalType": "uint256",
          "name": "_nftTokenID",
          "type": "uint256"
        },
        {
          "internalType": "uint256",
          "name": "_amountInWei",
          "type": "uint256"
        },
        {
          "internalType": "uint256",
          "name": "_duration",
          "type": "uint256"
        },
        {
          "internalType": "uint256",
          "name": "_interestRate",
          "type": "uint256"
        }
      ],
      "name": "pawn",
      "outputs": [],
      "stateMutability": "nonpayable",
      "type": "function"
    },
    {
      "inputs": [
        {
          "internalType": "address",
          "name": "_borrower",
          "type": "address"
        },
        {
          "internalType": "uint256",
          "name": "termIndex",
          "type": "uint256"
        }
      ],
      "name": "paybackTerm",
      "outputs": [],
      "stateMutability": "payable",
      "type": "function"
    },
    {
      "inputs": [
        {
          "internalType": "uint256",
          "name": "delta",
          "type": "uint256"
        }
      ],
      "name": "refund",
      "outputs": [],
      "stateMutability": "nonpayable",
      "type": "function"
    },
    {
      "inputs": [
        {
          "internalType": "address",
          "name": "_borrower",
          "type": "address"
        },
        {
          "internalType": "uint256",
          "name": "termIndex",
          "type": "uint256"
        }
      ],
      "name": "undoTerm",
      "outputs": [],
      "stateMutability": "nonpayable",
      "type": "function"
    }
  ],
  "bytecode": "0x608060405234801561001057600080fd5b50612d28806100206000396000f3fe6080604052600436106100915760003560e01c80634e71f753116100595780634e71f7531461017e578063977b344c146101aa578063c49785b4146101d3578063d988ef20146101fc578063f0facce41461023957610091565b8063150b7a02146100965780632310b0ec146100d3578063278ecde1146100fc5780632f49b8681461012557806336e44f0e14610162575b600080fd5b3480156100a257600080fd5b506100bd60048036038101906100b8919061212d565b610255565b6040516100ca9190612636565b60405180910390f35b3480156100df57600080fd5b506100fa60048036038101906100f591906121a8565b610269565b005b34801561010857600080fd5b50610123600480360381019061011e919061225b565b6104ea565b005b34801561013157600080fd5b5061014c60048036038101906101479190612284565b6104ed565b6040516101599190612753565b60405180910390f35b61017c600480360381019061017791906121a8565b61058c565b005b34801561018a57600080fd5b50610193610936565b6040516101a1929190612606565b60405180910390f35b3480156101b657600080fd5b506101d160048036038101906101cc91906121e4565b610d2a565b005b3480156101df57600080fd5b506101fa60048036038101906101f5919061225b565b611213565b005b34801561020857600080fd5b50610223600480360381019061021e9190612104565b611535565b60405161023091906125e4565b60405180910390f35b610253600480360381019061024e91906121a8565b611799565b005b600063150b7a0260e01b9050949350505050565b60008060008473ffffffffffffffffffffffffffffffffffffffff1673ffffffffffffffffffffffffffffffffffffffff16815260200190815260200160002082815481106102e1577f4e487b7100000000000000000000000000000000000000000000000000000000600052603260045260246000fd5b9060005260206000209060090201905060008160070160009054906101000a900473ffffffffffffffffffffffffffffffffffffffff1690508373ffffffffffffffffffffffffffffffffffffffff163373ffffffffffffffffffffffffffffffffffffffff1614610388576040517f08c379a000000000000000000000000000000000000000000000000000000000815260040161037f906126b3565b60405180910390fd5b600073ffffffffffffffffffffffffffffffffffffffff168173ffffffffffffffffffffffffffffffffffffffff16146103f7576040517f08c379a00000000000000000000000000000000000000000000000000000000081526004016103ee90612693565b60405180910390fd5b60008260000160009054906101000a900473ffffffffffffffffffffffffffffffffffffffff1690506000836001015490508173ffffffffffffffffffffffffffffffffffffffff166342842e0e3088846040518463ffffffff1660e01b8152600401610466939291906125ad565b600060405180830381600087803b15801561048057600080fd5b505af1158015610494573d6000803e3d6000fd5b505050506000808773ffffffffffffffffffffffffffffffffffffffff1673ffffffffffffffffffffffffffffffffffffffff16815260200190815260200160002060006104e29190611e9c565b505050505050565b50565b600080610516603c6105088542611d8290919063ffffffff16565b611d9890919063ffffffff16565b9050600061052e600183611d9890919063ffffffff16565b9050600061056b8261055d61271061054f8a8c611dae90919063ffffffff16565b611d9890919063ffffffff16565b611dae90919063ffffffff16565b90506105808188611dc490919063ffffffff16565b93505050509392505050565b60008060008473ffffffffffffffffffffffffffffffffffffffff1673ffffffffffffffffffffffffffffffffffffffff1681526020019081526020016000208281548110610604577f4e487b7100000000000000000000000000000000000000000000000000000000600052603260045260246000fd5b9060005260206000209060090201604051806101400160405290816000820160009054906101000a900473ffffffffffffffffffffffffffffffffffffffff1673ffffffffffffffffffffffffffffffffffffffff1673ffffffffffffffffffffffffffffffffffffffff16815260200160018201548152602001600282015481526020016003820154815260200160048201548152602001600582015481526020016006820160009054906101000a900473ffffffffffffffffffffffffffffffffffffffff1673ffffffffffffffffffffffffffffffffffffffff1673ffffffffffffffffffffffffffffffffffffffff1681526020016007820160009054906101000a900473ffffffffffffffffffffffffffffffffffffffff1673ffffffffffffffffffffffffffffffffffffffff1673ffffffffffffffffffffffffffffffffffffffff1681526020016007820160149054906101000a900460ff16600381111561079d577f4e487b7100000000000000000000000000000000000000000000000000000000600052602160045260246000fd5b60038111156107d5577f4e487b7100000000000000000000000000000000000000000000000000000000600052602160045260246000fd5b8152602001600882015481525050905060006107fe8260400151836060015184608001516104ed565b905034811115610843576040517f08c379a000000000000000000000000000000000000000000000000000000000815260040161083a906126f3565b60405180910390fd5b6000813461085191906128fa565b9050600081111561086657610865816104ea565b5b8260e0015173ffffffffffffffffffffffffffffffffffffffff166108fc349081150290604051600060405180830381858888f193505050501580156108b0573d6000803e3d6000fd5b50600283610100019060038111156108f1577f4e487b7100000000000000000000000000000000000000000000000000000000600052602160045260246000fd5b9081600381111561092b577f4e487b7100000000000000000000000000000000000000000000000000000000600052602160045260246000fd5b815250505050505050565b606060008060028054905067ffffffffffffffff811115610980577f4e487b7100000000000000000000000000000000000000000000000000000000600052604160045260246000fd5b6040519080825280602002602001820160405280156109b957816020015b6109a6611ec0565b81526020019060019003908161099e5790505b5090506000805b600280549050811015610d1d5760006003811115610a07577f4e487b7100000000000000000000000000000000000000000000000000000000600052602160045260246000fd5b60028281548110610a41577f4e487b7100000000000000000000000000000000000000000000000000000000600052603260045260246000fd5b906000526020600020906009020160070160149054906101000a900460ff166003811115610a98577f4e487b7100000000000000000000000000000000000000000000000000000000600052602160045260246000fd5b1415610d0a5760028181548110610ad8577f4e487b7100000000000000000000000000000000000000000000000000000000600052603260045260246000fd5b9060005260206000209060090201604051806101400160405290816000820160009054906101000a900473ffffffffffffffffffffffffffffffffffffffff1673ffffffffffffffffffffffffffffffffffffffff1673ffffffffffffffffffffffffffffffffffffffff16815260200160018201548152602001600282015481526020016003820154815260200160048201548152602001600582015481526020016006820160009054906101000a900473ffffffffffffffffffffffffffffffffffffffff1673ffffffffffffffffffffffffffffffffffffffff1673ffffffffffffffffffffffffffffffffffffffff1681526020016007820160009054906101000a900473ffffffffffffffffffffffffffffffffffffffff1673ffffffffffffffffffffffffffffffffffffffff1673ffffffffffffffffffffffffffffffffffffffff1681526020016007820160149054906101000a900460ff166003811115610c71577f4e487b7100000000000000000000000000000000000000000000000000000000600052602160045260246000fd5b6003811115610ca9577f4e487b7100000000000000000000000000000000000000000000000000000000600052602160045260246000fd5b8152602001600882015481525050838381518110610cf0577f4e487b7100000000000000000000000000000000000000000000000000000000600052603260045260246000fd5b60200260200101819052508180610d0690612a64565b9250505b8080610d1590612a64565b9150506109c0565b5081819350935050509091565b60006040518061014001604052808773ffffffffffffffffffffffffffffffffffffffff168152602001868152602001858152602001838152602001600081526020018481526020013373ffffffffffffffffffffffffffffffffffffffff168152602001600073ffffffffffffffffffffffffffffffffffffffff16815260200160006003811115610de6577f4e487b7100000000000000000000000000000000000000000000000000000000600052602160045260246000fd5b81526020016000803373ffffffffffffffffffffffffffffffffffffffff1673ffffffffffffffffffffffffffffffffffffffff1681526020019081526020016000208054905081525090508573ffffffffffffffffffffffffffffffffffffffff166342842e0e3330886040518463ffffffff1660e01b8152600401610e6f939291906125ad565b600060405180830381600087803b158015610e8957600080fd5b505af1158015610e9d573d6000803e3d6000fd5b505050506000803373ffffffffffffffffffffffffffffffffffffffff1673ffffffffffffffffffffffffffffffffffffffff16815260200190815260200160002081908060018154018082558091505060019003906000526020600020906009020160009091909190915060008201518160000160006101000a81548173ffffffffffffffffffffffffffffffffffffffff021916908373ffffffffffffffffffffffffffffffffffffffff1602179055506020820151816001015560408201518160020155606082015181600301556080820151816004015560a0820151816005015560c08201518160060160006101000a81548173ffffffffffffffffffffffffffffffffffffffff021916908373ffffffffffffffffffffffffffffffffffffffff16021790555060e08201518160070160006101000a81548173ffffffffffffffffffffffffffffffffffffffff021916908373ffffffffffffffffffffffffffffffffffffffff1602179055506101008201518160070160146101000a81548160ff02191690836003811115611062577f4e487b7100000000000000000000000000000000000000000000000000000000600052602160045260246000fd5b021790555061012082015181600801555050600281908060018154018082558091505060019003906000526020600020906009020160009091909190915060008201518160000160006101000a81548173ffffffffffffffffffffffffffffffffffffffff021916908373ffffffffffffffffffffffffffffffffffffffff1602179055506020820151816001015560408201518160020155606082015181600301556080820151816004015560a0820151816005015560c08201518160060160006101000a81548173ffffffffffffffffffffffffffffffffffffffff021916908373ffffffffffffffffffffffffffffffffffffffff16021790555060e08201518160070160006101000a81548173ffffffffffffffffffffffffffffffffffffffff021916908373ffffffffffffffffffffffffffffffffffffffff1602179055506101008201518160070160146101000a81548160ff021916908360038111156111f9577f4e487b7100000000000000000000000000000000000000000000000000000000600052602160045260246000fd5b021790555061012082015181600801555050505050505050565b6000600160003373ffffffffffffffffffffffffffffffffffffffff1673ffffffffffffffffffffffffffffffffffffffff168152602001908152602001600020828154811061128c577f4e487b7100000000000000000000000000000000000000000000000000000000600052603260045260246000fd5b906000526020600020906009020190503373ffffffffffffffffffffffffffffffffffffffff168160070160009054906101000a900473ffffffffffffffffffffffffffffffffffffffff1673ffffffffffffffffffffffffffffffffffffffff161461132e576040517f08c379a000000000000000000000000000000000000000000000000000000000815260040161132590612733565b60405180910390fd5b806005015481600401546113429190612819565b4211611383576040517f08c379a000000000000000000000000000000000000000000000000000000000815260040161137a90612713565b60405180910390fd5b600160038111156113bd577f4e487b7100000000000000000000000000000000000000000000000000000000600052602160045260246000fd5b8160070160149054906101000a900460ff166003811115611407577f4e487b7100000000000000000000000000000000000000000000000000000000600052602160045260246000fd5b14611447576040517f08c379a000000000000000000000000000000000000000000000000000000000815260040161143e906126d3565b60405180910390fd5b8060000160009054906101000a900473ffffffffffffffffffffffffffffffffffffffff1673ffffffffffffffffffffffffffffffffffffffff166342842e0e303384600101546040518463ffffffff1660e01b81526004016114ac939291906125ad565b600060405180830381600087803b1580156114c657600080fd5b505af11580156114da573d6000803e3d6000fd5b5050505060038160070160146101000a81548160ff0219169083600381111561152c577f4e487b7100000000000000000000000000000000000000000000000000000000600052602160045260246000fd5b02179055505050565b6060600160008373ffffffffffffffffffffffffffffffffffffffff1673ffffffffffffffffffffffffffffffffffffffff168152602001908152602001600020805480602002602001604051908101604052809291908181526020016000905b8282101561178e5783829060005260206000209060090201604051806101400160405290816000820160009054906101000a900473ffffffffffffffffffffffffffffffffffffffff1673ffffffffffffffffffffffffffffffffffffffff1673ffffffffffffffffffffffffffffffffffffffff16815260200160018201548152602001600282015481526020016003820154815260200160048201548152602001600582015481526020016006820160009054906101000a900473ffffffffffffffffffffffffffffffffffffffff1673ffffffffffffffffffffffffffffffffffffffff1673ffffffffffffffffffffffffffffffffffffffff1681526020016007820160009054906101000a900473ffffffffffffffffffffffffffffffffffffffff1673ffffffffffffffffffffffffffffffffffffffff1673ffffffffffffffffffffffffffffffffffffffff1681526020016007820160149054906101000a900460ff166003811115611739577f4e487b7100000000000000000000000000000000000000000000000000000000600052602160045260246000fd5b6003811115611771577f4e487b7100000000000000000000000000000000000000000000000000000000600052602160045260246000fd5b815260200160088201548152505081526020019060010190611596565b505050509050919050565b6117d76040518060400160405280601681526020017f7374617274696e67206163636570745465726d732e2e00000000000000000000815250611dda565b60008060008473ffffffffffffffffffffffffffffffffffffffff1673ffffffffffffffffffffffffffffffffffffffff168152602001908152602001600020828154811061184f577f4e487b7100000000000000000000000000000000000000000000000000000000600052603260045260246000fd5b906000526020600020906009020190506000816002015490503481146118aa576040517f08c379a00000000000000000000000000000000000000000000000000000000081526004016118a190612673565b60405180910390fd5b8160060160009054906101000a900473ffffffffffffffffffffffffffffffffffffffff1673ffffffffffffffffffffffffffffffffffffffff166108fc349081150290604051600060405180830381858888f19350505050158015611914573d6000803e3d6000fd5b50336000808673ffffffffffffffffffffffffffffffffffffffff1673ffffffffffffffffffffffffffffffffffffffff168152602001908152602001600020848154811061198c577f4e487b7100000000000000000000000000000000000000000000000000000000600052603260045260246000fd5b906000526020600020906009020160070160006101000a81548173ffffffffffffffffffffffffffffffffffffffff021916908373ffffffffffffffffffffffffffffffffffffffff16021790555060016000808673ffffffffffffffffffffffffffffffffffffffff1673ffffffffffffffffffffffffffffffffffffffff1681526020019081526020016000208481548110611a53577f4e487b7100000000000000000000000000000000000000000000000000000000600052603260045260246000fd5b906000526020600020906009020160070160146101000a81548160ff02191690836003811115611aac577f4e487b7100000000000000000000000000000000000000000000000000000000600052602160045260246000fd5b0217905550426000808673ffffffffffffffffffffffffffffffffffffffff1673ffffffffffffffffffffffffffffffffffffffff1681526020019081526020016000208481548110611b28577f4e487b7100000000000000000000000000000000000000000000000000000000600052603260045260246000fd5b906000526020600020906009020160040181905550600160003373ffffffffffffffffffffffffffffffffffffffff1673ffffffffffffffffffffffffffffffffffffffff1681526020019081526020016000208290806001815401808255809150506001900390600052602060002090600902016000909190919091506000820160009054906101000a900473ffffffffffffffffffffffffffffffffffffffff168160000160006101000a81548173ffffffffffffffffffffffffffffffffffffffff021916908373ffffffffffffffffffffffffffffffffffffffff16021790555060018201548160010155600282015481600201556003820154816003015560048201548160040155600582015481600501556006820160009054906101000a900473ffffffffffffffffffffffffffffffffffffffff168160060160006101000a81548173ffffffffffffffffffffffffffffffffffffffff021916908373ffffffffffffffffffffffffffffffffffffffff1602179055506007820160009054906101000a900473ffffffffffffffffffffffffffffffffffffffff168160070160006101000a81548173ffffffffffffffffffffffffffffffffffffffff021916908373ffffffffffffffffffffffffffffffffffffffff1602179055506007820160149054906101000a900460ff168160070160146101000a81548160ff02191690836003811115611d6b577f4e487b7100000000000000000000000000000000000000000000000000000000600052602160045260246000fd5b021790555060088201548160080155505050505050565b60008183611d9091906128fa565b905092915050565b60008183611da6919061286f565b905092915050565b60008183611dbc91906128a0565b905092915050565b60008183611dd29190612819565b905092915050565b611e7081604051602401611dee9190612651565b6040516020818303038152906040527f41304fac000000000000000000000000000000000000000000000000000000007bffffffffffffffffffffffffffffffffffffffffffffffffffffffff19166020820180517bffffffffffffffffffffffffffffffffffffffffffffffffffffffff8381831617835250505050611e73565b50565b60008151905060006a636f6e736f6c652e6c6f679050602083016000808483855afa5050505050565b5080546000825560090290600052602060002090810190611ebd9190611f8d565b50565b604051806101400160405280600073ffffffffffffffffffffffffffffffffffffffff1681526020016000815260200160008152602001600081526020016000815260200160008152602001600073ffffffffffffffffffffffffffffffffffffffff168152602001600073ffffffffffffffffffffffffffffffffffffffff16815260200160006003811115611f80577f4e487b7100000000000000000000000000000000000000000000000000000000600052602160045260246000fd5b8152602001600081525090565b5b8082111561205957600080820160006101000a81549073ffffffffffffffffffffffffffffffffffffffff0219169055600182016000905560028201600090556003820160009055600482016000905560058201600090556006820160006101000a81549073ffffffffffffffffffffffffffffffffffffffff02191690556007820160006101000a81549073ffffffffffffffffffffffffffffffffffffffff02191690556007820160146101000a81549060ff0219169055600882016000905550600901611f8e565b5090565b600061207061206b84612793565b61276e565b90508281526020810184848401111561208857600080fd5b6120938482856129f1565b509392505050565b6000813590506120aa81612cad565b92915050565b600082601f8301126120c157600080fd5b81356120d184826020860161205d565b91505092915050565b6000813590506120e981612cc4565b92915050565b6000813590506120fe81612cdb565b92915050565b60006020828403121561211657600080fd5b60006121248482850161209b565b91505092915050565b6000806000806080858703121561214357600080fd5b60006121518782880161209b565b94505060206121628782880161209b565b9350506040612173878288016120ef565b925050606085013567ffffffffffffffff81111561219057600080fd5b61219c878288016120b0565b91505092959194509250565b600080604083850312156121bb57600080fd5b60006121c98582860161209b565b92505060206121da858286016120ef565b9150509250929050565b600080600080600060a086880312156121fc57600080fd5b600061220a888289016120da565b955050602061221b888289016120ef565b945050604061222c888289016120ef565b935050606061223d888289016120ef565b925050608061224e888289016120ef565b9150509295509295909350565b60006020828403121561226d57600080fd5b600061227b848285016120ef565b91505092915050565b60008060006060848603121561229957600080fd5b60006122a7868287016120ef565b93505060206122b8868287016120ef565b92505060406122c9868287016120ef565b9150509250925092565b60006122df83836124c3565b6101408301905092915050565b6122f58161292e565b82525050565b6123048161292e565b82525050565b6000612315826127d4565b61231f81856127f7565b935061232a836127c4565b8060005b8381101561235b57815161234288826122d3565b975061234d836127ea565b92505060018101905061232e565b5085935050505092915050565b61237181612940565b82525050565b612380816129bb565b82525050565b61238f816129df565b82525050565b60006123a0826127df565b6123aa8185612808565b93506123ba818560208601612a00565b6123c381612b69565b840191505092915050565b60006123db601d83612808565b91506123e682612b7a565b602082019050919050565b60006123fe601283612808565b915061240982612ba3565b602082019050919050565b6000612421601683612808565b915061242c82612bcc565b602082019050919050565b6000612444601083612808565b915061244f82612bf5565b602082019050919050565b6000612467601f83612808565b915061247282612c1e565b602082019050919050565b600061248a601f83612808565b915061249582612c47565b602082019050919050565b60006124ad601683612808565b91506124b882612c70565b602082019050919050565b610140820160008201516124da6000850182612377565b5060208201516124ed602085018261258f565b506040820151612500604085018261258f565b506060820151612513606085018261258f565b506080820151612526608085018261258f565b5060a082015161253960a085018261258f565b5060c082015161254c60c08501826122ec565b5060e082015161255f60e08501826122ec565b50610100820151612574610100850182612386565b5061012082015161258961012085018261258f565b50505050565b612598816129b1565b82525050565b6125a7816129b1565b82525050565b60006060820190506125c260008301866122fb565b6125cf60208301856122fb565b6125dc604083018461259e565b949350505050565b600060208201905081810360008301526125fe818461230a565b905092915050565b60006040820190508181036000830152612620818561230a565b905061262f602083018461259e565b9392505050565b600060208201905061264b6000830184612368565b92915050565b6000602082019050818103600083015261266b8184612395565b905092915050565b6000602082019050818103600083015261268c816123ce565b9050919050565b600060208201905081810360008301526126ac816123f1565b9050919050565b600060208201905081810360008301526126cc81612414565b9050919050565b600060208201905081810360008301526126ec81612437565b9050919050565b6000602082019050818103600083015261270c8161245a565b9050919050565b6000602082019050818103600083015261272c8161247d565b9050919050565b6000602082019050818103600083015261274c816124a0565b9050919050565b6000602082019050612768600083018461259e565b92915050565b6000612778612789565b90506127848282612a33565b919050565b6000604051905090565b600067ffffffffffffffff8211156127ae576127ad612b3a565b5b6127b782612b69565b9050602081019050919050565b6000819050602082019050919050565b600081519050919050565b600081519050919050565b6000602082019050919050565b600082825260208201905092915050565b600082825260208201905092915050565b6000612824826129b1565b915061282f836129b1565b9250827fffffffffffffffffffffffffffffffffffffffffffffffffffffffffffffffff0382111561286457612863612aad565b5b828201905092915050565b600061287a826129b1565b9150612885836129b1565b92508261289557612894612adc565b5b828204905092915050565b60006128ab826129b1565b91506128b6836129b1565b9250817fffffffffffffffffffffffffffffffffffffffffffffffffffffffffffffffff04831182151516156128ef576128ee612aad565b5b828202905092915050565b6000612905826129b1565b9150612910836129b1565b92508282101561292357612922612aad565b5b828203905092915050565b600061293982612991565b9050919050565b60007fffffffff0000000000000000000000000000000000000000000000000000000082169050919050565b60006129778261292e565b9050919050565b600081905061298c82612c99565b919050565b600073ffffffffffffffffffffffffffffffffffffffff82169050919050565b6000819050919050565b60006129c6826129cd565b9050919050565b60006129d882612991565b9050919050565b60006129ea8261297e565b9050919050565b82818337600083830152505050565b60005b83811015612a1e578082015181840152602081019050612a03565b83811115612a2d576000848401525b50505050565b612a3c82612b69565b810181811067ffffffffffffffff82111715612a5b57612a5a612b3a565b5b80604052505050565b6000612a6f826129b1565b91507fffffffffffffffffffffffffffffffffffffffffffffffffffffffffffffffff821415612aa257612aa1612aad565b5b600182019050919050565b7f4e487b7100000000000000000000000000000000000000000000000000000000600052601160045260246000fd5b7f4e487b7100000000000000000000000000000000000000000000000000000000600052601260045260246000fd5b7f4e487b7100000000000000000000000000000000000000000000000000000000600052602160045260246000fd5b7f4e487b7100000000000000000000000000000000000000000000000000000000600052604160045260246000fd5b6000601f19601f8301169050919050565b7f6e65656420746f2073656e642074686520726571756972656420776569000000600082015250565b7f6c656e64657220616c7265616479207365740000000000000000000000000000600082015250565b7f6f6e6c7920626f72726f7765722063616e2063616c6c00000000000000000000600082015250565b7f73686f756c642062652061637469766500000000000000000000000000000000600082015250565b7f6e65656420746f2073656e64206d696e207061796261636b20616d6f756e7400600082015250565b7f706179206261636b20646174652073686f756c6420626520696e207061737400600082015250565b7f796f75206d75737420626520746865206c656e64657200000000000000000000600082015250565b60048110612caa57612ca9612b0b565b5b50565b612cb68161292e565b8114612cc157600080fd5b50565b612ccd8161296c565b8114612cd857600080fd5b50565b612ce4816129b1565b8114612cef57600080fd5b5056fea26469706673582212205ead75205cc2f734aea0d8333546525d9956b4b56b3f68cac3f44aeb8e8fb9db64736f6c63430008010033",
  "linkReferences": {},
  "deployedLinkReferences": {}
}