{
  "_format": "hh-sol-artifact-1",
  "contractName": "NFTPawnShop",
  "sourceName": "contracts/NFTPawnShop.sol",
  "abi": [
    {
      "inputs": [],
      "stateMutability": "nonpayable",
      "type": "constructor"
    },
    {
      "inputs": [
        {
          "internalType": "address",
          "name": "borrower",
          "type": "address"
        },
        {
          "internalType": "uint256",
          "name": "termIndex",
          "type": "uint256"
        }
      ],
      "name": "acceptTerms",
      "outputs": [],
      "stateMutability": "payable",
      "type": "function"
    },
    {
      "inputs": [
        {
          "internalType": "uint256",
          "name": "_amountInWei",
          "type": "uint256"
        },
        {
          "internalType": "uint256",
          "name": "_interestRate",
          "type": "uint256"
        }
      ],
      "name": "calculatePayment",
      "outputs": [
        {
          "internalType": "uint256",
          "name": "amount",
          "type": "uint256"
        }
      ],
      "stateMutability": "pure",
      "type": "function"
    },
    {
      "inputs": [
        {
          "internalType": "uint256",
          "name": "termIndex",
          "type": "uint256"
        }
      ],
      "name": "claimCollateral",
      "outputs": [],
      "stateMutability": "nonpayable",
      "type": "function"
    },
    {
      "inputs": [
        {
          "internalType": "address",
          "name": "lender",
          "type": "address"
        }
      ],
      "name": "getLoans",
      "outputs": [
        {
          "components": [
            {
              "internalType": "contract IERC721",
              "name": "nftAddress",
              "type": "address"
            },
            {
              "internalType": "uint256",
              "name": "nftTokenID",
              "type": "uint256"
            },
            {
              "internalType": "uint256",
              "name": "amountInWei",
              "type": "uint256"
            },
            {
              "internalType": "uint256",
              "name": "interestRate",
              "type": "uint256"
            },
            {
              "internalType": "uint256",
              "name": "startTime",
              "type": "uint256"
            },
            {
              "internalType": "uint256",
              "name": "duration",
              "type": "uint256"
            },
            {
              "internalType": "address",
              "name": "borrower",
              "type": "address"
            },
            {
              "internalType": "address",
              "name": "lender",
              "type": "address"
            },
            {
              "internalType": "enum NFTPawnShop.CollateralStatus",
              "name": "status",
              "type": "uint8"
            },
            {
              "internalType": "uint256",
              "name": "borrowerIndex",
              "type": "uint256"
            },
            {
              "internalType": "uint256",
              "name": "lenderIndex",
              "type": "uint256"
            },
            {
              "internalType": "uint256",
              "name": "allTermsIndex",
              "type": "uint256"
            }
          ],
          "internalType": "struct NFTPawnShop.Terms[]",
          "name": "",
          "type": "tuple[]"
        }
      ],
      "stateMutability": "view",
      "type": "function"
    },
    {
      "inputs": [
        {
          "internalType": "address",
          "name": "borrower",
          "type": "address"
        }
      ],
      "name": "getPawnedTerms",
      "outputs": [
        {
          "components": [
            {
              "internalType": "contract IERC721",
              "name": "nftAddress",
              "type": "address"
            },
            {
              "internalType": "uint256",
              "name": "nftTokenID",
              "type": "uint256"
            },
            {
              "internalType": "uint256",
              "name": "amountInWei",
              "type": "uint256"
            },
            {
              "internalType": "uint256",
              "name": "interestRate",
              "type": "uint256"
            },
            {
              "internalType": "uint256",
              "name": "startTime",
              "type": "uint256"
            },
            {
              "internalType": "uint256",
              "name": "duration",
              "type": "uint256"
            },
            {
              "internalType": "address",
              "name": "borrower",
              "type": "address"
            },
            {
              "internalType": "address",
              "name": "lender",
              "type": "address"
            },
            {
              "internalType": "enum NFTPawnShop.CollateralStatus",
              "name": "status",
              "type": "uint8"
            },
            {
              "internalType": "uint256",
              "name": "borrowerIndex",
              "type": "uint256"
            },
            {
              "internalType": "uint256",
              "name": "lenderIndex",
              "type": "uint256"
            },
            {
              "internalType": "uint256",
              "name": "allTermsIndex",
              "type": "uint256"
            }
          ],
          "internalType": "struct NFTPawnShop.Terms[]",
          "name": "",
          "type": "tuple[]"
        }
      ],
      "stateMutability": "view",
      "type": "function"
    },
    {
      "inputs": [],
      "name": "getWaitingTerms",
      "outputs": [
        {
          "components": [
            {
              "internalType": "contract IERC721",
              "name": "nftAddress",
              "type": "address"
            },
            {
              "internalType": "uint256",
              "name": "nftTokenID",
              "type": "uint256"
            },
            {
              "internalType": "uint256",
              "name": "amountInWei",
              "type": "uint256"
            },
            {
              "internalType": "uint256",
              "name": "interestRate",
              "type": "uint256"
            },
            {
              "internalType": "uint256",
              "name": "startTime",
              "type": "uint256"
            },
            {
              "internalType": "uint256",
              "name": "duration",
              "type": "uint256"
            },
            {
              "internalType": "address",
              "name": "borrower",
              "type": "address"
            },
            {
              "internalType": "address",
              "name": "lender",
              "type": "address"
            },
            {
              "internalType": "enum NFTPawnShop.CollateralStatus",
              "name": "status",
              "type": "uint8"
            },
            {
              "internalType": "uint256",
              "name": "borrowerIndex",
              "type": "uint256"
            },
            {
              "internalType": "uint256",
              "name": "lenderIndex",
              "type": "uint256"
            },
            {
              "internalType": "uint256",
              "name": "allTermsIndex",
              "type": "uint256"
            }
          ],
          "internalType": "struct NFTPawnShop.Terms[]",
          "name": "",
          "type": "tuple[]"
        },
        {
          "internalType": "uint256",
          "name": "",
          "type": "uint256"
        }
      ],
      "stateMutability": "view",
      "type": "function"
    },
    {
      "inputs": [
        {
          "internalType": "address",
          "name": "",
          "type": "address"
        },
        {
          "internalType": "address",
          "name": "",
          "type": "address"
        },
        {
          "internalType": "uint256",
          "name": "",
          "type": "uint256"
        },
        {
          "internalType": "bytes",
          "name": "",
          "type": "bytes"
        }
      ],
      "name": "onERC721Received",
      "outputs": [
        {
          "internalType": "bytes4",
          "name": "",
          "type": "bytes4"
        }
      ],
      "stateMutability": "nonpayable",
      "type": "function"
    },
    {
      "inputs": [
        {
          "internalType": "contract IERC721",
          "name": "_nftAddress",
          "type": "address"
        },
        {
          "internalType": "uint256",
          "name": "_nftTokenID",
          "type": "uint256"
        },
        {
          "internalType": "uint256",
          "name": "_amountInWei",
          "type": "uint256"
        },
        {
          "internalType": "uint256",
          "name": "_duration",
          "type": "uint256"
        },
        {
          "internalType": "uint256",
          "name": "_interestRate",
          "type": "uint256"
        }
      ],
      "name": "pawn",
      "outputs": [],
      "stateMutability": "nonpayable",
      "type": "function"
    },
    {
      "inputs": [
        {
          "internalType": "address",
          "name": "_borrower",
          "type": "address"
        },
        {
          "internalType": "uint256",
          "name": "termIndex",
          "type": "uint256"
        }
      ],
      "name": "paybackTerm",
      "outputs": [],
      "stateMutability": "payable",
      "type": "function"
    },
    {
      "inputs": [
        {
          "internalType": "uint256",
          "name": "delta",
          "type": "uint256"
        }
      ],
      "name": "refund",
      "outputs": [],
      "stateMutability": "nonpayable",
      "type": "function"
    },
    {
      "inputs": [
        {
          "internalType": "address",
          "name": "_borrower",
          "type": "address"
        },
        {
          "internalType": "uint256",
          "name": "termIndex",
          "type": "uint256"
        }
      ],
      "name": "undoTerm",
      "outputs": [],
      "stateMutability": "nonpayable",
      "type": "function"
    }
  ],
  "bytecode": "0x608060405234801561001057600080fd5b50613eeb806100206000396000f3fe60806040526004361061009c5760003560e01c80634e71f753116100645780634e71f753146101895780636e246a5b146101b5578063977b344c146101f2578063c49785b41461021b578063d988ef2014610244578063f0facce4146102815761009c565b80630c5cd78f146100a1578063150b7a02146100de5780632310b0ec1461011b578063278ecde11461014457806336e44f0e1461016d575b600080fd5b3480156100ad57600080fd5b506100c860048036038101906100c39190613349565b61029d565b6040516100d59190613807565b60405180910390f35b3480156100ea57600080fd5b5061010560048036038101906101009190613372565b610514565b6040516101129190613859565b60405180910390f35b34801561012757600080fd5b50610142600480360381019061013d91906133ed565b610528565b005b34801561015057600080fd5b5061016b600480360381019061016691906134a0565b6109ea565b005b610187600480360381019061018291906133ed565b6109ed565b005b34801561019557600080fd5b5061019e611397565b6040516101ac929190613829565b60405180910390f35b3480156101c157600080fd5b506101dc60048036038101906101d791906134c9565b6118a5565b6040516101e99190613954565b60405180910390f35b3480156101fe57600080fd5b5061021960048036038101906102149190613429565b6118ed565b005b34801561022757600080fd5b50610242600480360381019061023d91906134a0565b611e14565b005b34801561025057600080fd5b5061026b60048036038101906102669190613349565b61289f565b6040516102789190613807565b60405180910390f35b61029b600480360381019061029691906133ed565b612b17565b005b60606000808373ffffffffffffffffffffffffffffffffffffffff1673ffffffffffffffffffffffffffffffffffffffff168152602001908152602001600020805480602002602001604051908101604052809291908181526020016000905b8282101561050957838290600052602060002090600b0201604051806101800160405290816000820160009054906101000a900473ffffffffffffffffffffffffffffffffffffffff1673ffffffffffffffffffffffffffffffffffffffff1673ffffffffffffffffffffffffffffffffffffffff16815260200160018201548152602001600282015481526020016003820154815260200160048201548152602001600582015481526020016006820160009054906101000a900473ffffffffffffffffffffffffffffffffffffffff1673ffffffffffffffffffffffffffffffffffffffff1673ffffffffffffffffffffffffffffffffffffffff1681526020016007820160009054906101000a900473ffffffffffffffffffffffffffffffffffffffff1673ffffffffffffffffffffffffffffffffffffffff1673ffffffffffffffffffffffffffffffffffffffff1681526020016007820160149054906101000a900460ff1660048111156104a0577f4e487b7100000000000000000000000000000000000000000000000000000000600052602160045260246000fd5b60048111156104d8577f4e487b7100000000000000000000000000000000000000000000000000000000600052602160045260246000fd5b81526020016008820154815260200160098201548152602001600a82015481525050815260200190600101906102fd565b505050509050919050565b600063150b7a0260e01b9050949350505050565b60008060008473ffffffffffffffffffffffffffffffffffffffff1673ffffffffffffffffffffffffffffffffffffffff16815260200190815260200160002082815481106105a0577f4e487b7100000000000000000000000000000000000000000000000000000000600052603260045260246000fd5b90600052602060002090600b0201905060008160070160009054906101000a900473ffffffffffffffffffffffffffffffffffffffff1690508373ffffffffffffffffffffffffffffffffffffffff163373ffffffffffffffffffffffffffffffffffffffff1614610647576040517f08c379a000000000000000000000000000000000000000000000000000000000815260040161063e906138b4565b60405180910390fd5b600073ffffffffffffffffffffffffffffffffffffffff168173ffffffffffffffffffffffffffffffffffffffff16146106b6576040517f08c379a00000000000000000000000000000000000000000000000000000000081526004016106ad90613894565b60405180910390fd5b60008260000160009054906101000a900473ffffffffffffffffffffffffffffffffffffffff1690506000836001015490508173ffffffffffffffffffffffffffffffffffffffff166342842e0e3088846040518463ffffffff1660e01b8152600401610725939291906137d0565b600060405180830381600087803b15801561073f57600080fd5b505af1158015610753573d6000803e3d6000fd5b5050505060048460070160146101000a81548160ff021916908360048111156107a5577f4e487b7100000000000000000000000000000000000000000000000000000000600052602160045260246000fd5b021790555083600285600a0154815481106107e9577f4e487b7100000000000000000000000000000000000000000000000000000000600052603260045260246000fd5b90600052602060002090600b02016000820160009054906101000a900473ffffffffffffffffffffffffffffffffffffffff168160000160006101000a81548173ffffffffffffffffffffffffffffffffffffffff021916908373ffffffffffffffffffffffffffffffffffffffff16021790555060018201548160010155600282015481600201556003820154816003015560048201548160040155600582015481600501556006820160009054906101000a900473ffffffffffffffffffffffffffffffffffffffff168160060160006101000a81548173ffffffffffffffffffffffffffffffffffffffff021916908373ffffffffffffffffffffffffffffffffffffffff1602179055506007820160009054906101000a900473ffffffffffffffffffffffffffffffffffffffff168160070160006101000a81548173ffffffffffffffffffffffffffffffffffffffff021916908373ffffffffffffffffffffffffffffffffffffffff1602179055506007820160149054906101000a900460ff168160070160146101000a81548160ff021916908360048111156109bc577f4e487b7100000000000000000000000000000000000000000000000000000000600052602160045260246000fd5b02179055506008820154816008015560098201548160090155600a82015481600a0155905050505050505050565b50565b60008060008473ffffffffffffffffffffffffffffffffffffffff1673ffffffffffffffffffffffffffffffffffffffff1681526020019081526020016000208281548110610a65577f4e487b7100000000000000000000000000000000000000000000000000000000600052603260045260246000fd5b90600052602060002090600b0201604051806101800160405290816000820160009054906101000a900473ffffffffffffffffffffffffffffffffffffffff1673ffffffffffffffffffffffffffffffffffffffff1673ffffffffffffffffffffffffffffffffffffffff16815260200160018201548152602001600282015481526020016003820154815260200160048201548152602001600582015481526020016006820160009054906101000a900473ffffffffffffffffffffffffffffffffffffffff1673ffffffffffffffffffffffffffffffffffffffff1673ffffffffffffffffffffffffffffffffffffffff1681526020016007820160009054906101000a900473ffffffffffffffffffffffffffffffffffffffff1673ffffffffffffffffffffffffffffffffffffffff1673ffffffffffffffffffffffffffffffffffffffff1681526020016007820160149054906101000a900460ff166004811115610bfe577f4e487b7100000000000000000000000000000000000000000000000000000000600052602160045260246000fd5b6004811115610c36577f4e487b7100000000000000000000000000000000000000000000000000000000600052602160045260246000fd5b81526020016008820154815260200160098201548152602001600a8201548152505090506000610c6e826040015183606001516118a5565b905034811115610cb3576040517f08c379a0000000000000000000000000000000000000000000000000000000008152600401610caa906138f4565b60405180910390fd5b60008134610cc19190613af0565b90506000811115610cd657610cd5816109ea565b5b8260e0015173ffffffffffffffffffffffffffffffffffffffff166108fc349081150290604051600060405180830381858888f19350505050158015610d20573d6000803e3d6000fd5b5060028361010001906004811115610d61577f4e487b7100000000000000000000000000000000000000000000000000000000600052602160045260246000fd5b90816004811115610d9b577f4e487b7100000000000000000000000000000000000000000000000000000000600052602160045260246000fd5b8152505082600284610160015181548110610ddf577f4e487b7100000000000000000000000000000000000000000000000000000000600052603260045260246000fd5b90600052602060002090600b020160008201518160000160006101000a81548173ffffffffffffffffffffffffffffffffffffffff021916908373ffffffffffffffffffffffffffffffffffffffff1602179055506020820151816001015560408201518160020155606082015181600301556080820151816004015560a0820151816005015560c08201518160060160006101000a81548173ffffffffffffffffffffffffffffffffffffffff021916908373ffffffffffffffffffffffffffffffffffffffff16021790555060e08201518160070160006101000a81548173ffffffffffffffffffffffffffffffffffffffff021916908373ffffffffffffffffffffffffffffffffffffffff1602179055506101008201518160070160146101000a81548160ff02191690836004811115610f46577f4e487b7100000000000000000000000000000000000000000000000000000000600052602160045260246000fd5b02179055506101208201518160080155610140820151816009015561016082015181600a0155905050826000808560c0015173ffffffffffffffffffffffffffffffffffffffff1673ffffffffffffffffffffffffffffffffffffffff16815260200190815260200160002084610120015181548110610fef577f4e487b7100000000000000000000000000000000000000000000000000000000600052603260045260246000fd5b90600052602060002090600b020160008201518160000160006101000a81548173ffffffffffffffffffffffffffffffffffffffff021916908373ffffffffffffffffffffffffffffffffffffffff1602179055506020820151816001015560408201518160020155606082015181600301556080820151816004015560a0820151816005015560c08201518160060160006101000a81548173ffffffffffffffffffffffffffffffffffffffff021916908373ffffffffffffffffffffffffffffffffffffffff16021790555060e08201518160070160006101000a81548173ffffffffffffffffffffffffffffffffffffffff021916908373ffffffffffffffffffffffffffffffffffffffff1602179055506101008201518160070160146101000a81548160ff02191690836004811115611156577f4e487b7100000000000000000000000000000000000000000000000000000000600052602160045260246000fd5b02179055506101208201518160080155610140820151816009015561016082015181600a015590505082600160008560e0015173ffffffffffffffffffffffffffffffffffffffff1673ffffffffffffffffffffffffffffffffffffffff16815260200190815260200160002084610140015181548110611200577f4e487b7100000000000000000000000000000000000000000000000000000000600052603260045260246000fd5b90600052602060002090600b020160008201518160000160006101000a81548173ffffffffffffffffffffffffffffffffffffffff021916908373ffffffffffffffffffffffffffffffffffffffff1602179055506020820151816001015560408201518160020155606082015181600301556080820151816004015560a0820151816005015560c08201518160060160006101000a81548173ffffffffffffffffffffffffffffffffffffffff021916908373ffffffffffffffffffffffffffffffffffffffff16021790555060e08201518160070160006101000a81548173ffffffffffffffffffffffffffffffffffffffff021916908373ffffffffffffffffffffffffffffffffffffffff1602179055506101008201518160070160146101000a81548160ff02191690836004811115611367577f4e487b7100000000000000000000000000000000000000000000000000000000600052602160045260246000fd5b02179055506101208201518160080155610140820151816009015561016082015181600a01559050505050505050565b60606000806000905060005b6002805490508110156114a357600060048111156113ea577f4e487b7100000000000000000000000000000000000000000000000000000000600052602160045260246000fd5b60028281548110611424577f4e487b7100000000000000000000000000000000000000000000000000000000600052603260045260246000fd5b90600052602060002090600b020160070160149054906101000a900460ff16600481111561147b577f4e487b7100000000000000000000000000000000000000000000000000000000600052602160045260246000fd5b141561149057818061148c90613c27565b9250505b808061149b90613c27565b9150506113a3565b5060008167ffffffffffffffff8111156114e6577f4e487b7100000000000000000000000000000000000000000000000000000000600052604160045260246000fd5b60405190808252806020026020018201604052801561151f57816020015b61150c6131c7565b8152602001906001900390816115045790505b5090506000805b600280549050811015611897576000600481111561156d577f4e487b7100000000000000000000000000000000000000000000000000000000600052602160045260246000fd5b600282815481106115a7577f4e487b7100000000000000000000000000000000000000000000000000000000600052603260045260246000fd5b90600052602060002090600b020160070160149054906101000a900460ff1660048111156115fe577f4e487b7100000000000000000000000000000000000000000000000000000000600052602160045260246000fd5b1415611884576002818154811061163e577f4e487b7100000000000000000000000000000000000000000000000000000000600052603260045260246000fd5b90600052602060002090600b0201604051806101800160405290816000820160009054906101000a900473ffffffffffffffffffffffffffffffffffffffff1673ffffffffffffffffffffffffffffffffffffffff1673ffffffffffffffffffffffffffffffffffffffff16815260200160018201548152602001600282015481526020016003820154815260200160048201548152602001600582015481526020016006820160009054906101000a900473ffffffffffffffffffffffffffffffffffffffff1673ffffffffffffffffffffffffffffffffffffffff1673ffffffffffffffffffffffffffffffffffffffff1681526020016007820160009054906101000a900473ffffffffffffffffffffffffffffffffffffffff1673ffffffffffffffffffffffffffffffffffffffff1673ffffffffffffffffffffffffffffffffffffffff1681526020016007820160149054906101000a900460ff1660048111156117d7577f4e487b7100000000000000000000000000000000000000000000000000000000600052602160045260246000fd5b600481111561180f577f4e487b7100000000000000000000000000000000000000000000000000000000600052602160045260246000fd5b81526020016008820154815260200160098201548152602001600a8201548152505083838151811061186a577f4e487b7100000000000000000000000000000000000000000000000000000000600052603260045260246000fd5b6020026020010181905250818061188090613c27565b9250505b808061188f90613c27565b915050611526565b508183945094505050509091565b6000806118cf6127106118c1858761318590919063ffffffff16565b61319b90919063ffffffff16565b90506118e481856131b190919063ffffffff16565b91505092915050565b60006040518061018001604052808773ffffffffffffffffffffffffffffffffffffffff168152602001868152602001858152602001838152602001600081526020018481526020013373ffffffffffffffffffffffffffffffffffffffff168152602001600073ffffffffffffffffffffffffffffffffffffffff168152602001600060048111156119a9577f4e487b7100000000000000000000000000000000000000000000000000000000600052602160045260246000fd5b81526020016000803373ffffffffffffffffffffffffffffffffffffffff1673ffffffffffffffffffffffffffffffffffffffff1681526020019081526020016000208054905081526020016000815260200160028054905081525090508573ffffffffffffffffffffffffffffffffffffffff166342842e0e3330886040518463ffffffff1660e01b8152600401611a44939291906137d0565b600060405180830381600087803b158015611a5e57600080fd5b505af1158015611a72573d6000803e3d6000fd5b505050506000803373ffffffffffffffffffffffffffffffffffffffff1673ffffffffffffffffffffffffffffffffffffffff1681526020019081526020016000208190806001815401808255809150506001900390600052602060002090600b020160009091909190915060008201518160000160006101000a81548173ffffffffffffffffffffffffffffffffffffffff021916908373ffffffffffffffffffffffffffffffffffffffff1602179055506020820151816001015560408201518160020155606082015181600301556080820151816004015560a0820151816005015560c08201518160060160006101000a81548173ffffffffffffffffffffffffffffffffffffffff021916908373ffffffffffffffffffffffffffffffffffffffff16021790555060e08201518160070160006101000a81548173ffffffffffffffffffffffffffffffffffffffff021916908373ffffffffffffffffffffffffffffffffffffffff1602179055506101008201518160070160146101000a81548160ff02191690836004811115611c37577f4e487b7100000000000000000000000000000000000000000000000000000000600052602160045260246000fd5b02179055506101208201518160080155610140820151816009015561016082015181600a0155505060028190806001815401808255809150506001900390600052602060002090600b020160009091909190915060008201518160000160006101000a81548173ffffffffffffffffffffffffffffffffffffffff021916908373ffffffffffffffffffffffffffffffffffffffff1602179055506020820151816001015560408201518160020155606082015181600301556080820151816004015560a0820151816005015560c08201518160060160006101000a81548173ffffffffffffffffffffffffffffffffffffffff021916908373ffffffffffffffffffffffffffffffffffffffff16021790555060e08201518160070160006101000a81548173ffffffffffffffffffffffffffffffffffffffff021916908373ffffffffffffffffffffffffffffffffffffffff1602179055506101008201518160070160146101000a81548160ff02191690836004811115611de4577f4e487b7100000000000000000000000000000000000000000000000000000000600052602160045260246000fd5b02179055506101208201518160080155610140820151816009015561016082015181600a01555050505050505050565b6000600160003373ffffffffffffffffffffffffffffffffffffffff1673ffffffffffffffffffffffffffffffffffffffff1681526020019081526020016000208281548110611e8d577f4e487b7100000000000000000000000000000000000000000000000000000000600052603260045260246000fd5b90600052602060002090600b020190503373ffffffffffffffffffffffffffffffffffffffff168160070160009054906101000a900473ffffffffffffffffffffffffffffffffffffffff1673ffffffffffffffffffffffffffffffffffffffff1614611f2f576040517f08c379a0000000000000000000000000000000000000000000000000000000008152600401611f2690613934565b60405180910390fd5b80600501548160040154611f439190613a0f565b4211611f84576040517f08c379a0000000000000000000000000000000000000000000000000000000008152600401611f7b90613914565b60405180910390fd5b60016004811115611fbe577f4e487b7100000000000000000000000000000000000000000000000000000000600052602160045260246000fd5b8160070160149054906101000a900460ff166004811115612008577f4e487b7100000000000000000000000000000000000000000000000000000000600052602160045260246000fd5b14612048576040517f08c379a000000000000000000000000000000000000000000000000000000000815260040161203f906138d4565b60405180910390fd5b8060000160009054906101000a900473ffffffffffffffffffffffffffffffffffffffff1673ffffffffffffffffffffffffffffffffffffffff166342842e0e303384600101546040518463ffffffff1660e01b81526004016120ad939291906137d0565b600060405180830381600087803b1580156120c757600080fd5b505af11580156120db573d6000803e3d6000fd5b5050505060038160070160146101000a81548160ff0219169083600481111561212d577f4e487b7100000000000000000000000000000000000000000000000000000000600052602160045260246000fd5b021790555080600282600a015481548110612171577f4e487b7100000000000000000000000000000000000000000000000000000000600052603260045260246000fd5b90600052602060002090600b02016000820160009054906101000a900473ffffffffffffffffffffffffffffffffffffffff168160000160006101000a81548173ffffffffffffffffffffffffffffffffffffffff021916908373ffffffffffffffffffffffffffffffffffffffff16021790555060018201548160010155600282015481600201556003820154816003015560048201548160040155600582015481600501556006820160009054906101000a900473ffffffffffffffffffffffffffffffffffffffff168160060160006101000a81548173ffffffffffffffffffffffffffffffffffffffff021916908373ffffffffffffffffffffffffffffffffffffffff1602179055506007820160009054906101000a900473ffffffffffffffffffffffffffffffffffffffff168160070160006101000a81548173ffffffffffffffffffffffffffffffffffffffff021916908373ffffffffffffffffffffffffffffffffffffffff1602179055506007820160149054906101000a900460ff168160070160146101000a81548160ff02191690836004811115612344577f4e487b7100000000000000000000000000000000000000000000000000000000600052602160045260246000fd5b02179055506008820154816008015560098201548160090155600a82015481600a0155905050806000808360060160009054906101000a900473ffffffffffffffffffffffffffffffffffffffff1673ffffffffffffffffffffffffffffffffffffffff1673ffffffffffffffffffffffffffffffffffffffff168152602001908152602001600020826008015481548110612409577f4e487b7100000000000000000000000000000000000000000000000000000000600052603260045260246000fd5b90600052602060002090600b02016000820160009054906101000a900473ffffffffffffffffffffffffffffffffffffffff168160000160006101000a81548173ffffffffffffffffffffffffffffffffffffffff021916908373ffffffffffffffffffffffffffffffffffffffff16021790555060018201548160010155600282015481600201556003820154816003015560048201548160040155600582015481600501556006820160009054906101000a900473ffffffffffffffffffffffffffffffffffffffff168160060160006101000a81548173ffffffffffffffffffffffffffffffffffffffff021916908373ffffffffffffffffffffffffffffffffffffffff1602179055506007820160009054906101000a900473ffffffffffffffffffffffffffffffffffffffff168160070160006101000a81548173ffffffffffffffffffffffffffffffffffffffff021916908373ffffffffffffffffffffffffffffffffffffffff1602179055506007820160149054906101000a900460ff168160070160146101000a81548160ff021916908360048111156125dc577f4e487b7100000000000000000000000000000000000000000000000000000000600052602160045260246000fd5b02179055506008820154816008015560098201548160090155600a82015481600a015590505080600160008360070160009054906101000a900473ffffffffffffffffffffffffffffffffffffffff1673ffffffffffffffffffffffffffffffffffffffff1673ffffffffffffffffffffffffffffffffffffffff1681526020019081526020016000208260090154815481106126a2577f4e487b7100000000000000000000000000000000000000000000000000000000600052603260045260246000fd5b90600052602060002090600b02016000820160009054906101000a900473ffffffffffffffffffffffffffffffffffffffff168160000160006101000a81548173ffffffffffffffffffffffffffffffffffffffff021916908373ffffffffffffffffffffffffffffffffffffffff16021790555060018201548160010155600282015481600201556003820154816003015560048201548160040155600582015481600501556006820160009054906101000a900473ffffffffffffffffffffffffffffffffffffffff168160060160006101000a81548173ffffffffffffffffffffffffffffffffffffffff021916908373ffffffffffffffffffffffffffffffffffffffff1602179055506007820160009054906101000a900473ffffffffffffffffffffffffffffffffffffffff168160070160006101000a81548173ffffffffffffffffffffffffffffffffffffffff021916908373ffffffffffffffffffffffffffffffffffffffff1602179055506007820160149054906101000a900460ff168160070160146101000a81548160ff02191690836004811115612875577f4e487b7100000000000000000000000000000000000000000000000000000000600052602160045260246000fd5b02179055506008820154816008015560098201548160090155600a82015481600a01559050505050565b6060600160008373ffffffffffffffffffffffffffffffffffffffff1673ffffffffffffffffffffffffffffffffffffffff168152602001908152602001600020805480602002602001604051908101604052809291908181526020016000905b82821015612b0c57838290600052602060002090600b0201604051806101800160405290816000820160009054906101000a900473ffffffffffffffffffffffffffffffffffffffff1673ffffffffffffffffffffffffffffffffffffffff1673ffffffffffffffffffffffffffffffffffffffff16815260200160018201548152602001600282015481526020016003820154815260200160048201548152602001600582015481526020016006820160009054906101000a900473ffffffffffffffffffffffffffffffffffffffff1673ffffffffffffffffffffffffffffffffffffffff1673ffffffffffffffffffffffffffffffffffffffff1681526020016007820160009054906101000a900473ffffffffffffffffffffffffffffffffffffffff1673ffffffffffffffffffffffffffffffffffffffff1673ffffffffffffffffffffffffffffffffffffffff1681526020016007820160149054906101000a900460ff166004811115612aa3577f4e487b7100000000000000000000000000000000000000000000000000000000600052602160045260246000fd5b6004811115612adb577f4e487b7100000000000000000000000000000000000000000000000000000000600052602160045260246000fd5b81526020016008820154815260200160098201548152602001600a8201548152505081526020019060010190612900565b505050509050919050565b60008060008473ffffffffffffffffffffffffffffffffffffffff1673ffffffffffffffffffffffffffffffffffffffff1681526020019081526020016000208281548110612b8f577f4e487b7100000000000000000000000000000000000000000000000000000000600052603260045260246000fd5b90600052602060002090600b02019050600081600201549050348114612bea576040517f08c379a0000000000000000000000000000000000000000000000000000000008152600401612be190613874565b60405180910390fd5b8160060160009054906101000a900473ffffffffffffffffffffffffffffffffffffffff1673ffffffffffffffffffffffffffffffffffffffff166108fc349081150290604051600060405180830381858888f19350505050158015612c54573d6000803e3d6000fd5b50338260070160006101000a81548173ffffffffffffffffffffffffffffffffffffffff021916908373ffffffffffffffffffffffffffffffffffffffff16021790555060018260070160146101000a81548160ff02191690836004811115612ce6577f4e487b7100000000000000000000000000000000000000000000000000000000600052602160045260246000fd5b0217905550428260040181905550600160003373ffffffffffffffffffffffffffffffffffffffff1673ffffffffffffffffffffffffffffffffffffffff1681526020019081526020016000208290806001815401808255809150506001900390600052602060002090600b02016000909190919091506000820160009054906101000a900473ffffffffffffffffffffffffffffffffffffffff168160000160006101000a81548173ffffffffffffffffffffffffffffffffffffffff021916908373ffffffffffffffffffffffffffffffffffffffff16021790555060018201548160010155600282015481600201556003820154816003015560048201548160040155600582015481600501556006820160009054906101000a900473ffffffffffffffffffffffffffffffffffffffff168160060160006101000a81548173ffffffffffffffffffffffffffffffffffffffff021916908373ffffffffffffffffffffffffffffffffffffffff1602179055506007820160009054906101000a900473ffffffffffffffffffffffffffffffffffffffff168160070160006101000a81548173ffffffffffffffffffffffffffffffffffffffff021916908373ffffffffffffffffffffffffffffffffffffffff1602179055506007820160149054906101000a900460ff168160070160146101000a81548160ff02191690836004811115612f22577f4e487b7100000000000000000000000000000000000000000000000000000000600052602160045260246000fd5b02179055506008820154816008015560098201548160090155600a82015481600a0155505081600283600a015481548110612f86577f4e487b7100000000000000000000000000000000000000000000000000000000600052603260045260246000fd5b90600052602060002090600b02016000820160009054906101000a900473ffffffffffffffffffffffffffffffffffffffff168160000160006101000a81548173ffffffffffffffffffffffffffffffffffffffff021916908373ffffffffffffffffffffffffffffffffffffffff16021790555060018201548160010155600282015481600201556003820154816003015560048201548160040155600582015481600501556006820160009054906101000a900473ffffffffffffffffffffffffffffffffffffffff168160060160006101000a81548173ffffffffffffffffffffffffffffffffffffffff021916908373ffffffffffffffffffffffffffffffffffffffff1602179055506007820160009054906101000a900473ffffffffffffffffffffffffffffffffffffffff168160070160006101000a81548173ffffffffffffffffffffffffffffffffffffffff021916908373ffffffffffffffffffffffffffffffffffffffff1602179055506007820160149054906101000a900460ff168160070160146101000a81548160ff02191690836004811115613159577f4e487b7100000000000000000000000000000000000000000000000000000000600052602160045260246000fd5b02179055506008820154816008015560098201548160090155600a82015481600a015590505050505050565b600081836131939190613a96565b905092915050565b600081836131a99190613a65565b905092915050565b600081836131bf9190613a0f565b905092915050565b604051806101800160405280600073ffffffffffffffffffffffffffffffffffffffff1681526020016000815260200160008152602001600081526020016000815260200160008152602001600073ffffffffffffffffffffffffffffffffffffffff168152602001600073ffffffffffffffffffffffffffffffffffffffff16815260200160006004811115613287577f4e487b7100000000000000000000000000000000000000000000000000000000600052602160045260246000fd5b81526020016000815260200160008152602001600081525090565b60006132b56132b084613994565b61396f565b9050828152602081018484840111156132cd57600080fd5b6132d8848285613be7565b509392505050565b6000813590506132ef81613e70565b92915050565b600082601f83011261330657600080fd5b81356133168482602086016132a2565b91505092915050565b60008135905061332e81613e87565b92915050565b60008135905061334381613e9e565b92915050565b60006020828403121561335b57600080fd5b6000613369848285016132e0565b91505092915050565b6000806000806080858703121561338857600080fd5b6000613396878288016132e0565b94505060206133a7878288016132e0565b93505060406133b887828801613334565b925050606085013567ffffffffffffffff8111156133d557600080fd5b6133e1878288016132f5565b91505092959194509250565b6000806040838503121561340057600080fd5b600061340e858286016132e0565b925050602061341f85828601613334565b9150509250929050565b600080600080600060a0868803121561344157600080fd5b600061344f8882890161331f565b955050602061346088828901613334565b945050604061347188828901613334565b935050606061348288828901613334565b925050608061349388828901613334565b9150509295509295909350565b6000602082840312156134b257600080fd5b60006134c084828501613334565b91505092915050565b600080604083850312156134dc57600080fd5b60006134ea85828601613334565b92505060206134fb85828601613334565b9150509250929050565b600061351183836136bc565b6101808301905092915050565b61352781613b24565b82525050565b61353681613b24565b82525050565b6000613547826139d5565b61355181856139ed565b935061355c836139c5565b8060005b8381101561358d5781516135748882613505565b975061357f836139e0565b925050600181019050613560565b5085935050505092915050565b6135a381613b36565b82525050565b6135b281613bb1565b82525050565b6135c181613bd5565b82525050565b60006135d4601d836139fe565b91506135df82613d3d565b602082019050919050565b60006135f76012836139fe565b915061360282613d66565b602082019050919050565b600061361a6016836139fe565b915061362582613d8f565b602082019050919050565b600061363d6010836139fe565b915061364882613db8565b602082019050919050565b6000613660601f836139fe565b915061366b82613de1565b602082019050919050565b6000613683601f836139fe565b915061368e82613e0a565b602082019050919050565b60006136a66016836139fe565b91506136b182613e33565b602082019050919050565b610180820160008201516136d360008501826135a9565b5060208201516136e660208501826137b2565b5060408201516136f960408501826137b2565b50606082015161370c60608501826137b2565b50608082015161371f60808501826137b2565b5060a082015161373260a08501826137b2565b5060c082015161374560c085018261351e565b5060e082015161375860e085018261351e565b5061010082015161376d6101008501826135b8565b506101208201516137826101208501826137b2565b506101408201516137976101408501826137b2565b506101608201516137ac6101608501826137b2565b50505050565b6137bb81613ba7565b82525050565b6137ca81613ba7565b82525050565b60006060820190506137e5600083018661352d565b6137f2602083018561352d565b6137ff60408301846137c1565b949350505050565b60006020820190508181036000830152613821818461353c565b905092915050565b60006040820190508181036000830152613843818561353c565b905061385260208301846137c1565b9392505050565b600060208201905061386e600083018461359a565b92915050565b6000602082019050818103600083015261388d816135c7565b9050919050565b600060208201905081810360008301526138ad816135ea565b9050919050565b600060208201905081810360008301526138cd8161360d565b9050919050565b600060208201905081810360008301526138ed81613630565b9050919050565b6000602082019050818103600083015261390d81613653565b9050919050565b6000602082019050818103600083015261392d81613676565b9050919050565b6000602082019050818103600083015261394d81613699565b9050919050565b600060208201905061396960008301846137c1565b92915050565b600061397961398a565b90506139858282613bf6565b919050565b6000604051905090565b600067ffffffffffffffff8211156139af576139ae613cfd565b5b6139b882613d2c565b9050602081019050919050565b6000819050602082019050919050565b600081519050919050565b6000602082019050919050565b600082825260208201905092915050565b600082825260208201905092915050565b6000613a1a82613ba7565b9150613a2583613ba7565b9250827fffffffffffffffffffffffffffffffffffffffffffffffffffffffffffffffff03821115613a5a57613a59613c70565b5b828201905092915050565b6000613a7082613ba7565b9150613a7b83613ba7565b925082613a8b57613a8a613c9f565b5b828204905092915050565b6000613aa182613ba7565b9150613aac83613ba7565b9250817fffffffffffffffffffffffffffffffffffffffffffffffffffffffffffffffff0483118215151615613ae557613ae4613c70565b5b828202905092915050565b6000613afb82613ba7565b9150613b0683613ba7565b925082821015613b1957613b18613c70565b5b828203905092915050565b6000613b2f82613b87565b9050919050565b60007fffffffff0000000000000000000000000000000000000000000000000000000082169050919050565b6000613b6d82613b24565b9050919050565b6000819050613b8282613e5c565b919050565b600073ffffffffffffffffffffffffffffffffffffffff82169050919050565b6000819050919050565b6000613bbc82613bc3565b9050919050565b6000613bce82613b87565b9050919050565b6000613be082613b74565b9050919050565b82818337600083830152505050565b613bff82613d2c565b810181811067ffffffffffffffff82111715613c1e57613c1d613cfd565b5b80604052505050565b6000613c3282613ba7565b91507fffffffffffffffffffffffffffffffffffffffffffffffffffffffffffffffff821415613c6557613c64613c70565b5b600182019050919050565b7f4e487b7100000000000000000000000000000000000000000000000000000000600052601160045260246000fd5b7f4e487b7100000000000000000000000000000000000000000000000000000000600052601260045260246000fd5b7f4e487b7100000000000000000000000000000000000000000000000000000000600052602160045260246000fd5b7f4e487b7100000000000000000000000000000000000000000000000000000000600052604160045260246000fd5b6000601f19601f8301169050919050565b7f6e65656420746f2073656e642074686520726571756972656420776569000000600082015250565b7f6c656e64657220616c7265616479207365740000000000000000000000000000600082015250565b7f6f6e6c7920626f72726f7765722063616e2063616c6c00000000000000000000600082015250565b7f73686f756c642062652061637469766500000000000000000000000000000000600082015250565b7f6e65656420746f2073656e64206d696e207061796261636b20616d6f756e7400600082015250565b7f706179206261636b20646174652073686f756c6420626520696e207061737400600082015250565b7f796f75206d75737420626520746865206c656e64657200000000000000000000600082015250565b60058110613e6d57613e6c613cce565b5b50565b613e7981613b24565b8114613e8457600080fd5b50565b613e9081613b62565b8114613e9b57600080fd5b50565b613ea781613ba7565b8114613eb257600080fd5b5056fea26469706673582212202f292b8f7a384221b1355c5ebbeadfb6601480ae6e4783853ccc7375cdd5a81664736f6c63430008010033",
  "linkReferences": {},
  "deployedLinkReferences": {}
}