{
  "_format": "hh-sol-artifact-1",
  "contractName": "NFTPawnShop",
  "sourceName": "contracts/NFTPawnShop.sol",
  "abi": [
    {
      "inputs": [],
      "stateMutability": "nonpayable",
      "type": "constructor"
    },
    {
      "inputs": [
        {
          "internalType": "address",
          "name": "borrower",
          "type": "address"
        },
        {
          "internalType": "uint256",
          "name": "termIndex",
          "type": "uint256"
        }
      ],
      "name": "acceptTerms",
      "outputs": [],
      "stateMutability": "payable",
      "type": "function"
    },
    {
      "inputs": [
        {
          "internalType": "uint256",
          "name": "_amountInWei",
          "type": "uint256"
        },
        {
          "internalType": "uint256",
          "name": "_interestRate",
          "type": "uint256"
        },
        {
          "internalType": "uint256",
          "name": "_startTime",
          "type": "uint256"
        }
      ],
      "name": "calculatePayment",
      "outputs": [
        {
          "internalType": "uint256",
          "name": "amount",
          "type": "uint256"
        }
      ],
      "stateMutability": "view",
      "type": "function"
    },
    {
      "inputs": [
        {
          "internalType": "uint256",
          "name": "termIndex",
          "type": "uint256"
        }
      ],
      "name": "claimCollateral",
      "outputs": [],
      "stateMutability": "nonpayable",
      "type": "function"
    },
    {
      "inputs": [
        {
          "internalType": "address",
          "name": "lender",
          "type": "address"
        }
      ],
      "name": "getLoans",
      "outputs": [
        {
          "components": [
            {
              "internalType": "contract IERC721",
              "name": "nftAddress",
              "type": "address"
            },
            {
              "internalType": "uint256",
              "name": "nftTokenID",
              "type": "uint256"
            },
            {
              "internalType": "uint256",
              "name": "amountInWei",
              "type": "uint256"
            },
            {
              "internalType": "uint256",
              "name": "interestRate",
              "type": "uint256"
            },
            {
              "internalType": "uint256",
              "name": "startTime",
              "type": "uint256"
            },
            {
              "internalType": "uint256",
              "name": "duration",
              "type": "uint256"
            },
            {
              "internalType": "address",
              "name": "borrower",
              "type": "address"
            },
            {
              "internalType": "address",
              "name": "lender",
              "type": "address"
            },
            {
              "internalType": "enum NFTPawnShop.CollateralStatus",
              "name": "status",
              "type": "uint8"
            },
            {
              "internalType": "uint256",
              "name": "borrowerIndex",
              "type": "uint256"
            },
            {
              "internalType": "uint256",
              "name": "lenderIndex",
              "type": "uint256"
            },
            {
              "internalType": "uint256",
              "name": "allTermsIndex",
              "type": "uint256"
            }
          ],
          "internalType": "struct NFTPawnShop.Terms[]",
          "name": "",
          "type": "tuple[]"
        }
      ],
      "stateMutability": "view",
      "type": "function"
    },
    {
      "inputs": [
        {
          "internalType": "address",
          "name": "borrower",
          "type": "address"
        }
      ],
      "name": "getPawnedTerms",
      "outputs": [
        {
          "components": [
            {
              "internalType": "contract IERC721",
              "name": "nftAddress",
              "type": "address"
            },
            {
              "internalType": "uint256",
              "name": "nftTokenID",
              "type": "uint256"
            },
            {
              "internalType": "uint256",
              "name": "amountInWei",
              "type": "uint256"
            },
            {
              "internalType": "uint256",
              "name": "interestRate",
              "type": "uint256"
            },
            {
              "internalType": "uint256",
              "name": "startTime",
              "type": "uint256"
            },
            {
              "internalType": "uint256",
              "name": "duration",
              "type": "uint256"
            },
            {
              "internalType": "address",
              "name": "borrower",
              "type": "address"
            },
            {
              "internalType": "address",
              "name": "lender",
              "type": "address"
            },
            {
              "internalType": "enum NFTPawnShop.CollateralStatus",
              "name": "status",
              "type": "uint8"
            },
            {
              "internalType": "uint256",
              "name": "borrowerIndex",
              "type": "uint256"
            },
            {
              "internalType": "uint256",
              "name": "lenderIndex",
              "type": "uint256"
            },
            {
              "internalType": "uint256",
              "name": "allTermsIndex",
              "type": "uint256"
            }
          ],
          "internalType": "struct NFTPawnShop.Terms[]",
          "name": "",
          "type": "tuple[]"
        }
      ],
      "stateMutability": "view",
      "type": "function"
    },
    {
      "inputs": [],
      "name": "getWaitingTerms",
      "outputs": [
        {
          "components": [
            {
              "internalType": "contract IERC721",
              "name": "nftAddress",
              "type": "address"
            },
            {
              "internalType": "uint256",
              "name": "nftTokenID",
              "type": "uint256"
            },
            {
              "internalType": "uint256",
              "name": "amountInWei",
              "type": "uint256"
            },
            {
              "internalType": "uint256",
              "name": "interestRate",
              "type": "uint256"
            },
            {
              "internalType": "uint256",
              "name": "startTime",
              "type": "uint256"
            },
            {
              "internalType": "uint256",
              "name": "duration",
              "type": "uint256"
            },
            {
              "internalType": "address",
              "name": "borrower",
              "type": "address"
            },
            {
              "internalType": "address",
              "name": "lender",
              "type": "address"
            },
            {
              "internalType": "enum NFTPawnShop.CollateralStatus",
              "name": "status",
              "type": "uint8"
            },
            {
              "internalType": "uint256",
              "name": "borrowerIndex",
              "type": "uint256"
            },
            {
              "internalType": "uint256",
              "name": "lenderIndex",
              "type": "uint256"
            },
            {
              "internalType": "uint256",
              "name": "allTermsIndex",
              "type": "uint256"
            }
          ],
          "internalType": "struct NFTPawnShop.Terms[]",
          "name": "",
          "type": "tuple[]"
        },
        {
          "internalType": "uint256",
          "name": "",
          "type": "uint256"
        }
      ],
      "stateMutability": "view",
      "type": "function"
    },
    {
      "inputs": [
        {
          "internalType": "address",
          "name": "",
          "type": "address"
        },
        {
          "internalType": "address",
          "name": "",
          "type": "address"
        },
        {
          "internalType": "uint256",
          "name": "",
          "type": "uint256"
        },
        {
          "internalType": "bytes",
          "name": "",
          "type": "bytes"
        }
      ],
      "name": "onERC721Received",
      "outputs": [
        {
          "internalType": "bytes4",
          "name": "",
          "type": "bytes4"
        }
      ],
      "stateMutability": "nonpayable",
      "type": "function"
    },
    {
      "inputs": [
        {
          "internalType": "contract IERC721",
          "name": "_nftAddress",
          "type": "address"
        },
        {
          "internalType": "uint256",
          "name": "_nftTokenID",
          "type": "uint256"
        },
        {
          "internalType": "uint256",
          "name": "_amountInWei",
          "type": "uint256"
        },
        {
          "internalType": "uint256",
          "name": "_duration",
          "type": "uint256"
        },
        {
          "internalType": "uint256",
          "name": "_interestRate",
          "type": "uint256"
        }
      ],
      "name": "pawn",
      "outputs": [],
      "stateMutability": "nonpayable",
      "type": "function"
    },
    {
      "inputs": [
        {
          "internalType": "address",
          "name": "_borrower",
          "type": "address"
        },
        {
          "internalType": "uint256",
          "name": "termIndex",
          "type": "uint256"
        }
      ],
      "name": "paybackTerm",
      "outputs": [],
      "stateMutability": "payable",
      "type": "function"
    },
    {
      "inputs": [
        {
          "internalType": "uint256",
          "name": "delta",
          "type": "uint256"
        }
      ],
      "name": "refund",
      "outputs": [],
      "stateMutability": "nonpayable",
      "type": "function"
    },
    {
      "inputs": [
        {
          "internalType": "address",
          "name": "_borrower",
          "type": "address"
        },
        {
          "internalType": "uint256",
          "name": "termIndex",
          "type": "uint256"
        }
      ],
      "name": "undoTerm",
      "outputs": [],
      "stateMutability": "nonpayable",
      "type": "function"
    }
  ],
  "bytecode": "0x608060405234801561001057600080fd5b50613ac8806100206000396000f3fe60806040526004361061009c5760003560e01c806336e44f0e1161006457806336e44f0e146101aa5780634e71f753146101c6578063977b344c146101f2578063c49785b41461021b578063d988ef2014610244578063f0facce4146102815761009c565b80630c5cd78f146100a1578063150b7a02146100de5780632310b0ec1461011b578063278ecde1146101445780632f49b8681461016d575b600080fd5b3480156100ad57600080fd5b506100c860048036038101906100c39190612f13565b61029d565b6040516100d591906133e4565b60405180910390f35b3480156100ea57600080fd5b5061010560048036038101906101009190612f3c565b610514565b6040516101129190613436565b60405180910390f35b34801561012757600080fd5b50610142600480360381019061013d9190612fb7565b610528565b005b34801561015057600080fd5b5061016b6004803603810190610166919061306a565b6109ea565b005b34801561017957600080fd5b50610194600480360381019061018f9190613093565b6109ed565b6040516101a19190613531565b60405180910390f35b6101c460048036038101906101bf9190612fb7565b610a8c565b005b3480156101d257600080fd5b506101db61122b565b6040516101e9929190613406565b60405180910390f35b3480156101fe57600080fd5b5061021960048036038101906102149190612ff3565b611739565b005b34801561022757600080fd5b50610242600480360381019061023d919061306a565b611c60565b005b34801561025057600080fd5b5061026b60048036038101906102669190612f13565b612453565b60405161027891906133e4565b60405180910390f35b61029b60048036038101906102969190612fb7565b6126cb565b005b60606000808373ffffffffffffffffffffffffffffffffffffffff1673ffffffffffffffffffffffffffffffffffffffff168152602001908152602001600020805480602002602001604051908101604052809291908181526020016000905b8282101561050957838290600052602060002090600b0201604051806101800160405290816000820160009054906101000a900473ffffffffffffffffffffffffffffffffffffffff1673ffffffffffffffffffffffffffffffffffffffff1673ffffffffffffffffffffffffffffffffffffffff16815260200160018201548152602001600282015481526020016003820154815260200160048201548152602001600582015481526020016006820160009054906101000a900473ffffffffffffffffffffffffffffffffffffffff1673ffffffffffffffffffffffffffffffffffffffff1673ffffffffffffffffffffffffffffffffffffffff1681526020016007820160009054906101000a900473ffffffffffffffffffffffffffffffffffffffff1673ffffffffffffffffffffffffffffffffffffffff1673ffffffffffffffffffffffffffffffffffffffff1681526020016007820160149054906101000a900460ff1660048111156104a0577f4e487b7100000000000000000000000000000000000000000000000000000000600052602160045260246000fd5b60048111156104d8577f4e487b7100000000000000000000000000000000000000000000000000000000600052602160045260246000fd5b81526020016008820154815260200160098201548152602001600a82015481525050815260200190600101906102fd565b505050509050919050565b600063150b7a0260e01b9050949350505050565b60008060008473ffffffffffffffffffffffffffffffffffffffff1673ffffffffffffffffffffffffffffffffffffffff16815260200190815260200160002082815481106105a0577f4e487b7100000000000000000000000000000000000000000000000000000000600052603260045260246000fd5b90600052602060002090600b0201905060008160070160009054906101000a900473ffffffffffffffffffffffffffffffffffffffff1690508373ffffffffffffffffffffffffffffffffffffffff163373ffffffffffffffffffffffffffffffffffffffff1614610647576040517f08c379a000000000000000000000000000000000000000000000000000000000815260040161063e90613491565b60405180910390fd5b600073ffffffffffffffffffffffffffffffffffffffff168173ffffffffffffffffffffffffffffffffffffffff16146106b6576040517f08c379a00000000000000000000000000000000000000000000000000000000081526004016106ad90613471565b60405180910390fd5b60008260000160009054906101000a900473ffffffffffffffffffffffffffffffffffffffff1690506000836001015490508173ffffffffffffffffffffffffffffffffffffffff166342842e0e3088846040518463ffffffff1660e01b8152600401610725939291906133ad565b600060405180830381600087803b15801561073f57600080fd5b505af1158015610753573d6000803e3d6000fd5b5050505060048460070160146101000a81548160ff021916908360048111156107a5577f4e487b7100000000000000000000000000000000000000000000000000000000600052602160045260246000fd5b021790555083600285600a0154815481106107e9577f4e487b7100000000000000000000000000000000000000000000000000000000600052603260045260246000fd5b90600052602060002090600b02016000820160009054906101000a900473ffffffffffffffffffffffffffffffffffffffff168160000160006101000a81548173ffffffffffffffffffffffffffffffffffffffff021916908373ffffffffffffffffffffffffffffffffffffffff16021790555060018201548160010155600282015481600201556003820154816003015560048201548160040155600582015481600501556006820160009054906101000a900473ffffffffffffffffffffffffffffffffffffffff168160060160006101000a81548173ffffffffffffffffffffffffffffffffffffffff021916908373ffffffffffffffffffffffffffffffffffffffff1602179055506007820160009054906101000a900473ffffffffffffffffffffffffffffffffffffffff168160070160006101000a81548173ffffffffffffffffffffffffffffffffffffffff021916908373ffffffffffffffffffffffffffffffffffffffff1602179055506007820160149054906101000a900460ff168160070160146101000a81548160ff021916908360048111156109bc577f4e487b7100000000000000000000000000000000000000000000000000000000600052602160045260246000fd5b02179055506008820154816008015560098201548160090155600a82015481600a0155905050505050505050565b50565b600080610a16603c610a088542612d3990919063ffffffff16565b612d4f90919063ffffffff16565b90506000610a2e600183612d4f90919063ffffffff16565b90506000610a6b82610a5d612710610a4f8a8c612d6590919063ffffffff16565b612d4f90919063ffffffff16565b612d6590919063ffffffff16565b9050610a808188612d7b90919063ffffffff16565b93505050509392505050565b60008060008473ffffffffffffffffffffffffffffffffffffffff1673ffffffffffffffffffffffffffffffffffffffff1681526020019081526020016000208281548110610b04577f4e487b7100000000000000000000000000000000000000000000000000000000600052603260045260246000fd5b90600052602060002090600b0201604051806101800160405290816000820160009054906101000a900473ffffffffffffffffffffffffffffffffffffffff1673ffffffffffffffffffffffffffffffffffffffff1673ffffffffffffffffffffffffffffffffffffffff16815260200160018201548152602001600282015481526020016003820154815260200160048201548152602001600582015481526020016006820160009054906101000a900473ffffffffffffffffffffffffffffffffffffffff1673ffffffffffffffffffffffffffffffffffffffff1673ffffffffffffffffffffffffffffffffffffffff1681526020016007820160009054906101000a900473ffffffffffffffffffffffffffffffffffffffff1673ffffffffffffffffffffffffffffffffffffffff1673ffffffffffffffffffffffffffffffffffffffff1681526020016007820160149054906101000a900460ff166004811115610c9d577f4e487b7100000000000000000000000000000000000000000000000000000000600052602160045260246000fd5b6004811115610cd5577f4e487b7100000000000000000000000000000000000000000000000000000000600052602160045260246000fd5b81526020016008820154815260200160098201548152602001600a8201548152505090506000610d128260400151836060015184608001516109ed565b905034811115610d57576040517f08c379a0000000000000000000000000000000000000000000000000000000008152600401610d4e906134d1565b60405180910390fd5b60008134610d6591906136cd565b90506000811115610d7a57610d79816109ea565b5b8260e0015173ffffffffffffffffffffffffffffffffffffffff166108fc349081150290604051600060405180830381858888f19350505050158015610dc4573d6000803e3d6000fd5b5060028361010001906004811115610e05577f4e487b7100000000000000000000000000000000000000000000000000000000600052602160045260246000fd5b90816004811115610e3f577f4e487b7100000000000000000000000000000000000000000000000000000000600052602160045260246000fd5b8152505082600284610160015181548110610e83577f4e487b7100000000000000000000000000000000000000000000000000000000600052603260045260246000fd5b90600052602060002090600b020160008201518160000160006101000a81548173ffffffffffffffffffffffffffffffffffffffff021916908373ffffffffffffffffffffffffffffffffffffffff1602179055506020820151816001015560408201518160020155606082015181600301556080820151816004015560a0820151816005015560c08201518160060160006101000a81548173ffffffffffffffffffffffffffffffffffffffff021916908373ffffffffffffffffffffffffffffffffffffffff16021790555060e08201518160070160006101000a81548173ffffffffffffffffffffffffffffffffffffffff021916908373ffffffffffffffffffffffffffffffffffffffff1602179055506101008201518160070160146101000a81548160ff02191690836004811115610fea577f4e487b7100000000000000000000000000000000000000000000000000000000600052602160045260246000fd5b02179055506101208201518160080155610140820151816009015561016082015181600a015590505082600160008560e0015173ffffffffffffffffffffffffffffffffffffffff1673ffffffffffffffffffffffffffffffffffffffff16815260200190815260200160002084610140015181548110611094577f4e487b7100000000000000000000000000000000000000000000000000000000600052603260045260246000fd5b90600052602060002090600b020160008201518160000160006101000a81548173ffffffffffffffffffffffffffffffffffffffff021916908373ffffffffffffffffffffffffffffffffffffffff1602179055506020820151816001015560408201518160020155606082015181600301556080820151816004015560a0820151816005015560c08201518160060160006101000a81548173ffffffffffffffffffffffffffffffffffffffff021916908373ffffffffffffffffffffffffffffffffffffffff16021790555060e08201518160070160006101000a81548173ffffffffffffffffffffffffffffffffffffffff021916908373ffffffffffffffffffffffffffffffffffffffff1602179055506101008201518160070160146101000a81548160ff021916908360048111156111fb577f4e487b7100000000000000000000000000000000000000000000000000000000600052602160045260246000fd5b02179055506101208201518160080155610140820151816009015561016082015181600a01559050505050505050565b60606000806000905060005b600280549050811015611337576000600481111561127e577f4e487b7100000000000000000000000000000000000000000000000000000000600052602160045260246000fd5b600282815481106112b8577f4e487b7100000000000000000000000000000000000000000000000000000000600052603260045260246000fd5b90600052602060002090600b020160070160149054906101000a900460ff16600481111561130f577f4e487b7100000000000000000000000000000000000000000000000000000000600052602160045260246000fd5b141561132457818061132090613804565b9250505b808061132f90613804565b915050611237565b5060008167ffffffffffffffff81111561137a577f4e487b7100000000000000000000000000000000000000000000000000000000600052604160045260246000fd5b6040519080825280602002602001820160405280156113b357816020015b6113a0612d91565b8152602001906001900390816113985790505b5090506000805b60028054905081101561172b5760006004811115611401577f4e487b7100000000000000000000000000000000000000000000000000000000600052602160045260246000fd5b6002828154811061143b577f4e487b7100000000000000000000000000000000000000000000000000000000600052603260045260246000fd5b90600052602060002090600b020160070160149054906101000a900460ff166004811115611492577f4e487b7100000000000000000000000000000000000000000000000000000000600052602160045260246000fd5b141561171857600281815481106114d2577f4e487b7100000000000000000000000000000000000000000000000000000000600052603260045260246000fd5b90600052602060002090600b0201604051806101800160405290816000820160009054906101000a900473ffffffffffffffffffffffffffffffffffffffff1673ffffffffffffffffffffffffffffffffffffffff1673ffffffffffffffffffffffffffffffffffffffff16815260200160018201548152602001600282015481526020016003820154815260200160048201548152602001600582015481526020016006820160009054906101000a900473ffffffffffffffffffffffffffffffffffffffff1673ffffffffffffffffffffffffffffffffffffffff1673ffffffffffffffffffffffffffffffffffffffff1681526020016007820160009054906101000a900473ffffffffffffffffffffffffffffffffffffffff1673ffffffffffffffffffffffffffffffffffffffff1673ffffffffffffffffffffffffffffffffffffffff1681526020016007820160149054906101000a900460ff16600481111561166b577f4e487b7100000000000000000000000000000000000000000000000000000000600052602160045260246000fd5b60048111156116a3577f4e487b7100000000000000000000000000000000000000000000000000000000600052602160045260246000fd5b81526020016008820154815260200160098201548152602001600a820154815250508383815181106116fe577f4e487b7100000000000000000000000000000000000000000000000000000000600052603260045260246000fd5b6020026020010181905250818061171490613804565b9250505b808061172390613804565b9150506113ba565b508183945094505050509091565b60006040518061018001604052808773ffffffffffffffffffffffffffffffffffffffff168152602001868152602001858152602001838152602001600081526020018481526020013373ffffffffffffffffffffffffffffffffffffffff168152602001600073ffffffffffffffffffffffffffffffffffffffff168152602001600060048111156117f5577f4e487b7100000000000000000000000000000000000000000000000000000000600052602160045260246000fd5b81526020016000803373ffffffffffffffffffffffffffffffffffffffff1673ffffffffffffffffffffffffffffffffffffffff1681526020019081526020016000208054905081526020016000815260200160028054905081525090508573ffffffffffffffffffffffffffffffffffffffff166342842e0e3330886040518463ffffffff1660e01b8152600401611890939291906133ad565b600060405180830381600087803b1580156118aa57600080fd5b505af11580156118be573d6000803e3d6000fd5b505050506000803373ffffffffffffffffffffffffffffffffffffffff1673ffffffffffffffffffffffffffffffffffffffff1681526020019081526020016000208190806001815401808255809150506001900390600052602060002090600b020160009091909190915060008201518160000160006101000a81548173ffffffffffffffffffffffffffffffffffffffff021916908373ffffffffffffffffffffffffffffffffffffffff1602179055506020820151816001015560408201518160020155606082015181600301556080820151816004015560a0820151816005015560c08201518160060160006101000a81548173ffffffffffffffffffffffffffffffffffffffff021916908373ffffffffffffffffffffffffffffffffffffffff16021790555060e08201518160070160006101000a81548173ffffffffffffffffffffffffffffffffffffffff021916908373ffffffffffffffffffffffffffffffffffffffff1602179055506101008201518160070160146101000a81548160ff02191690836004811115611a83577f4e487b7100000000000000000000000000000000000000000000000000000000600052602160045260246000fd5b02179055506101208201518160080155610140820151816009015561016082015181600a0155505060028190806001815401808255809150506001900390600052602060002090600b020160009091909190915060008201518160000160006101000a81548173ffffffffffffffffffffffffffffffffffffffff021916908373ffffffffffffffffffffffffffffffffffffffff1602179055506020820151816001015560408201518160020155606082015181600301556080820151816004015560a0820151816005015560c08201518160060160006101000a81548173ffffffffffffffffffffffffffffffffffffffff021916908373ffffffffffffffffffffffffffffffffffffffff16021790555060e08201518160070160006101000a81548173ffffffffffffffffffffffffffffffffffffffff021916908373ffffffffffffffffffffffffffffffffffffffff1602179055506101008201518160070160146101000a81548160ff02191690836004811115611c30577f4e487b7100000000000000000000000000000000000000000000000000000000600052602160045260246000fd5b02179055506101208201518160080155610140820151816009015561016082015181600a01555050505050505050565b6000600160003373ffffffffffffffffffffffffffffffffffffffff1673ffffffffffffffffffffffffffffffffffffffff1681526020019081526020016000208281548110611cd9577f4e487b7100000000000000000000000000000000000000000000000000000000600052603260045260246000fd5b90600052602060002090600b020190503373ffffffffffffffffffffffffffffffffffffffff168160070160009054906101000a900473ffffffffffffffffffffffffffffffffffffffff1673ffffffffffffffffffffffffffffffffffffffff1614611d7b576040517f08c379a0000000000000000000000000000000000000000000000000000000008152600401611d7290613511565b60405180910390fd5b80600501548160040154611d8f91906135ec565b4211611dd0576040517f08c379a0000000000000000000000000000000000000000000000000000000008152600401611dc7906134f1565b60405180910390fd5b60016004811115611e0a577f4e487b7100000000000000000000000000000000000000000000000000000000600052602160045260246000fd5b8160070160149054906101000a900460ff166004811115611e54577f4e487b7100000000000000000000000000000000000000000000000000000000600052602160045260246000fd5b14611e94576040517f08c379a0000000000000000000000000000000000000000000000000000000008152600401611e8b906134b1565b60405180910390fd5b8060000160009054906101000a900473ffffffffffffffffffffffffffffffffffffffff1673ffffffffffffffffffffffffffffffffffffffff166342842e0e303384600101546040518463ffffffff1660e01b8152600401611ef9939291906133ad565b600060405180830381600087803b158015611f1357600080fd5b505af1158015611f27573d6000803e3d6000fd5b5050505060038160070160146101000a81548160ff02191690836004811115611f79577f4e487b7100000000000000000000000000000000000000000000000000000000600052602160045260246000fd5b021790555080600282600a015481548110611fbd577f4e487b7100000000000000000000000000000000000000000000000000000000600052603260045260246000fd5b90600052602060002090600b02016000820160009054906101000a900473ffffffffffffffffffffffffffffffffffffffff168160000160006101000a81548173ffffffffffffffffffffffffffffffffffffffff021916908373ffffffffffffffffffffffffffffffffffffffff16021790555060018201548160010155600282015481600201556003820154816003015560048201548160040155600582015481600501556006820160009054906101000a900473ffffffffffffffffffffffffffffffffffffffff168160060160006101000a81548173ffffffffffffffffffffffffffffffffffffffff021916908373ffffffffffffffffffffffffffffffffffffffff1602179055506007820160009054906101000a900473ffffffffffffffffffffffffffffffffffffffff168160070160006101000a81548173ffffffffffffffffffffffffffffffffffffffff021916908373ffffffffffffffffffffffffffffffffffffffff1602179055506007820160149054906101000a900460ff168160070160146101000a81548160ff02191690836004811115612190577f4e487b7100000000000000000000000000000000000000000000000000000000600052602160045260246000fd5b02179055506008820154816008015560098201548160090155600a82015481600a015590505080600160008360070160009054906101000a900473ffffffffffffffffffffffffffffffffffffffff1673ffffffffffffffffffffffffffffffffffffffff1673ffffffffffffffffffffffffffffffffffffffff168152602001908152602001600020826009015481548110612256577f4e487b7100000000000000000000000000000000000000000000000000000000600052603260045260246000fd5b90600052602060002090600b02016000820160009054906101000a900473ffffffffffffffffffffffffffffffffffffffff168160000160006101000a81548173ffffffffffffffffffffffffffffffffffffffff021916908373ffffffffffffffffffffffffffffffffffffffff16021790555060018201548160010155600282015481600201556003820154816003015560048201548160040155600582015481600501556006820160009054906101000a900473ffffffffffffffffffffffffffffffffffffffff168160060160006101000a81548173ffffffffffffffffffffffffffffffffffffffff021916908373ffffffffffffffffffffffffffffffffffffffff1602179055506007820160009054906101000a900473ffffffffffffffffffffffffffffffffffffffff168160070160006101000a81548173ffffffffffffffffffffffffffffffffffffffff021916908373ffffffffffffffffffffffffffffffffffffffff1602179055506007820160149054906101000a900460ff168160070160146101000a81548160ff02191690836004811115612429577f4e487b7100000000000000000000000000000000000000000000000000000000600052602160045260246000fd5b02179055506008820154816008015560098201548160090155600a82015481600a01559050505050565b6060600160008373ffffffffffffffffffffffffffffffffffffffff1673ffffffffffffffffffffffffffffffffffffffff168152602001908152602001600020805480602002602001604051908101604052809291908181526020016000905b828210156126c057838290600052602060002090600b0201604051806101800160405290816000820160009054906101000a900473ffffffffffffffffffffffffffffffffffffffff1673ffffffffffffffffffffffffffffffffffffffff1673ffffffffffffffffffffffffffffffffffffffff16815260200160018201548152602001600282015481526020016003820154815260200160048201548152602001600582015481526020016006820160009054906101000a900473ffffffffffffffffffffffffffffffffffffffff1673ffffffffffffffffffffffffffffffffffffffff1673ffffffffffffffffffffffffffffffffffffffff1681526020016007820160009054906101000a900473ffffffffffffffffffffffffffffffffffffffff1673ffffffffffffffffffffffffffffffffffffffff1673ffffffffffffffffffffffffffffffffffffffff1681526020016007820160149054906101000a900460ff166004811115612657577f4e487b7100000000000000000000000000000000000000000000000000000000600052602160045260246000fd5b600481111561268f577f4e487b7100000000000000000000000000000000000000000000000000000000600052602160045260246000fd5b81526020016008820154815260200160098201548152602001600a82015481525050815260200190600101906124b4565b505050509050919050565b60008060008473ffffffffffffffffffffffffffffffffffffffff1673ffffffffffffffffffffffffffffffffffffffff1681526020019081526020016000208281548110612743577f4e487b7100000000000000000000000000000000000000000000000000000000600052603260045260246000fd5b90600052602060002090600b0201905060008160020154905034811461279e576040517f08c379a000000000000000000000000000000000000000000000000000000000815260040161279590613451565b60405180910390fd5b8160060160009054906101000a900473ffffffffffffffffffffffffffffffffffffffff1673ffffffffffffffffffffffffffffffffffffffff166108fc349081150290604051600060405180830381858888f19350505050158015612808573d6000803e3d6000fd5b50338260070160006101000a81548173ffffffffffffffffffffffffffffffffffffffff021916908373ffffffffffffffffffffffffffffffffffffffff16021790555060018260070160146101000a81548160ff0219169083600481111561289a577f4e487b7100000000000000000000000000000000000000000000000000000000600052602160045260246000fd5b0217905550428260040181905550600160003373ffffffffffffffffffffffffffffffffffffffff1673ffffffffffffffffffffffffffffffffffffffff1681526020019081526020016000208290806001815401808255809150506001900390600052602060002090600b02016000909190919091506000820160009054906101000a900473ffffffffffffffffffffffffffffffffffffffff168160000160006101000a81548173ffffffffffffffffffffffffffffffffffffffff021916908373ffffffffffffffffffffffffffffffffffffffff16021790555060018201548160010155600282015481600201556003820154816003015560048201548160040155600582015481600501556006820160009054906101000a900473ffffffffffffffffffffffffffffffffffffffff168160060160006101000a81548173ffffffffffffffffffffffffffffffffffffffff021916908373ffffffffffffffffffffffffffffffffffffffff1602179055506007820160009054906101000a900473ffffffffffffffffffffffffffffffffffffffff168160070160006101000a81548173ffffffffffffffffffffffffffffffffffffffff021916908373ffffffffffffffffffffffffffffffffffffffff1602179055506007820160149054906101000a900460ff168160070160146101000a81548160ff02191690836004811115612ad6577f4e487b7100000000000000000000000000000000000000000000000000000000600052602160045260246000fd5b02179055506008820154816008015560098201548160090155600a82015481600a0155505081600283600a015481548110612b3a577f4e487b7100000000000000000000000000000000000000000000000000000000600052603260045260246000fd5b90600052602060002090600b02016000820160009054906101000a900473ffffffffffffffffffffffffffffffffffffffff168160000160006101000a81548173ffffffffffffffffffffffffffffffffffffffff021916908373ffffffffffffffffffffffffffffffffffffffff16021790555060018201548160010155600282015481600201556003820154816003015560048201548160040155600582015481600501556006820160009054906101000a900473ffffffffffffffffffffffffffffffffffffffff168160060160006101000a81548173ffffffffffffffffffffffffffffffffffffffff021916908373ffffffffffffffffffffffffffffffffffffffff1602179055506007820160009054906101000a900473ffffffffffffffffffffffffffffffffffffffff168160070160006101000a81548173ffffffffffffffffffffffffffffffffffffffff021916908373ffffffffffffffffffffffffffffffffffffffff1602179055506007820160149054906101000a900460ff168160070160146101000a81548160ff02191690836004811115612d0d577f4e487b7100000000000000000000000000000000000000000000000000000000600052602160045260246000fd5b02179055506008820154816008015560098201548160090155600a82015481600a015590505050505050565b60008183612d4791906136cd565b905092915050565b60008183612d5d9190613642565b905092915050565b60008183612d739190613673565b905092915050565b60008183612d8991906135ec565b905092915050565b604051806101800160405280600073ffffffffffffffffffffffffffffffffffffffff1681526020016000815260200160008152602001600081526020016000815260200160008152602001600073ffffffffffffffffffffffffffffffffffffffff168152602001600073ffffffffffffffffffffffffffffffffffffffff16815260200160006004811115612e51577f4e487b7100000000000000000000000000000000000000000000000000000000600052602160045260246000fd5b81526020016000815260200160008152602001600081525090565b6000612e7f612e7a84613571565b61354c565b905082815260208101848484011115612e9757600080fd5b612ea28482856137c4565b509392505050565b600081359050612eb981613a4d565b92915050565b600082601f830112612ed057600080fd5b8135612ee0848260208601612e6c565b91505092915050565b600081359050612ef881613a64565b92915050565b600081359050612f0d81613a7b565b92915050565b600060208284031215612f2557600080fd5b6000612f3384828501612eaa565b91505092915050565b60008060008060808587031215612f5257600080fd5b6000612f6087828801612eaa565b9450506020612f7187828801612eaa565b9350506040612f8287828801612efe565b925050606085013567ffffffffffffffff811115612f9f57600080fd5b612fab87828801612ebf565b91505092959194509250565b60008060408385031215612fca57600080fd5b6000612fd885828601612eaa565b9250506020612fe985828601612efe565b9150509250929050565b600080600080600060a0868803121561300b57600080fd5b600061301988828901612ee9565b955050602061302a88828901612efe565b945050604061303b88828901612efe565b935050606061304c88828901612efe565b925050608061305d88828901612efe565b9150509295509295909350565b60006020828403121561307c57600080fd5b600061308a84828501612efe565b91505092915050565b6000806000606084860312156130a857600080fd5b60006130b686828701612efe565b93505060206130c786828701612efe565b92505060406130d886828701612efe565b9150509250925092565b60006130ee8383613299565b6101808301905092915050565b61310481613701565b82525050565b61311381613701565b82525050565b6000613124826135b2565b61312e81856135ca565b9350613139836135a2565b8060005b8381101561316a57815161315188826130e2565b975061315c836135bd565b92505060018101905061313d565b5085935050505092915050565b61318081613713565b82525050565b61318f8161378e565b82525050565b61319e816137b2565b82525050565b60006131b1601d836135db565b91506131bc8261391a565b602082019050919050565b60006131d46012836135db565b91506131df82613943565b602082019050919050565b60006131f76016836135db565b91506132028261396c565b602082019050919050565b600061321a6010836135db565b915061322582613995565b602082019050919050565b600061323d601f836135db565b9150613248826139be565b602082019050919050565b6000613260601f836135db565b915061326b826139e7565b602082019050919050565b60006132836016836135db565b915061328e82613a10565b602082019050919050565b610180820160008201516132b06000850182613186565b5060208201516132c3602085018261338f565b5060408201516132d6604085018261338f565b5060608201516132e9606085018261338f565b5060808201516132fc608085018261338f565b5060a082015161330f60a085018261338f565b5060c082015161332260c08501826130fb565b5060e082015161333560e08501826130fb565b5061010082015161334a610100850182613195565b5061012082015161335f61012085018261338f565b5061014082015161337461014085018261338f565b5061016082015161338961016085018261338f565b50505050565b61339881613784565b82525050565b6133a781613784565b82525050565b60006060820190506133c2600083018661310a565b6133cf602083018561310a565b6133dc604083018461339e565b949350505050565b600060208201905081810360008301526133fe8184613119565b905092915050565b600060408201905081810360008301526134208185613119565b905061342f602083018461339e565b9392505050565b600060208201905061344b6000830184613177565b92915050565b6000602082019050818103600083015261346a816131a4565b9050919050565b6000602082019050818103600083015261348a816131c7565b9050919050565b600060208201905081810360008301526134aa816131ea565b9050919050565b600060208201905081810360008301526134ca8161320d565b9050919050565b600060208201905081810360008301526134ea81613230565b9050919050565b6000602082019050818103600083015261350a81613253565b9050919050565b6000602082019050818103600083015261352a81613276565b9050919050565b6000602082019050613546600083018461339e565b92915050565b6000613556613567565b905061356282826137d3565b919050565b6000604051905090565b600067ffffffffffffffff82111561358c5761358b6138da565b5b61359582613909565b9050602081019050919050565b6000819050602082019050919050565b600081519050919050565b6000602082019050919050565b600082825260208201905092915050565b600082825260208201905092915050565b60006135f782613784565b915061360283613784565b9250827fffffffffffffffffffffffffffffffffffffffffffffffffffffffffffffffff038211156136375761363661384d565b5b828201905092915050565b600061364d82613784565b915061365883613784565b9250826136685761366761387c565b5b828204905092915050565b600061367e82613784565b915061368983613784565b9250817fffffffffffffffffffffffffffffffffffffffffffffffffffffffffffffffff04831182151516156136c2576136c161384d565b5b828202905092915050565b60006136d882613784565b91506136e383613784565b9250828210156136f6576136f561384d565b5b828203905092915050565b600061370c82613764565b9050919050565b60007fffffffff0000000000000000000000000000000000000000000000000000000082169050919050565b600061374a82613701565b9050919050565b600081905061375f82613a39565b919050565b600073ffffffffffffffffffffffffffffffffffffffff82169050919050565b6000819050919050565b6000613799826137a0565b9050919050565b60006137ab82613764565b9050919050565b60006137bd82613751565b9050919050565b82818337600083830152505050565b6137dc82613909565b810181811067ffffffffffffffff821117156137fb576137fa6138da565b5b80604052505050565b600061380f82613784565b91507fffffffffffffffffffffffffffffffffffffffffffffffffffffffffffffffff8214156138425761384161384d565b5b600182019050919050565b7f4e487b7100000000000000000000000000000000000000000000000000000000600052601160045260246000fd5b7f4e487b7100000000000000000000000000000000000000000000000000000000600052601260045260246000fd5b7f4e487b7100000000000000000000000000000000000000000000000000000000600052602160045260246000fd5b7f4e487b7100000000000000000000000000000000000000000000000000000000600052604160045260246000fd5b6000601f19601f8301169050919050565b7f6e65656420746f2073656e642074686520726571756972656420776569000000600082015250565b7f6c656e64657220616c7265616479207365740000000000000000000000000000600082015250565b7f6f6e6c7920626f72726f7765722063616e2063616c6c00000000000000000000600082015250565b7f73686f756c642062652061637469766500000000000000000000000000000000600082015250565b7f6e65656420746f2073656e64206d696e207061796261636b20616d6f756e7400600082015250565b7f706179206261636b20646174652073686f756c6420626520696e207061737400600082015250565b7f796f75206d75737420626520746865206c656e64657200000000000000000000600082015250565b60058110613a4a57613a496138ab565b5b50565b613a5681613701565b8114613a6157600080fd5b50565b613a6d8161373f565b8114613a7857600080fd5b50565b613a8481613784565b8114613a8f57600080fd5b5056fea2646970667358221220880e209f233818e043617e518c41f4c60c2f291da83c051a76e368106dfe34e264736f6c63430008010033",
  "linkReferences": {},
  "deployedLinkReferences": {}
}