{
  "_format": "hh-sol-artifact-1",
  "contractName": "NFTPawnShop",
  "sourceName": "contracts/NFTPawnShop.sol",
  "abi": [
    {
      "inputs": [],
      "stateMutability": "nonpayable",
      "type": "constructor"
    },
    {
      "inputs": [
        {
          "internalType": "address",
          "name": "borrower",
          "type": "address"
        },
        {
          "internalType": "uint256",
          "name": "termIndex",
          "type": "uint256"
        }
      ],
      "name": "acceptTerms",
      "outputs": [],
      "stateMutability": "payable",
      "type": "function"
    },
    {
      "inputs": [
        {
          "internalType": "uint256",
          "name": "_amountInWei",
          "type": "uint256"
        },
        {
          "internalType": "uint256",
          "name": "_interestRate",
          "type": "uint256"
        },
        {
          "internalType": "uint256",
          "name": "_startTime",
          "type": "uint256"
        }
      ],
      "name": "calculatePayment",
      "outputs": [
        {
          "internalType": "uint256",
          "name": "amount",
          "type": "uint256"
        }
      ],
      "stateMutability": "view",
      "type": "function"
    },
    {
      "inputs": [
        {
          "internalType": "uint256",
          "name": "termIndex",
          "type": "uint256"
        }
      ],
      "name": "claimCollateral",
      "outputs": [],
      "stateMutability": "nonpayable",
      "type": "function"
    },
    {
      "inputs": [],
      "name": "getWaitingTerms",
      "outputs": [
        {
          "components": [
            {
              "internalType": "contract IERC721",
              "name": "nftAddress",
              "type": "address"
            },
            {
              "internalType": "uint256",
              "name": "nftTokenID",
              "type": "uint256"
            },
            {
              "internalType": "uint256",
              "name": "amountInWei",
              "type": "uint256"
            },
            {
              "internalType": "uint256",
              "name": "interestRate",
              "type": "uint256"
            },
            {
              "internalType": "uint256",
              "name": "startTime",
              "type": "uint256"
            },
            {
              "internalType": "uint256",
              "name": "duration",
              "type": "uint256"
            },
            {
              "internalType": "address",
              "name": "borrower",
              "type": "address"
            },
            {
              "internalType": "address",
              "name": "lender",
              "type": "address"
            },
            {
              "internalType": "enum NFTPawnShop.CollateralStatus",
              "name": "status",
              "type": "uint8"
            },
            {
              "internalType": "uint256",
              "name": "index",
              "type": "uint256"
            }
          ],
          "internalType": "struct NFTPawnShop.Terms[]",
          "name": "",
          "type": "tuple[]"
        },
        {
          "internalType": "uint256",
          "name": "",
          "type": "uint256"
        }
      ],
      "stateMutability": "view",
      "type": "function"
    },
    {
      "inputs": [
        {
          "internalType": "address",
          "name": "",
          "type": "address"
        },
        {
          "internalType": "address",
          "name": "",
          "type": "address"
        },
        {
          "internalType": "uint256",
          "name": "",
          "type": "uint256"
        },
        {
          "internalType": "bytes",
          "name": "",
          "type": "bytes"
        }
      ],
      "name": "onERC721Received",
      "outputs": [
        {
          "internalType": "bytes4",
          "name": "",
          "type": "bytes4"
        }
      ],
      "stateMutability": "nonpayable",
      "type": "function"
    },
    {
      "inputs": [
        {
          "internalType": "contract IERC721",
          "name": "_nftAddress",
          "type": "address"
        },
        {
          "internalType": "uint256",
          "name": "_nftTokenID",
          "type": "uint256"
        },
        {
          "internalType": "uint256",
          "name": "_amountInWei",
          "type": "uint256"
        },
        {
          "internalType": "uint256",
          "name": "_duration",
          "type": "uint256"
        },
        {
          "internalType": "uint256",
          "name": "_interestRate",
          "type": "uint256"
        }
      ],
      "name": "pawn",
      "outputs": [],
      "stateMutability": "nonpayable",
      "type": "function"
    },
    {
      "inputs": [
        {
          "internalType": "address",
          "name": "_borrower",
          "type": "address"
        },
        {
          "internalType": "uint256",
          "name": "termIndex",
          "type": "uint256"
        }
      ],
      "name": "paybackTerm",
      "outputs": [],
      "stateMutability": "payable",
      "type": "function"
    },
    {
      "inputs": [
        {
          "internalType": "uint256",
          "name": "delta",
          "type": "uint256"
        }
      ],
      "name": "refund",
      "outputs": [],
      "stateMutability": "nonpayable",
      "type": "function"
    },
    {
      "inputs": [
        {
          "internalType": "address",
          "name": "_borrower",
          "type": "address"
        },
        {
          "internalType": "uint256",
          "name": "termIndex",
          "type": "uint256"
        }
      ],
      "name": "undoTerm",
      "outputs": [],
      "stateMutability": "nonpayable",
      "type": "function"
    }
  ],
  "bytecode": "0x608060405234801561001057600080fd5b5061270f806100206000396000f3fe6080604052600436106100865760003560e01c806336e44f0e1161005957806336e44f0e146101575780634e71f75314610173578063977b344c1461019f578063c49785b4146101c8578063f0facce4146101f157610086565b8063150b7a021461008b5780632310b0ec146100c8578063278ecde1146100f15780632f49b8681461011a575b600080fd5b34801561009757600080fd5b506100b260048036038101906100ad9190611bcf565b61020d565b6040516100bf919061207d565b60405180910390f35b3480156100d457600080fd5b506100ef60048036038101906100ea9190611c4a565b610221565b005b3480156100fd57600080fd5b5061011860048036038101906101139190611cfd565b6104a2565b005b34801561012657600080fd5b50610141600480360381019061013c9190611d26565b6104a5565b60405161014e9190612178565b60405180910390f35b610171600480360381019061016c9190611c4a565b610544565b005b34801561017f57600080fd5b506101886108ee565b60405161019692919061204d565b60405180910390f35b3480156101ab57600080fd5b506101c660048036038101906101c19190611c86565b610ce2565b005b3480156101d457600080fd5b506101ef60048036038101906101ea9190611cfd565b6111cb565b005b61020b60048036038101906102069190611c4a565b6114ed565b005b600063150b7a0260e01b9050949350505050565b60008060008473ffffffffffffffffffffffffffffffffffffffff1673ffffffffffffffffffffffffffffffffffffffff1681526020019081526020016000208281548110610299577f4e487b7100000000000000000000000000000000000000000000000000000000600052603260045260246000fd5b9060005260206000209060090201905060008160070160009054906101000a900473ffffffffffffffffffffffffffffffffffffffff1690508373ffffffffffffffffffffffffffffffffffffffff163373ffffffffffffffffffffffffffffffffffffffff1614610340576040517f08c379a0000000000000000000000000000000000000000000000000000000008152600401610337906120d8565b60405180910390fd5b600073ffffffffffffffffffffffffffffffffffffffff168173ffffffffffffffffffffffffffffffffffffffff16146103af576040517f08c379a00000000000000000000000000000000000000000000000000000000081526004016103a6906120b8565b60405180910390fd5b60008260000160009054906101000a900473ffffffffffffffffffffffffffffffffffffffff1690506000836001015490508173ffffffffffffffffffffffffffffffffffffffff166342842e0e3088846040518463ffffffff1660e01b815260040161041e93929190612016565b600060405180830381600087803b15801561043857600080fd5b505af115801561044c573d6000803e3d6000fd5b505050506000808773ffffffffffffffffffffffffffffffffffffffff1673ffffffffffffffffffffffffffffffffffffffff168152602001908152602001600020600061049a9190611967565b505050505050565b50565b6000806104ce603c6104c0854261190f90919063ffffffff16565b61192590919063ffffffff16565b905060006104e660018361192590919063ffffffff16565b90506000610523826105156127106105078a8c61193b90919063ffffffff16565b61192590919063ffffffff16565b61193b90919063ffffffff16565b9050610538818861195190919063ffffffff16565b93505050509392505050565b60008060008473ffffffffffffffffffffffffffffffffffffffff1673ffffffffffffffffffffffffffffffffffffffff16815260200190815260200160002082815481106105bc577f4e487b7100000000000000000000000000000000000000000000000000000000600052603260045260246000fd5b9060005260206000209060090201604051806101400160405290816000820160009054906101000a900473ffffffffffffffffffffffffffffffffffffffff1673ffffffffffffffffffffffffffffffffffffffff1673ffffffffffffffffffffffffffffffffffffffff16815260200160018201548152602001600282015481526020016003820154815260200160048201548152602001600582015481526020016006820160009054906101000a900473ffffffffffffffffffffffffffffffffffffffff1673ffffffffffffffffffffffffffffffffffffffff1673ffffffffffffffffffffffffffffffffffffffff1681526020016007820160009054906101000a900473ffffffffffffffffffffffffffffffffffffffff1673ffffffffffffffffffffffffffffffffffffffff1673ffffffffffffffffffffffffffffffffffffffff1681526020016007820160149054906101000a900460ff166003811115610755577f4e487b7100000000000000000000000000000000000000000000000000000000600052602160045260246000fd5b600381111561078d577f4e487b7100000000000000000000000000000000000000000000000000000000600052602160045260246000fd5b8152602001600882015481525050905060006107b68260400151836060015184608001516104a5565b9050348111156107fb576040517f08c379a00000000000000000000000000000000000000000000000000000000081526004016107f290612118565b60405180910390fd5b600081346108099190612314565b9050600081111561081e5761081d816104a2565b5b8260e0015173ffffffffffffffffffffffffffffffffffffffff166108fc349081150290604051600060405180830381858888f19350505050158015610868573d6000803e3d6000fd5b50600283610100019060038111156108a9577f4e487b7100000000000000000000000000000000000000000000000000000000600052602160045260246000fd5b908160038111156108e3577f4e487b7100000000000000000000000000000000000000000000000000000000600052602160045260246000fd5b815250505050505050565b606060008060028054905067ffffffffffffffff811115610938577f4e487b7100000000000000000000000000000000000000000000000000000000600052604160045260246000fd5b60405190808252806020026020018201604052801561097157816020015b61095e61198b565b8152602001906001900390816109565790505b5090506000805b600280549050811015610cd557600060038111156109bf577f4e487b7100000000000000000000000000000000000000000000000000000000600052602160045260246000fd5b600282815481106109f9577f4e487b7100000000000000000000000000000000000000000000000000000000600052603260045260246000fd5b906000526020600020906009020160070160149054906101000a900460ff166003811115610a50577f4e487b7100000000000000000000000000000000000000000000000000000000600052602160045260246000fd5b1415610cc25760028181548110610a90577f4e487b7100000000000000000000000000000000000000000000000000000000600052603260045260246000fd5b9060005260206000209060090201604051806101400160405290816000820160009054906101000a900473ffffffffffffffffffffffffffffffffffffffff1673ffffffffffffffffffffffffffffffffffffffff1673ffffffffffffffffffffffffffffffffffffffff16815260200160018201548152602001600282015481526020016003820154815260200160048201548152602001600582015481526020016006820160009054906101000a900473ffffffffffffffffffffffffffffffffffffffff1673ffffffffffffffffffffffffffffffffffffffff1673ffffffffffffffffffffffffffffffffffffffff1681526020016007820160009054906101000a900473ffffffffffffffffffffffffffffffffffffffff1673ffffffffffffffffffffffffffffffffffffffff1673ffffffffffffffffffffffffffffffffffffffff1681526020016007820160149054906101000a900460ff166003811115610c29577f4e487b7100000000000000000000000000000000000000000000000000000000600052602160045260246000fd5b6003811115610c61577f4e487b7100000000000000000000000000000000000000000000000000000000600052602160045260246000fd5b8152602001600882015481525050838381518110610ca8577f4e487b7100000000000000000000000000000000000000000000000000000000600052603260045260246000fd5b60200260200101819052508180610cbe9061244b565b9250505b8080610ccd9061244b565b915050610978565b5081819350935050509091565b60006040518061014001604052808773ffffffffffffffffffffffffffffffffffffffff168152602001868152602001858152602001838152602001600081526020018481526020013373ffffffffffffffffffffffffffffffffffffffff168152602001600073ffffffffffffffffffffffffffffffffffffffff16815260200160006003811115610d9e577f4e487b7100000000000000000000000000000000000000000000000000000000600052602160045260246000fd5b81526020016000803373ffffffffffffffffffffffffffffffffffffffff1673ffffffffffffffffffffffffffffffffffffffff1681526020019081526020016000208054905081525090508573ffffffffffffffffffffffffffffffffffffffff166342842e0e3330886040518463ffffffff1660e01b8152600401610e2793929190612016565b600060405180830381600087803b158015610e4157600080fd5b505af1158015610e55573d6000803e3d6000fd5b505050506000803373ffffffffffffffffffffffffffffffffffffffff1673ffffffffffffffffffffffffffffffffffffffff16815260200190815260200160002081908060018154018082558091505060019003906000526020600020906009020160009091909190915060008201518160000160006101000a81548173ffffffffffffffffffffffffffffffffffffffff021916908373ffffffffffffffffffffffffffffffffffffffff1602179055506020820151816001015560408201518160020155606082015181600301556080820151816004015560a0820151816005015560c08201518160060160006101000a81548173ffffffffffffffffffffffffffffffffffffffff021916908373ffffffffffffffffffffffffffffffffffffffff16021790555060e08201518160070160006101000a81548173ffffffffffffffffffffffffffffffffffffffff021916908373ffffffffffffffffffffffffffffffffffffffff1602179055506101008201518160070160146101000a81548160ff0219169083600381111561101a577f4e487b7100000000000000000000000000000000000000000000000000000000600052602160045260246000fd5b021790555061012082015181600801555050600281908060018154018082558091505060019003906000526020600020906009020160009091909190915060008201518160000160006101000a81548173ffffffffffffffffffffffffffffffffffffffff021916908373ffffffffffffffffffffffffffffffffffffffff1602179055506020820151816001015560408201518160020155606082015181600301556080820151816004015560a0820151816005015560c08201518160060160006101000a81548173ffffffffffffffffffffffffffffffffffffffff021916908373ffffffffffffffffffffffffffffffffffffffff16021790555060e08201518160070160006101000a81548173ffffffffffffffffffffffffffffffffffffffff021916908373ffffffffffffffffffffffffffffffffffffffff1602179055506101008201518160070160146101000a81548160ff021916908360038111156111b1577f4e487b7100000000000000000000000000000000000000000000000000000000600052602160045260246000fd5b021790555061012082015181600801555050505050505050565b6000600160003373ffffffffffffffffffffffffffffffffffffffff1673ffffffffffffffffffffffffffffffffffffffff1681526020019081526020016000208281548110611244577f4e487b7100000000000000000000000000000000000000000000000000000000600052603260045260246000fd5b906000526020600020906009020190503373ffffffffffffffffffffffffffffffffffffffff168160070160009054906101000a900473ffffffffffffffffffffffffffffffffffffffff1673ffffffffffffffffffffffffffffffffffffffff16146112e6576040517f08c379a00000000000000000000000000000000000000000000000000000000081526004016112dd90612158565b60405180910390fd5b806005015481600401546112fa9190612233565b421161133b576040517f08c379a000000000000000000000000000000000000000000000000000000000815260040161133290612138565b60405180910390fd5b60016003811115611375577f4e487b7100000000000000000000000000000000000000000000000000000000600052602160045260246000fd5b8160070160149054906101000a900460ff1660038111156113bf577f4e487b7100000000000000000000000000000000000000000000000000000000600052602160045260246000fd5b146113ff576040517f08c379a00000000000000000000000000000000000000000000000000000000081526004016113f6906120f8565b60405180910390fd5b8060000160009054906101000a900473ffffffffffffffffffffffffffffffffffffffff1673ffffffffffffffffffffffffffffffffffffffff166342842e0e303384600101546040518463ffffffff1660e01b815260040161146493929190612016565b600060405180830381600087803b15801561147e57600080fd5b505af1158015611492573d6000803e3d6000fd5b5050505060038160070160146101000a81548160ff021916908360038111156114e4577f4e487b7100000000000000000000000000000000000000000000000000000000600052602160045260246000fd5b02179055505050565b60008060008473ffffffffffffffffffffffffffffffffffffffff1673ffffffffffffffffffffffffffffffffffffffff1681526020019081526020016000208281548110611565577f4e487b7100000000000000000000000000000000000000000000000000000000600052603260045260246000fd5b906000526020600020906009020190506000816002015490503481146115c0576040517f08c379a00000000000000000000000000000000000000000000000000000000081526004016115b790612098565b60405180910390fd5b8160060160009054906101000a900473ffffffffffffffffffffffffffffffffffffffff1673ffffffffffffffffffffffffffffffffffffffff166108fc349081150290604051600060405180830381858888f1935050505015801561162a573d6000803e3d6000fd5b50338260070160006101000a81548173ffffffffffffffffffffffffffffffffffffffff021916908373ffffffffffffffffffffffffffffffffffffffff16021790555060018260070160146101000a81548160ff021916908360038111156116bc577f4e487b7100000000000000000000000000000000000000000000000000000000600052602160045260246000fd5b0217905550428260040181905550600160003373ffffffffffffffffffffffffffffffffffffffff1673ffffffffffffffffffffffffffffffffffffffff1681526020019081526020016000208290806001815401808255809150506001900390600052602060002090600902016000909190919091506000820160009054906101000a900473ffffffffffffffffffffffffffffffffffffffff168160000160006101000a81548173ffffffffffffffffffffffffffffffffffffffff021916908373ffffffffffffffffffffffffffffffffffffffff16021790555060018201548160010155600282015481600201556003820154816003015560048201548160040155600582015481600501556006820160009054906101000a900473ffffffffffffffffffffffffffffffffffffffff168160060160006101000a81548173ffffffffffffffffffffffffffffffffffffffff021916908373ffffffffffffffffffffffffffffffffffffffff1602179055506007820160009054906101000a900473ffffffffffffffffffffffffffffffffffffffff168160070160006101000a81548173ffffffffffffffffffffffffffffffffffffffff021916908373ffffffffffffffffffffffffffffffffffffffff1602179055506007820160149054906101000a900460ff168160070160146101000a81548160ff021916908360038111156118f8577f4e487b7100000000000000000000000000000000000000000000000000000000600052602160045260246000fd5b021790555060088201548160080155505050505050565b6000818361191d9190612314565b905092915050565b600081836119339190612289565b905092915050565b6000818361194991906122ba565b905092915050565b6000818361195f9190612233565b905092915050565b50805460008255600902906000526020600020908101906119889190611a58565b50565b604051806101400160405280600073ffffffffffffffffffffffffffffffffffffffff1681526020016000815260200160008152602001600081526020016000815260200160008152602001600073ffffffffffffffffffffffffffffffffffffffff168152602001600073ffffffffffffffffffffffffffffffffffffffff16815260200160006003811115611a4b577f4e487b7100000000000000000000000000000000000000000000000000000000600052602160045260246000fd5b8152602001600081525090565b5b80821115611b2457600080820160006101000a81549073ffffffffffffffffffffffffffffffffffffffff0219169055600182016000905560028201600090556003820160009055600482016000905560058201600090556006820160006101000a81549073ffffffffffffffffffffffffffffffffffffffff02191690556007820160006101000a81549073ffffffffffffffffffffffffffffffffffffffff02191690556007820160146101000a81549060ff0219169055600882016000905550600901611a59565b5090565b6000611b3b611b36846121b8565b612193565b905082815260208101848484011115611b5357600080fd5b611b5e84828561240b565b509392505050565b600081359050611b7581612694565b92915050565b600082601f830112611b8c57600080fd5b8135611b9c848260208601611b28565b91505092915050565b600081359050611bb4816126ab565b92915050565b600081359050611bc9816126c2565b92915050565b60008060008060808587031215611be557600080fd5b6000611bf387828801611b66565b9450506020611c0487828801611b66565b9350506040611c1587828801611bba565b925050606085013567ffffffffffffffff811115611c3257600080fd5b611c3e87828801611b7b565b91505092959194509250565b60008060408385031215611c5d57600080fd5b6000611c6b85828601611b66565b9250506020611c7c85828601611bba565b9150509250929050565b600080600080600060a08688031215611c9e57600080fd5b6000611cac88828901611ba5565b9550506020611cbd88828901611bba565b9450506040611cce88828901611bba565b9350506060611cdf88828901611bba565b9250506080611cf088828901611bba565b9150509295509295909350565b600060208284031215611d0f57600080fd5b6000611d1d84828501611bba565b91505092915050565b600080600060608486031215611d3b57600080fd5b6000611d4986828701611bba565b9350506020611d5a86828701611bba565b9250506040611d6b86828701611bba565b9150509250925092565b6000611d818383611f2c565b6101408301905092915050565b611d9781612348565b82525050565b611da681612348565b82525050565b6000611db7826121f9565b611dc18185612211565b9350611dcc836121e9565b8060005b83811015611dfd578151611de48882611d75565b9750611def83612204565b925050600181019050611dd0565b5085935050505092915050565b611e138161235a565b82525050565b611e22816123d5565b82525050565b611e31816123f9565b82525050565b6000611e44601d83612222565b9150611e4f82612561565b602082019050919050565b6000611e67601283612222565b9150611e728261258a565b602082019050919050565b6000611e8a601683612222565b9150611e95826125b3565b602082019050919050565b6000611ead601083612222565b9150611eb8826125dc565b602082019050919050565b6000611ed0601f83612222565b9150611edb82612605565b602082019050919050565b6000611ef3601f83612222565b9150611efe8261262e565b602082019050919050565b6000611f16601683612222565b9150611f2182612657565b602082019050919050565b61014082016000820151611f436000850182611e19565b506020820151611f566020850182611ff8565b506040820151611f696040850182611ff8565b506060820151611f7c6060850182611ff8565b506080820151611f8f6080850182611ff8565b5060a0820151611fa260a0850182611ff8565b5060c0820151611fb560c0850182611d8e565b5060e0820151611fc860e0850182611d8e565b50610100820151611fdd610100850182611e28565b50610120820151611ff2610120850182611ff8565b50505050565b612001816123cb565b82525050565b612010816123cb565b82525050565b600060608201905061202b6000830186611d9d565b6120386020830185611d9d565b6120456040830184612007565b949350505050565b600060408201905081810360008301526120678185611dac565b90506120766020830184612007565b9392505050565b60006020820190506120926000830184611e0a565b92915050565b600060208201905081810360008301526120b181611e37565b9050919050565b600060208201905081810360008301526120d181611e5a565b9050919050565b600060208201905081810360008301526120f181611e7d565b9050919050565b6000602082019050818103600083015261211181611ea0565b9050919050565b6000602082019050818103600083015261213181611ec3565b9050919050565b6000602082019050818103600083015261215181611ee6565b9050919050565b6000602082019050818103600083015261217181611f09565b9050919050565b600060208201905061218d6000830184612007565b92915050565b600061219d6121ae565b90506121a9828261241a565b919050565b6000604051905090565b600067ffffffffffffffff8211156121d3576121d2612521565b5b6121dc82612550565b9050602081019050919050565b6000819050602082019050919050565b600081519050919050565b6000602082019050919050565b600082825260208201905092915050565b600082825260208201905092915050565b600061223e826123cb565b9150612249836123cb565b9250827fffffffffffffffffffffffffffffffffffffffffffffffffffffffffffffffff0382111561227e5761227d612494565b5b828201905092915050565b6000612294826123cb565b915061229f836123cb565b9250826122af576122ae6124c3565b5b828204905092915050565b60006122c5826123cb565b91506122d0836123cb565b9250817fffffffffffffffffffffffffffffffffffffffffffffffffffffffffffffffff048311821515161561230957612308612494565b5b828202905092915050565b600061231f826123cb565b915061232a836123cb565b92508282101561233d5761233c612494565b5b828203905092915050565b6000612353826123ab565b9050919050565b60007fffffffff0000000000000000000000000000000000000000000000000000000082169050919050565b600061239182612348565b9050919050565b60008190506123a682612680565b919050565b600073ffffffffffffffffffffffffffffffffffffffff82169050919050565b6000819050919050565b60006123e0826123e7565b9050919050565b60006123f2826123ab565b9050919050565b600061240482612398565b9050919050565b82818337600083830152505050565b61242382612550565b810181811067ffffffffffffffff8211171561244257612441612521565b5b80604052505050565b6000612456826123cb565b91507fffffffffffffffffffffffffffffffffffffffffffffffffffffffffffffffff82141561248957612488612494565b5b600182019050919050565b7f4e487b7100000000000000000000000000000000000000000000000000000000600052601160045260246000fd5b7f4e487b7100000000000000000000000000000000000000000000000000000000600052601260045260246000fd5b7f4e487b7100000000000000000000000000000000000000000000000000000000600052602160045260246000fd5b7f4e487b7100000000000000000000000000000000000000000000000000000000600052604160045260246000fd5b6000601f19601f8301169050919050565b7f6e65656420746f2073656e642074686520726571756972656420776569000000600082015250565b7f6c656e64657220616c7265616479207365740000000000000000000000000000600082015250565b7f6f6e6c7920626f72726f7765722063616e2063616c6c00000000000000000000600082015250565b7f73686f756c642062652061637469766500000000000000000000000000000000600082015250565b7f6e65656420746f2073656e64206d696e207061796261636b20616d6f756e7400600082015250565b7f706179206261636b20646174652073686f756c6420626520696e207061737400600082015250565b7f796f75206d75737420626520746865206c656e64657200000000000000000000600082015250565b60048110612691576126906124f2565b5b50565b61269d81612348565b81146126a857600080fd5b50565b6126b481612386565b81146126bf57600080fd5b50565b6126cb816123cb565b81146126d657600080fd5b5056fea264697066735822122084c7cd6ac64bc665b4b282b61153decb293b2c7a16cd63b9ee81a0e629d3081e64736f6c63430008010033",
  "linkReferences": {},
  "deployedLinkReferences": {}
}