{
  "_format": "hh-sol-artifact-1",
  "contractName": "NFTPawnShop",
  "sourceName": "contracts/NFTPawnShop.sol",
  "abi": [
    {
      "inputs": [],
      "stateMutability": "nonpayable",
      "type": "constructor"
    },
    {
      "inputs": [
        {
          "internalType": "address",
          "name": "borrower",
          "type": "address"
        },
        {
          "internalType": "uint256",
          "name": "termIndex",
          "type": "uint256"
        }
      ],
      "name": "acceptTerms",
      "outputs": [],
      "stateMutability": "payable",
      "type": "function"
    },
    {
      "inputs": [
        {
          "internalType": "uint256",
          "name": "_amountInWei",
          "type": "uint256"
        },
        {
          "internalType": "uint256",
          "name": "_duration",
          "type": "uint256"
        },
        {
          "internalType": "uint256",
          "name": "_interestRate",
          "type": "uint256"
        },
        {
          "internalType": "uint256",
          "name": "_startTime",
          "type": "uint256"
        }
      ],
      "name": "calculatePayment",
      "outputs": [
        {
          "internalType": "uint256",
          "name": "amount",
          "type": "uint256"
        }
      ],
      "stateMutability": "view",
      "type": "function"
    },
    {
      "inputs": [
        {
          "internalType": "uint256",
          "name": "termIndex",
          "type": "uint256"
        }
      ],
      "name": "claimCollateral",
      "outputs": [],
      "stateMutability": "nonpayable",
      "type": "function"
    },
    {
      "inputs": [],
      "name": "getWaitingTerms",
      "outputs": [
        {
          "components": [
            {
              "internalType": "contract IERC721",
              "name": "nftAddress",
              "type": "address"
            },
            {
              "internalType": "uint256",
              "name": "nftTokenID",
              "type": "uint256"
            },
            {
              "internalType": "uint256",
              "name": "amountInWei",
              "type": "uint256"
            },
            {
              "internalType": "uint256",
              "name": "interestRate",
              "type": "uint256"
            },
            {
              "internalType": "uint256",
              "name": "startTime",
              "type": "uint256"
            },
            {
              "internalType": "uint256",
              "name": "duration",
              "type": "uint256"
            },
            {
              "internalType": "address",
              "name": "borrower",
              "type": "address"
            },
            {
              "internalType": "address",
              "name": "lender",
              "type": "address"
            },
            {
              "internalType": "enum NFTPawnShop.CollateralStatus",
              "name": "status",
              "type": "uint8"
            }
          ],
          "internalType": "struct NFTPawnShop.Terms[]",
          "name": "",
          "type": "tuple[]"
        },
        {
          "internalType": "uint256",
          "name": "",
          "type": "uint256"
        }
      ],
      "stateMutability": "view",
      "type": "function"
    },
    {
      "inputs": [
        {
          "internalType": "address",
          "name": "",
          "type": "address"
        },
        {
          "internalType": "address",
          "name": "",
          "type": "address"
        },
        {
          "internalType": "uint256",
          "name": "",
          "type": "uint256"
        },
        {
          "internalType": "bytes",
          "name": "",
          "type": "bytes"
        }
      ],
      "name": "onERC721Received",
      "outputs": [
        {
          "internalType": "bytes4",
          "name": "",
          "type": "bytes4"
        }
      ],
      "stateMutability": "nonpayable",
      "type": "function"
    },
    {
      "inputs": [
        {
          "internalType": "contract IERC721",
          "name": "_nftAddress",
          "type": "address"
        },
        {
          "internalType": "uint256",
          "name": "_nftTokenID",
          "type": "uint256"
        },
        {
          "internalType": "uint256",
          "name": "_amountInWei",
          "type": "uint256"
        },
        {
          "internalType": "uint256",
          "name": "_duration",
          "type": "uint256"
        },
        {
          "internalType": "uint256",
          "name": "_interestRate",
          "type": "uint256"
        }
      ],
      "name": "pawn",
      "outputs": [],
      "stateMutability": "nonpayable",
      "type": "function"
    },
    {
      "inputs": [
        {
          "internalType": "address",
          "name": "_borrower",
          "type": "address"
        },
        {
          "internalType": "uint256",
          "name": "termIndex",
          "type": "uint256"
        }
      ],
      "name": "paybackTerm",
      "outputs": [],
      "stateMutability": "payable",
      "type": "function"
    },
    {
      "inputs": [
        {
          "internalType": "uint256",
          "name": "delta",
          "type": "uint256"
        }
      ],
      "name": "refund",
      "outputs": [],
      "stateMutability": "nonpayable",
      "type": "function"
    },
    {
      "inputs": [
        {
          "internalType": "address",
          "name": "_borrower",
          "type": "address"
        },
        {
          "internalType": "uint256",
          "name": "termIndex",
          "type": "uint256"
        }
      ],
      "name": "undoTerm",
      "outputs": [],
      "stateMutability": "nonpayable",
      "type": "function"
    }
  ],
  "bytecode": "0x608060405234801561001057600080fd5b5061268a806100206000396000f3fe6080604052600436106100865760003560e01c80634e71f753116100595780634e71f753146101365780635593b11814610162578063977b344c1461019f578063c49785b4146101c8578063f0facce4146101f157610086565b8063150b7a021461008b5780632310b0ec146100c8578063278ecde1146100f157806336e44f0e1461011a575b600080fd5b34801561009757600080fd5b506100b260048036038101906100ad9190611b4b565b61020d565b6040516100bf9190611ff8565b60405180910390f35b3480156100d457600080fd5b506100ef60048036038101906100ea9190611bc6565b610221565b005b3480156100fd57600080fd5b5061011860048036038101906101139190611c79565b6104a2565b005b610134600480360381019061012f9190611bc6565b6104a5565b005b34801561014257600080fd5b5061014b61084a565b604051610159929190611fc8565b60405180910390f35b34801561016e57600080fd5b5061018960048036038101906101849190611ca2565b610c34565b60405161019691906120f3565b60405180910390f35b3480156101ab57600080fd5b506101c660048036038101906101c19190611c02565b610cd4565b005b3480156101d457600080fd5b506101ef60048036038101906101ea9190611c79565b611160565b005b61020b60048036038101906102069190611bc6565b611482565b005b600063150b7a0260e01b9050949350505050565b60008060008473ffffffffffffffffffffffffffffffffffffffff1673ffffffffffffffffffffffffffffffffffffffff1681526020019081526020016000208281548110610299577f4e487b7100000000000000000000000000000000000000000000000000000000600052603260045260246000fd5b9060005260206000209060080201905060008160070160009054906101000a900473ffffffffffffffffffffffffffffffffffffffff1690508373ffffffffffffffffffffffffffffffffffffffff163373ffffffffffffffffffffffffffffffffffffffff1614610340576040517f08c379a000000000000000000000000000000000000000000000000000000000815260040161033790612053565b60405180910390fd5b600073ffffffffffffffffffffffffffffffffffffffff168173ffffffffffffffffffffffffffffffffffffffff16146103af576040517f08c379a00000000000000000000000000000000000000000000000000000000081526004016103a690612033565b60405180910390fd5b60008260000160009054906101000a900473ffffffffffffffffffffffffffffffffffffffff1690506000836001015490508173ffffffffffffffffffffffffffffffffffffffff166342842e0e3088846040518463ffffffff1660e01b815260040161041e93929190611f91565b600060405180830381600087803b15801561043857600080fd5b505af115801561044c573d6000803e3d6000fd5b505050506000808773ffffffffffffffffffffffffffffffffffffffff1673ffffffffffffffffffffffffffffffffffffffff168152602001908152602001600020600061049a91906118f2565b505050505050565b50565b60008060008473ffffffffffffffffffffffffffffffffffffffff1673ffffffffffffffffffffffffffffffffffffffff168152602001908152602001600020828154811061051d577f4e487b7100000000000000000000000000000000000000000000000000000000600052603260045260246000fd5b9060005260206000209060080201604051806101200160405290816000820160009054906101000a900473ffffffffffffffffffffffffffffffffffffffff1673ffffffffffffffffffffffffffffffffffffffff1673ffffffffffffffffffffffffffffffffffffffff16815260200160018201548152602001600282015481526020016003820154815260200160048201548152602001600582015481526020016006820160009054906101000a900473ffffffffffffffffffffffffffffffffffffffff1673ffffffffffffffffffffffffffffffffffffffff1673ffffffffffffffffffffffffffffffffffffffff1681526020016007820160009054906101000a900473ffffffffffffffffffffffffffffffffffffffff1673ffffffffffffffffffffffffffffffffffffffff1673ffffffffffffffffffffffffffffffffffffffff1681526020016007820160149054906101000a900460ff1660038111156106b6577f4e487b7100000000000000000000000000000000000000000000000000000000600052602160045260246000fd5b60038111156106ee577f4e487b7100000000000000000000000000000000000000000000000000000000600052602160045260246000fd5b815250509050600061071282604001518360a0015184606001518560800151610c34565b905034811115610757576040517f08c379a000000000000000000000000000000000000000000000000000000000815260040161074e90612093565b60405180910390fd5b60008134610765919061228f565b9050600081111561077a57610779816104a2565b5b8260e0015173ffffffffffffffffffffffffffffffffffffffff166108fc349081150290604051600060405180830381858888f193505050501580156107c4573d6000803e3d6000fd5b5060028361010001906003811115610805577f4e487b7100000000000000000000000000000000000000000000000000000000600052602160045260246000fd5b9081600381111561083f577f4e487b7100000000000000000000000000000000000000000000000000000000600052602160045260246000fd5b815250505050505050565b606060008060028054905067ffffffffffffffff811115610894577f4e487b7100000000000000000000000000000000000000000000000000000000600052604160045260246000fd5b6040519080825280602002602001820160405280156108cd57816020015b6108ba611916565b8152602001906001900390816108b25790505b5090506000805b600280549050811015610c27576000600381111561091b577f4e487b7100000000000000000000000000000000000000000000000000000000600052602160045260246000fd5b60028281548110610955577f4e487b7100000000000000000000000000000000000000000000000000000000600052603260045260246000fd5b906000526020600020906008020160070160149054906101000a900460ff1660038111156109ac577f4e487b7100000000000000000000000000000000000000000000000000000000600052602160045260246000fd5b1415610c1457600281815481106109ec577f4e487b7100000000000000000000000000000000000000000000000000000000600052603260045260246000fd5b9060005260206000209060080201604051806101200160405290816000820160009054906101000a900473ffffffffffffffffffffffffffffffffffffffff1673ffffffffffffffffffffffffffffffffffffffff1673ffffffffffffffffffffffffffffffffffffffff16815260200160018201548152602001600282015481526020016003820154815260200160048201548152602001600582015481526020016006820160009054906101000a900473ffffffffffffffffffffffffffffffffffffffff1673ffffffffffffffffffffffffffffffffffffffff1673ffffffffffffffffffffffffffffffffffffffff1681526020016007820160009054906101000a900473ffffffffffffffffffffffffffffffffffffffff1673ffffffffffffffffffffffffffffffffffffffff1673ffffffffffffffffffffffffffffffffffffffff1681526020016007820160149054906101000a900460ff166003811115610b85577f4e487b7100000000000000000000000000000000000000000000000000000000600052602160045260246000fd5b6003811115610bbd577f4e487b7100000000000000000000000000000000000000000000000000000000600052602160045260246000fd5b81525050838381518110610bfa577f4e487b7100000000000000000000000000000000000000000000000000000000600052603260045260246000fd5b60200260200101819052508180610c10906123c6565b9250505b8080610c1f906123c6565b9150506108d4565b5081819350935050509091565b600080610c5d603c610c4f854261189a90919063ffffffff16565b6118b090919063ffffffff16565b90506000610c756001836118b090919063ffffffff16565b90506000610cb282610ca4612710610c968a8d6118c690919063ffffffff16565b6118b090919063ffffffff16565b6118c690919063ffffffff16565b9050610cc781896118dc90919063ffffffff16565b9350505050949350505050565b60006040518061012001604052808773ffffffffffffffffffffffffffffffffffffffff168152602001868152602001858152602001838152602001600081526020018481526020013373ffffffffffffffffffffffffffffffffffffffff168152602001600073ffffffffffffffffffffffffffffffffffffffff16815260200160006003811115610d90577f4e487b7100000000000000000000000000000000000000000000000000000000600052602160045260246000fd5b81525090508573ffffffffffffffffffffffffffffffffffffffff166342842e0e3330886040518463ffffffff1660e01b8152600401610dd293929190611f91565b600060405180830381600087803b158015610dec57600080fd5b505af1158015610e00573d6000803e3d6000fd5b505050506000803373ffffffffffffffffffffffffffffffffffffffff1673ffffffffffffffffffffffffffffffffffffffff16815260200190815260200160002081908060018154018082558091505060019003906000526020600020906008020160009091909190915060008201518160000160006101000a81548173ffffffffffffffffffffffffffffffffffffffff021916908373ffffffffffffffffffffffffffffffffffffffff1602179055506020820151816001015560408201518160020155606082015181600301556080820151816004015560a0820151816005015560c08201518160060160006101000a81548173ffffffffffffffffffffffffffffffffffffffff021916908373ffffffffffffffffffffffffffffffffffffffff16021790555060e08201518160070160006101000a81548173ffffffffffffffffffffffffffffffffffffffff021916908373ffffffffffffffffffffffffffffffffffffffff1602179055506101008201518160070160146101000a81548160ff02191690836003811115610fc5577f4e487b7100000000000000000000000000000000000000000000000000000000600052602160045260246000fd5b02179055505050600281908060018154018082558091505060019003906000526020600020906008020160009091909190915060008201518160000160006101000a81548173ffffffffffffffffffffffffffffffffffffffff021916908373ffffffffffffffffffffffffffffffffffffffff1602179055506020820151816001015560408201518160020155606082015181600301556080820151816004015560a0820151816005015560c08201518160060160006101000a81548173ffffffffffffffffffffffffffffffffffffffff021916908373ffffffffffffffffffffffffffffffffffffffff16021790555060e08201518160070160006101000a81548173ffffffffffffffffffffffffffffffffffffffff021916908373ffffffffffffffffffffffffffffffffffffffff1602179055506101008201518160070160146101000a81548160ff02191690836003811115611151577f4e487b7100000000000000000000000000000000000000000000000000000000600052602160045260246000fd5b02179055505050505050505050565b6000600160003373ffffffffffffffffffffffffffffffffffffffff1673ffffffffffffffffffffffffffffffffffffffff16815260200190815260200160002082815481106111d9577f4e487b7100000000000000000000000000000000000000000000000000000000600052603260045260246000fd5b906000526020600020906008020190503373ffffffffffffffffffffffffffffffffffffffff168160070160009054906101000a900473ffffffffffffffffffffffffffffffffffffffff1673ffffffffffffffffffffffffffffffffffffffff161461127b576040517f08c379a0000000000000000000000000000000000000000000000000000000008152600401611272906120d3565b60405180910390fd5b8060050154816004015461128f91906121ae565b42116112d0576040517f08c379a00000000000000000000000000000000000000000000000000000000081526004016112c7906120b3565b60405180910390fd5b6001600381111561130a577f4e487b7100000000000000000000000000000000000000000000000000000000600052602160045260246000fd5b8160070160149054906101000a900460ff166003811115611354577f4e487b7100000000000000000000000000000000000000000000000000000000600052602160045260246000fd5b14611394576040517f08c379a000000000000000000000000000000000000000000000000000000000815260040161138b90612073565b60405180910390fd5b8060000160009054906101000a900473ffffffffffffffffffffffffffffffffffffffff1673ffffffffffffffffffffffffffffffffffffffff166342842e0e303384600101546040518463ffffffff1660e01b81526004016113f993929190611f91565b600060405180830381600087803b15801561141357600080fd5b505af1158015611427573d6000803e3d6000fd5b5050505060038160070160146101000a81548160ff02191690836003811115611479577f4e487b7100000000000000000000000000000000000000000000000000000000600052602160045260246000fd5b02179055505050565b60008060008473ffffffffffffffffffffffffffffffffffffffff1673ffffffffffffffffffffffffffffffffffffffff16815260200190815260200160002082815481106114fa577f4e487b7100000000000000000000000000000000000000000000000000000000600052603260045260246000fd5b90600052602060002090600802019050600081600201549050348114611555576040517f08c379a000000000000000000000000000000000000000000000000000000000815260040161154c90612013565b60405180910390fd5b8160060160009054906101000a900473ffffffffffffffffffffffffffffffffffffffff1673ffffffffffffffffffffffffffffffffffffffff166108fc349081150290604051600060405180830381858888f193505050501580156115bf573d6000803e3d6000fd5b50338260070160006101000a81548173ffffffffffffffffffffffffffffffffffffffff021916908373ffffffffffffffffffffffffffffffffffffffff16021790555060018260070160146101000a81548160ff02191690836003811115611651577f4e487b7100000000000000000000000000000000000000000000000000000000600052602160045260246000fd5b0217905550428260040181905550600160003373ffffffffffffffffffffffffffffffffffffffff1673ffffffffffffffffffffffffffffffffffffffff1681526020019081526020016000208290806001815401808255809150506001900390600052602060002090600802016000909190919091506000820160009054906101000a900473ffffffffffffffffffffffffffffffffffffffff168160000160006101000a81548173ffffffffffffffffffffffffffffffffffffffff021916908373ffffffffffffffffffffffffffffffffffffffff16021790555060018201548160010155600282015481600201556003820154816003015560048201548160040155600582015481600501556006820160009054906101000a900473ffffffffffffffffffffffffffffffffffffffff168160060160006101000a81548173ffffffffffffffffffffffffffffffffffffffff021916908373ffffffffffffffffffffffffffffffffffffffff1602179055506007820160009054906101000a900473ffffffffffffffffffffffffffffffffffffffff168160070160006101000a81548173ffffffffffffffffffffffffffffffffffffffff021916908373ffffffffffffffffffffffffffffffffffffffff1602179055506007820160149054906101000a900460ff168160070160146101000a81548160ff0219169083600381111561188d577f4e487b7100000000000000000000000000000000000000000000000000000000600052602160045260246000fd5b0217905550505050505050565b600081836118a8919061228f565b905092915050565b600081836118be9190612204565b905092915050565b600081836118d49190612235565b905092915050565b600081836118ea91906121ae565b905092915050565b508054600082556008029060005260206000209081019061191391906119dc565b50565b604051806101200160405280600073ffffffffffffffffffffffffffffffffffffffff1681526020016000815260200160008152602001600081526020016000815260200160008152602001600073ffffffffffffffffffffffffffffffffffffffff168152602001600073ffffffffffffffffffffffffffffffffffffffff168152602001600060038111156119d6577f4e487b7100000000000000000000000000000000000000000000000000000000600052602160045260246000fd5b81525090565b5b80821115611aa057600080820160006101000a81549073ffffffffffffffffffffffffffffffffffffffff0219169055600182016000905560028201600090556003820160009055600482016000905560058201600090556006820160006101000a81549073ffffffffffffffffffffffffffffffffffffffff02191690556007820160006101000a81549073ffffffffffffffffffffffffffffffffffffffff02191690556007820160146101000a81549060ff0219169055506008016119dd565b5090565b6000611ab7611ab284612133565b61210e565b905082815260208101848484011115611acf57600080fd5b611ada848285612386565b509392505050565b600081359050611af18161260f565b92915050565b600082601f830112611b0857600080fd5b8135611b18848260208601611aa4565b91505092915050565b600081359050611b3081612626565b92915050565b600081359050611b458161263d565b92915050565b60008060008060808587031215611b6157600080fd5b6000611b6f87828801611ae2565b9450506020611b8087828801611ae2565b9350506040611b9187828801611b36565b925050606085013567ffffffffffffffff811115611bae57600080fd5b611bba87828801611af7565b91505092959194509250565b60008060408385031215611bd957600080fd5b6000611be785828601611ae2565b9250506020611bf885828601611b36565b9150509250929050565b600080600080600060a08688031215611c1a57600080fd5b6000611c2888828901611b21565b9550506020611c3988828901611b36565b9450506040611c4a88828901611b36565b9350506060611c5b88828901611b36565b9250506080611c6c88828901611b36565b9150509295509295909350565b600060208284031215611c8b57600080fd5b6000611c9984828501611b36565b91505092915050565b60008060008060808587031215611cb857600080fd5b6000611cc687828801611b36565b9450506020611cd787828801611b36565b9350506040611ce887828801611b36565b9250506060611cf987828801611b36565b91505092959194509250565b6000611d118383611ebc565b6101208301905092915050565b611d27816122c3565b82525050565b611d36816122c3565b82525050565b6000611d4782612174565b611d51818561218c565b9350611d5c83612164565b8060005b83811015611d8d578151611d748882611d05565b9750611d7f8361217f565b925050600181019050611d60565b5085935050505092915050565b611da3816122d5565b82525050565b611db281612350565b82525050565b611dc181612374565b82525050565b6000611dd4601d8361219d565b9150611ddf826124dc565b602082019050919050565b6000611df760128361219d565b9150611e0282612505565b602082019050919050565b6000611e1a60168361219d565b9150611e258261252e565b602082019050919050565b6000611e3d60108361219d565b9150611e4882612557565b602082019050919050565b6000611e60601f8361219d565b9150611e6b82612580565b602082019050919050565b6000611e83601f8361219d565b9150611e8e826125a9565b602082019050919050565b6000611ea660168361219d565b9150611eb1826125d2565b602082019050919050565b61012082016000820151611ed36000850182611da9565b506020820151611ee66020850182611f73565b506040820151611ef96040850182611f73565b506060820151611f0c6060850182611f73565b506080820151611f1f6080850182611f73565b5060a0820151611f3260a0850182611f73565b5060c0820151611f4560c0850182611d1e565b5060e0820151611f5860e0850182611d1e565b50610100820151611f6d610100850182611db8565b50505050565b611f7c81612346565b82525050565b611f8b81612346565b82525050565b6000606082019050611fa66000830186611d2d565b611fb36020830185611d2d565b611fc06040830184611f82565b949350505050565b60006040820190508181036000830152611fe28185611d3c565b9050611ff16020830184611f82565b9392505050565b600060208201905061200d6000830184611d9a565b92915050565b6000602082019050818103600083015261202c81611dc7565b9050919050565b6000602082019050818103600083015261204c81611dea565b9050919050565b6000602082019050818103600083015261206c81611e0d565b9050919050565b6000602082019050818103600083015261208c81611e30565b9050919050565b600060208201905081810360008301526120ac81611e53565b9050919050565b600060208201905081810360008301526120cc81611e76565b9050919050565b600060208201905081810360008301526120ec81611e99565b9050919050565b60006020820190506121086000830184611f82565b92915050565b6000612118612129565b90506121248282612395565b919050565b6000604051905090565b600067ffffffffffffffff82111561214e5761214d61249c565b5b612157826124cb565b9050602081019050919050565b6000819050602082019050919050565b600081519050919050565b6000602082019050919050565b600082825260208201905092915050565b600082825260208201905092915050565b60006121b982612346565b91506121c483612346565b9250827fffffffffffffffffffffffffffffffffffffffffffffffffffffffffffffffff038211156121f9576121f861240f565b5b828201905092915050565b600061220f82612346565b915061221a83612346565b92508261222a5761222961243e565b5b828204905092915050565b600061224082612346565b915061224b83612346565b9250817fffffffffffffffffffffffffffffffffffffffffffffffffffffffffffffffff04831182151516156122845761228361240f565b5b828202905092915050565b600061229a82612346565b91506122a583612346565b9250828210156122b8576122b761240f565b5b828203905092915050565b60006122ce82612326565b9050919050565b60007fffffffff0000000000000000000000000000000000000000000000000000000082169050919050565b600061230c826122c3565b9050919050565b6000819050612321826125fb565b919050565b600073ffffffffffffffffffffffffffffffffffffffff82169050919050565b6000819050919050565b600061235b82612362565b9050919050565b600061236d82612326565b9050919050565b600061237f82612313565b9050919050565b82818337600083830152505050565b61239e826124cb565b810181811067ffffffffffffffff821117156123bd576123bc61249c565b5b80604052505050565b60006123d182612346565b91507fffffffffffffffffffffffffffffffffffffffffffffffffffffffffffffffff8214156124045761240361240f565b5b600182019050919050565b7f4e487b7100000000000000000000000000000000000000000000000000000000600052601160045260246000fd5b7f4e487b7100000000000000000000000000000000000000000000000000000000600052601260045260246000fd5b7f4e487b7100000000000000000000000000000000000000000000000000000000600052602160045260246000fd5b7f4e487b7100000000000000000000000000000000000000000000000000000000600052604160045260246000fd5b6000601f19601f8301169050919050565b7f6e65656420746f2073656e642074686520726571756972656420776569000000600082015250565b7f6c656e64657220616c7265616479207365740000000000000000000000000000600082015250565b7f6f6e6c7920626f72726f7765722063616e2063616c6c00000000000000000000600082015250565b7f73686f756c642062652061637469766500000000000000000000000000000000600082015250565b7f6e65656420746f2073656e64206d696e207061796261636b20616d6f756e7400600082015250565b7f706179206261636b20646174652073686f756c6420626520696e207061737400600082015250565b7f796f75206d75737420626520746865206c656e64657200000000000000000000600082015250565b6004811061260c5761260b61246d565b5b50565b612618816122c3565b811461262357600080fd5b50565b61262f81612301565b811461263a57600080fd5b50565b61264681612346565b811461265157600080fd5b5056fea2646970667358221220e80a0a7415d595331240329594fb0ca06d3eb572e102442ac4e68c28cdb5c59164736f6c63430008010033",
  "linkReferences": {},
  "deployedLinkReferences": {}
}