{
  "_format": "hh-sol-artifact-1",
  "contractName": "NFTPawnShop",
  "sourceName": "contracts/NFTPawnShop.sol",
  "abi": [
    {
      "inputs": [],
      "stateMutability": "nonpayable",
      "type": "constructor"
    },
    {
      "inputs": [
        {
          "internalType": "address",
          "name": "borrower",
          "type": "address"
        },
        {
          "internalType": "uint256",
          "name": "termIndex",
          "type": "uint256"
        }
      ],
      "name": "acceptTerms",
      "outputs": [],
      "stateMutability": "payable",
      "type": "function"
    },
    {
      "inputs": [
        {
          "internalType": "uint256",
          "name": "_amountInWei",
          "type": "uint256"
        },
        {
          "internalType": "uint256",
          "name": "_interestRate",
          "type": "uint256"
        },
        {
          "internalType": "uint256",
          "name": "_startTime",
          "type": "uint256"
        }
      ],
      "name": "calculatePayment",
      "outputs": [
        {
          "internalType": "uint256",
          "name": "amount",
          "type": "uint256"
        }
      ],
      "stateMutability": "view",
      "type": "function"
    },
    {
      "inputs": [
        {
          "internalType": "uint256",
          "name": "termIndex",
          "type": "uint256"
        }
      ],
      "name": "claimCollateral",
      "outputs": [],
      "stateMutability": "nonpayable",
      "type": "function"
    },
    {
      "inputs": [
        {
          "internalType": "address",
          "name": "lender",
          "type": "address"
        }
      ],
      "name": "getLoans",
      "outputs": [
        {
          "components": [
            {
              "internalType": "contract IERC721",
              "name": "nftAddress",
              "type": "address"
            },
            {
              "internalType": "uint256",
              "name": "nftTokenID",
              "type": "uint256"
            },
            {
              "internalType": "uint256",
              "name": "amountInWei",
              "type": "uint256"
            },
            {
              "internalType": "uint256",
              "name": "interestRate",
              "type": "uint256"
            },
            {
              "internalType": "uint256",
              "name": "startTime",
              "type": "uint256"
            },
            {
              "internalType": "uint256",
              "name": "duration",
              "type": "uint256"
            },
            {
              "internalType": "address",
              "name": "borrower",
              "type": "address"
            },
            {
              "internalType": "address",
              "name": "lender",
              "type": "address"
            },
            {
              "internalType": "enum NFTPawnShop.CollateralStatus",
              "name": "status",
              "type": "uint8"
            },
            {
              "internalType": "uint256",
              "name": "borrowerIndex",
              "type": "uint256"
            },
            {
              "internalType": "uint256",
              "name": "lenderIndex",
              "type": "uint256"
            },
            {
              "internalType": "uint256",
              "name": "allTermsIndex",
              "type": "uint256"
            }
          ],
          "internalType": "struct NFTPawnShop.Terms[]",
          "name": "",
          "type": "tuple[]"
        }
      ],
      "stateMutability": "view",
      "type": "function"
    },
    {
      "inputs": [
        {
          "internalType": "address",
          "name": "borrower",
          "type": "address"
        }
      ],
      "name": "getPawnedTerms",
      "outputs": [
        {
          "components": [
            {
              "internalType": "contract IERC721",
              "name": "nftAddress",
              "type": "address"
            },
            {
              "internalType": "uint256",
              "name": "nftTokenID",
              "type": "uint256"
            },
            {
              "internalType": "uint256",
              "name": "amountInWei",
              "type": "uint256"
            },
            {
              "internalType": "uint256",
              "name": "interestRate",
              "type": "uint256"
            },
            {
              "internalType": "uint256",
              "name": "startTime",
              "type": "uint256"
            },
            {
              "internalType": "uint256",
              "name": "duration",
              "type": "uint256"
            },
            {
              "internalType": "address",
              "name": "borrower",
              "type": "address"
            },
            {
              "internalType": "address",
              "name": "lender",
              "type": "address"
            },
            {
              "internalType": "enum NFTPawnShop.CollateralStatus",
              "name": "status",
              "type": "uint8"
            },
            {
              "internalType": "uint256",
              "name": "borrowerIndex",
              "type": "uint256"
            },
            {
              "internalType": "uint256",
              "name": "lenderIndex",
              "type": "uint256"
            },
            {
              "internalType": "uint256",
              "name": "allTermsIndex",
              "type": "uint256"
            }
          ],
          "internalType": "struct NFTPawnShop.Terms[]",
          "name": "",
          "type": "tuple[]"
        }
      ],
      "stateMutability": "view",
      "type": "function"
    },
    {
      "inputs": [],
      "name": "getWaitingTerms",
      "outputs": [
        {
          "components": [
            {
              "internalType": "contract IERC721",
              "name": "nftAddress",
              "type": "address"
            },
            {
              "internalType": "uint256",
              "name": "nftTokenID",
              "type": "uint256"
            },
            {
              "internalType": "uint256",
              "name": "amountInWei",
              "type": "uint256"
            },
            {
              "internalType": "uint256",
              "name": "interestRate",
              "type": "uint256"
            },
            {
              "internalType": "uint256",
              "name": "startTime",
              "type": "uint256"
            },
            {
              "internalType": "uint256",
              "name": "duration",
              "type": "uint256"
            },
            {
              "internalType": "address",
              "name": "borrower",
              "type": "address"
            },
            {
              "internalType": "address",
              "name": "lender",
              "type": "address"
            },
            {
              "internalType": "enum NFTPawnShop.CollateralStatus",
              "name": "status",
              "type": "uint8"
            },
            {
              "internalType": "uint256",
              "name": "borrowerIndex",
              "type": "uint256"
            },
            {
              "internalType": "uint256",
              "name": "lenderIndex",
              "type": "uint256"
            },
            {
              "internalType": "uint256",
              "name": "allTermsIndex",
              "type": "uint256"
            }
          ],
          "internalType": "struct NFTPawnShop.Terms[]",
          "name": "",
          "type": "tuple[]"
        },
        {
          "internalType": "uint256",
          "name": "",
          "type": "uint256"
        }
      ],
      "stateMutability": "view",
      "type": "function"
    },
    {
      "inputs": [
        {
          "internalType": "address",
          "name": "",
          "type": "address"
        },
        {
          "internalType": "address",
          "name": "",
          "type": "address"
        },
        {
          "internalType": "uint256",
          "name": "",
          "type": "uint256"
        },
        {
          "internalType": "bytes",
          "name": "",
          "type": "bytes"
        }
      ],
      "name": "onERC721Received",
      "outputs": [
        {
          "internalType": "bytes4",
          "name": "",
          "type": "bytes4"
        }
      ],
      "stateMutability": "nonpayable",
      "type": "function"
    },
    {
      "inputs": [
        {
          "internalType": "contract IERC721",
          "name": "_nftAddress",
          "type": "address"
        },
        {
          "internalType": "uint256",
          "name": "_nftTokenID",
          "type": "uint256"
        },
        {
          "internalType": "uint256",
          "name": "_amountInWei",
          "type": "uint256"
        },
        {
          "internalType": "uint256",
          "name": "_duration",
          "type": "uint256"
        },
        {
          "internalType": "uint256",
          "name": "_interestRate",
          "type": "uint256"
        }
      ],
      "name": "pawn",
      "outputs": [],
      "stateMutability": "nonpayable",
      "type": "function"
    },
    {
      "inputs": [
        {
          "internalType": "address",
          "name": "_borrower",
          "type": "address"
        },
        {
          "internalType": "uint256",
          "name": "termIndex",
          "type": "uint256"
        }
      ],
      "name": "paybackTerm",
      "outputs": [],
      "stateMutability": "payable",
      "type": "function"
    },
    {
      "inputs": [
        {
          "internalType": "uint256",
          "name": "delta",
          "type": "uint256"
        }
      ],
      "name": "refund",
      "outputs": [],
      "stateMutability": "nonpayable",
      "type": "function"
    },
    {
      "inputs": [
        {
          "internalType": "address",
          "name": "_borrower",
          "type": "address"
        },
        {
          "internalType": "uint256",
          "name": "termIndex",
          "type": "uint256"
        }
      ],
      "name": "undoTerm",
      "outputs": [],
      "stateMutability": "nonpayable",
      "type": "function"
    }
  ],
  "bytecode": "0x608060405234801561001057600080fd5b50613f04806100206000396000f3fe60806040526004361061009c5760003560e01c806336e44f0e1161006457806336e44f0e146101aa5780634e71f753146101c6578063977b344c146101f2578063c49785b41461021b578063d988ef2014610244578063f0facce4146102815761009c565b80630c5cd78f146100a1578063150b7a02146100de5780632310b0ec1461011b578063278ecde1146101445780632f49b8681461016d575b600080fd5b3480156100ad57600080fd5b506100c860048036038101906100c3919061334f565b61029d565b6040516100d59190613820565b60405180910390f35b3480156100ea57600080fd5b5061010560048036038101906101009190613378565b610514565b6040516101129190613872565b60405180910390f35b34801561012757600080fd5b50610142600480360381019061013d91906133f3565b610528565b005b34801561015057600080fd5b5061016b600480360381019061016691906134a6565b6109ea565b005b34801561017957600080fd5b50610194600480360381019061018f91906134cf565b6109ed565b6040516101a1919061396d565b60405180910390f35b6101c460048036038101906101bf91906133f3565b610a36565b005b3480156101d257600080fd5b506101db6113e5565b6040516101e9929190613842565b60405180910390f35b3480156101fe57600080fd5b506102196004803603810190610214919061342f565b6118f3565b005b34801561022757600080fd5b50610242600480360381019061023d91906134a6565b611e1a565b005b34801561025057600080fd5b5061026b6004803603810190610266919061334f565b6128a5565b6040516102789190613820565b60405180910390f35b61029b600480360381019061029691906133f3565b612b1d565b005b60606000808373ffffffffffffffffffffffffffffffffffffffff1673ffffffffffffffffffffffffffffffffffffffff168152602001908152602001600020805480602002602001604051908101604052809291908181526020016000905b8282101561050957838290600052602060002090600b0201604051806101800160405290816000820160009054906101000a900473ffffffffffffffffffffffffffffffffffffffff1673ffffffffffffffffffffffffffffffffffffffff1673ffffffffffffffffffffffffffffffffffffffff16815260200160018201548152602001600282015481526020016003820154815260200160048201548152602001600582015481526020016006820160009054906101000a900473ffffffffffffffffffffffffffffffffffffffff1673ffffffffffffffffffffffffffffffffffffffff1673ffffffffffffffffffffffffffffffffffffffff1681526020016007820160009054906101000a900473ffffffffffffffffffffffffffffffffffffffff1673ffffffffffffffffffffffffffffffffffffffff1673ffffffffffffffffffffffffffffffffffffffff1681526020016007820160149054906101000a900460ff1660048111156104a0577f4e487b7100000000000000000000000000000000000000000000000000000000600052602160045260246000fd5b60048111156104d8577f4e487b7100000000000000000000000000000000000000000000000000000000600052602160045260246000fd5b81526020016008820154815260200160098201548152602001600a82015481525050815260200190600101906102fd565b505050509050919050565b600063150b7a0260e01b9050949350505050565b60008060008473ffffffffffffffffffffffffffffffffffffffff1673ffffffffffffffffffffffffffffffffffffffff16815260200190815260200160002082815481106105a0577f4e487b7100000000000000000000000000000000000000000000000000000000600052603260045260246000fd5b90600052602060002090600b0201905060008160070160009054906101000a900473ffffffffffffffffffffffffffffffffffffffff1690508373ffffffffffffffffffffffffffffffffffffffff163373ffffffffffffffffffffffffffffffffffffffff1614610647576040517f08c379a000000000000000000000000000000000000000000000000000000000815260040161063e906138cd565b60405180910390fd5b600073ffffffffffffffffffffffffffffffffffffffff168173ffffffffffffffffffffffffffffffffffffffff16146106b6576040517f08c379a00000000000000000000000000000000000000000000000000000000081526004016106ad906138ad565b60405180910390fd5b60008260000160009054906101000a900473ffffffffffffffffffffffffffffffffffffffff1690506000836001015490508173ffffffffffffffffffffffffffffffffffffffff166342842e0e3088846040518463ffffffff1660e01b8152600401610725939291906137e9565b600060405180830381600087803b15801561073f57600080fd5b505af1158015610753573d6000803e3d6000fd5b5050505060048460070160146101000a81548160ff021916908360048111156107a5577f4e487b7100000000000000000000000000000000000000000000000000000000600052602160045260246000fd5b021790555083600285600a0154815481106107e9577f4e487b7100000000000000000000000000000000000000000000000000000000600052603260045260246000fd5b90600052602060002090600b02016000820160009054906101000a900473ffffffffffffffffffffffffffffffffffffffff168160000160006101000a81548173ffffffffffffffffffffffffffffffffffffffff021916908373ffffffffffffffffffffffffffffffffffffffff16021790555060018201548160010155600282015481600201556003820154816003015560048201548160040155600582015481600501556006820160009054906101000a900473ffffffffffffffffffffffffffffffffffffffff168160060160006101000a81548173ffffffffffffffffffffffffffffffffffffffff021916908373ffffffffffffffffffffffffffffffffffffffff1602179055506007820160009054906101000a900473ffffffffffffffffffffffffffffffffffffffff168160070160006101000a81548173ffffffffffffffffffffffffffffffffffffffff021916908373ffffffffffffffffffffffffffffffffffffffff1602179055506007820160149054906101000a900460ff168160070160146101000a81548160ff021916908360048111156109bc577f4e487b7100000000000000000000000000000000000000000000000000000000600052602160045260246000fd5b02179055506008820154816008015560098201548160090155600a82015481600a0155905050505050505050565b50565b600080610a17612710610a09868861318b90919063ffffffff16565b6131a190919063ffffffff16565b9050610a2c81866131b790919063ffffffff16565b9150509392505050565b60008060008473ffffffffffffffffffffffffffffffffffffffff1673ffffffffffffffffffffffffffffffffffffffff1681526020019081526020016000208281548110610aae577f4e487b7100000000000000000000000000000000000000000000000000000000600052603260045260246000fd5b90600052602060002090600b0201604051806101800160405290816000820160009054906101000a900473ffffffffffffffffffffffffffffffffffffffff1673ffffffffffffffffffffffffffffffffffffffff1673ffffffffffffffffffffffffffffffffffffffff16815260200160018201548152602001600282015481526020016003820154815260200160048201548152602001600582015481526020016006820160009054906101000a900473ffffffffffffffffffffffffffffffffffffffff1673ffffffffffffffffffffffffffffffffffffffff1673ffffffffffffffffffffffffffffffffffffffff1681526020016007820160009054906101000a900473ffffffffffffffffffffffffffffffffffffffff1673ffffffffffffffffffffffffffffffffffffffff1673ffffffffffffffffffffffffffffffffffffffff1681526020016007820160149054906101000a900460ff166004811115610c47577f4e487b7100000000000000000000000000000000000000000000000000000000600052602160045260246000fd5b6004811115610c7f577f4e487b7100000000000000000000000000000000000000000000000000000000600052602160045260246000fd5b81526020016008820154815260200160098201548152602001600a8201548152505090506000610cbc8260400151836060015184608001516109ed565b905034811115610d01576040517f08c379a0000000000000000000000000000000000000000000000000000000008152600401610cf89061390d565b60405180910390fd5b60008134610d0f9190613b09565b90506000811115610d2457610d23816109ea565b5b8260e0015173ffffffffffffffffffffffffffffffffffffffff166108fc349081150290604051600060405180830381858888f19350505050158015610d6e573d6000803e3d6000fd5b5060028361010001906004811115610daf577f4e487b7100000000000000000000000000000000000000000000000000000000600052602160045260246000fd5b90816004811115610de9577f4e487b7100000000000000000000000000000000000000000000000000000000600052602160045260246000fd5b8152505082600284610160015181548110610e2d577f4e487b7100000000000000000000000000000000000000000000000000000000600052603260045260246000fd5b90600052602060002090600b020160008201518160000160006101000a81548173ffffffffffffffffffffffffffffffffffffffff021916908373ffffffffffffffffffffffffffffffffffffffff1602179055506020820151816001015560408201518160020155606082015181600301556080820151816004015560a0820151816005015560c08201518160060160006101000a81548173ffffffffffffffffffffffffffffffffffffffff021916908373ffffffffffffffffffffffffffffffffffffffff16021790555060e08201518160070160006101000a81548173ffffffffffffffffffffffffffffffffffffffff021916908373ffffffffffffffffffffffffffffffffffffffff1602179055506101008201518160070160146101000a81548160ff02191690836004811115610f94577f4e487b7100000000000000000000000000000000000000000000000000000000600052602160045260246000fd5b02179055506101208201518160080155610140820151816009015561016082015181600a0155905050826000808560c0015173ffffffffffffffffffffffffffffffffffffffff1673ffffffffffffffffffffffffffffffffffffffff1681526020019081526020016000208461012001518154811061103d577f4e487b7100000000000000000000000000000000000000000000000000000000600052603260045260246000fd5b90600052602060002090600b020160008201518160000160006101000a81548173ffffffffffffffffffffffffffffffffffffffff021916908373ffffffffffffffffffffffffffffffffffffffff1602179055506020820151816001015560408201518160020155606082015181600301556080820151816004015560a0820151816005015560c08201518160060160006101000a81548173ffffffffffffffffffffffffffffffffffffffff021916908373ffffffffffffffffffffffffffffffffffffffff16021790555060e08201518160070160006101000a81548173ffffffffffffffffffffffffffffffffffffffff021916908373ffffffffffffffffffffffffffffffffffffffff1602179055506101008201518160070160146101000a81548160ff021916908360048111156111a4577f4e487b7100000000000000000000000000000000000000000000000000000000600052602160045260246000fd5b02179055506101208201518160080155610140820151816009015561016082015181600a015590505082600160008560e0015173ffffffffffffffffffffffffffffffffffffffff1673ffffffffffffffffffffffffffffffffffffffff1681526020019081526020016000208461014001518154811061124e577f4e487b7100000000000000000000000000000000000000000000000000000000600052603260045260246000fd5b90600052602060002090600b020160008201518160000160006101000a81548173ffffffffffffffffffffffffffffffffffffffff021916908373ffffffffffffffffffffffffffffffffffffffff1602179055506020820151816001015560408201518160020155606082015181600301556080820151816004015560a0820151816005015560c08201518160060160006101000a81548173ffffffffffffffffffffffffffffffffffffffff021916908373ffffffffffffffffffffffffffffffffffffffff16021790555060e08201518160070160006101000a81548173ffffffffffffffffffffffffffffffffffffffff021916908373ffffffffffffffffffffffffffffffffffffffff1602179055506101008201518160070160146101000a81548160ff021916908360048111156113b5577f4e487b7100000000000000000000000000000000000000000000000000000000600052602160045260246000fd5b02179055506101208201518160080155610140820151816009015561016082015181600a01559050505050505050565b60606000806000905060005b6002805490508110156114f15760006004811115611438577f4e487b7100000000000000000000000000000000000000000000000000000000600052602160045260246000fd5b60028281548110611472577f4e487b7100000000000000000000000000000000000000000000000000000000600052603260045260246000fd5b90600052602060002090600b020160070160149054906101000a900460ff1660048111156114c9577f4e487b7100000000000000000000000000000000000000000000000000000000600052602160045260246000fd5b14156114de5781806114da90613c40565b9250505b80806114e990613c40565b9150506113f1565b5060008167ffffffffffffffff811115611534577f4e487b7100000000000000000000000000000000000000000000000000000000600052604160045260246000fd5b60405190808252806020026020018201604052801561156d57816020015b61155a6131cd565b8152602001906001900390816115525790505b5090506000805b6002805490508110156118e557600060048111156115bb577f4e487b7100000000000000000000000000000000000000000000000000000000600052602160045260246000fd5b600282815481106115f5577f4e487b7100000000000000000000000000000000000000000000000000000000600052603260045260246000fd5b90600052602060002090600b020160070160149054906101000a900460ff16600481111561164c577f4e487b7100000000000000000000000000000000000000000000000000000000600052602160045260246000fd5b14156118d2576002818154811061168c577f4e487b7100000000000000000000000000000000000000000000000000000000600052603260045260246000fd5b90600052602060002090600b0201604051806101800160405290816000820160009054906101000a900473ffffffffffffffffffffffffffffffffffffffff1673ffffffffffffffffffffffffffffffffffffffff1673ffffffffffffffffffffffffffffffffffffffff16815260200160018201548152602001600282015481526020016003820154815260200160048201548152602001600582015481526020016006820160009054906101000a900473ffffffffffffffffffffffffffffffffffffffff1673ffffffffffffffffffffffffffffffffffffffff1673ffffffffffffffffffffffffffffffffffffffff1681526020016007820160009054906101000a900473ffffffffffffffffffffffffffffffffffffffff1673ffffffffffffffffffffffffffffffffffffffff1673ffffffffffffffffffffffffffffffffffffffff1681526020016007820160149054906101000a900460ff166004811115611825577f4e487b7100000000000000000000000000000000000000000000000000000000600052602160045260246000fd5b600481111561185d577f4e487b7100000000000000000000000000000000000000000000000000000000600052602160045260246000fd5b81526020016008820154815260200160098201548152602001600a820154815250508383815181106118b8577f4e487b7100000000000000000000000000000000000000000000000000000000600052603260045260246000fd5b602002602001018190525081806118ce90613c40565b9250505b80806118dd90613c40565b915050611574565b508183945094505050509091565b60006040518061018001604052808773ffffffffffffffffffffffffffffffffffffffff168152602001868152602001858152602001838152602001600081526020018481526020013373ffffffffffffffffffffffffffffffffffffffff168152602001600073ffffffffffffffffffffffffffffffffffffffff168152602001600060048111156119af577f4e487b7100000000000000000000000000000000000000000000000000000000600052602160045260246000fd5b81526020016000803373ffffffffffffffffffffffffffffffffffffffff1673ffffffffffffffffffffffffffffffffffffffff1681526020019081526020016000208054905081526020016000815260200160028054905081525090508573ffffffffffffffffffffffffffffffffffffffff166342842e0e3330886040518463ffffffff1660e01b8152600401611a4a939291906137e9565b600060405180830381600087803b158015611a6457600080fd5b505af1158015611a78573d6000803e3d6000fd5b505050506000803373ffffffffffffffffffffffffffffffffffffffff1673ffffffffffffffffffffffffffffffffffffffff1681526020019081526020016000208190806001815401808255809150506001900390600052602060002090600b020160009091909190915060008201518160000160006101000a81548173ffffffffffffffffffffffffffffffffffffffff021916908373ffffffffffffffffffffffffffffffffffffffff1602179055506020820151816001015560408201518160020155606082015181600301556080820151816004015560a0820151816005015560c08201518160060160006101000a81548173ffffffffffffffffffffffffffffffffffffffff021916908373ffffffffffffffffffffffffffffffffffffffff16021790555060e08201518160070160006101000a81548173ffffffffffffffffffffffffffffffffffffffff021916908373ffffffffffffffffffffffffffffffffffffffff1602179055506101008201518160070160146101000a81548160ff02191690836004811115611c3d577f4e487b7100000000000000000000000000000000000000000000000000000000600052602160045260246000fd5b02179055506101208201518160080155610140820151816009015561016082015181600a0155505060028190806001815401808255809150506001900390600052602060002090600b020160009091909190915060008201518160000160006101000a81548173ffffffffffffffffffffffffffffffffffffffff021916908373ffffffffffffffffffffffffffffffffffffffff1602179055506020820151816001015560408201518160020155606082015181600301556080820151816004015560a0820151816005015560c08201518160060160006101000a81548173ffffffffffffffffffffffffffffffffffffffff021916908373ffffffffffffffffffffffffffffffffffffffff16021790555060e08201518160070160006101000a81548173ffffffffffffffffffffffffffffffffffffffff021916908373ffffffffffffffffffffffffffffffffffffffff1602179055506101008201518160070160146101000a81548160ff02191690836004811115611dea577f4e487b7100000000000000000000000000000000000000000000000000000000600052602160045260246000fd5b02179055506101208201518160080155610140820151816009015561016082015181600a01555050505050505050565b6000600160003373ffffffffffffffffffffffffffffffffffffffff1673ffffffffffffffffffffffffffffffffffffffff1681526020019081526020016000208281548110611e93577f4e487b7100000000000000000000000000000000000000000000000000000000600052603260045260246000fd5b90600052602060002090600b020190503373ffffffffffffffffffffffffffffffffffffffff168160070160009054906101000a900473ffffffffffffffffffffffffffffffffffffffff1673ffffffffffffffffffffffffffffffffffffffff1614611f35576040517f08c379a0000000000000000000000000000000000000000000000000000000008152600401611f2c9061394d565b60405180910390fd5b80600501548160040154611f499190613a28565b4211611f8a576040517f08c379a0000000000000000000000000000000000000000000000000000000008152600401611f819061392d565b60405180910390fd5b60016004811115611fc4577f4e487b7100000000000000000000000000000000000000000000000000000000600052602160045260246000fd5b8160070160149054906101000a900460ff16600481111561200e577f4e487b7100000000000000000000000000000000000000000000000000000000600052602160045260246000fd5b1461204e576040517f08c379a0000000000000000000000000000000000000000000000000000000008152600401612045906138ed565b60405180910390fd5b8060000160009054906101000a900473ffffffffffffffffffffffffffffffffffffffff1673ffffffffffffffffffffffffffffffffffffffff166342842e0e303384600101546040518463ffffffff1660e01b81526004016120b3939291906137e9565b600060405180830381600087803b1580156120cd57600080fd5b505af11580156120e1573d6000803e3d6000fd5b5050505060038160070160146101000a81548160ff02191690836004811115612133577f4e487b7100000000000000000000000000000000000000000000000000000000600052602160045260246000fd5b021790555080600282600a015481548110612177577f4e487b7100000000000000000000000000000000000000000000000000000000600052603260045260246000fd5b90600052602060002090600b02016000820160009054906101000a900473ffffffffffffffffffffffffffffffffffffffff168160000160006101000a81548173ffffffffffffffffffffffffffffffffffffffff021916908373ffffffffffffffffffffffffffffffffffffffff16021790555060018201548160010155600282015481600201556003820154816003015560048201548160040155600582015481600501556006820160009054906101000a900473ffffffffffffffffffffffffffffffffffffffff168160060160006101000a81548173ffffffffffffffffffffffffffffffffffffffff021916908373ffffffffffffffffffffffffffffffffffffffff1602179055506007820160009054906101000a900473ffffffffffffffffffffffffffffffffffffffff168160070160006101000a81548173ffffffffffffffffffffffffffffffffffffffff021916908373ffffffffffffffffffffffffffffffffffffffff1602179055506007820160149054906101000a900460ff168160070160146101000a81548160ff0219169083600481111561234a577f4e487b7100000000000000000000000000000000000000000000000000000000600052602160045260246000fd5b02179055506008820154816008015560098201548160090155600a82015481600a0155905050806000808360060160009054906101000a900473ffffffffffffffffffffffffffffffffffffffff1673ffffffffffffffffffffffffffffffffffffffff1673ffffffffffffffffffffffffffffffffffffffff16815260200190815260200160002082600801548154811061240f577f4e487b7100000000000000000000000000000000000000000000000000000000600052603260045260246000fd5b90600052602060002090600b02016000820160009054906101000a900473ffffffffffffffffffffffffffffffffffffffff168160000160006101000a81548173ffffffffffffffffffffffffffffffffffffffff021916908373ffffffffffffffffffffffffffffffffffffffff16021790555060018201548160010155600282015481600201556003820154816003015560048201548160040155600582015481600501556006820160009054906101000a900473ffffffffffffffffffffffffffffffffffffffff168160060160006101000a81548173ffffffffffffffffffffffffffffffffffffffff021916908373ffffffffffffffffffffffffffffffffffffffff1602179055506007820160009054906101000a900473ffffffffffffffffffffffffffffffffffffffff168160070160006101000a81548173ffffffffffffffffffffffffffffffffffffffff021916908373ffffffffffffffffffffffffffffffffffffffff1602179055506007820160149054906101000a900460ff168160070160146101000a81548160ff021916908360048111156125e2577f4e487b7100000000000000000000000000000000000000000000000000000000600052602160045260246000fd5b02179055506008820154816008015560098201548160090155600a82015481600a015590505080600160008360070160009054906101000a900473ffffffffffffffffffffffffffffffffffffffff1673ffffffffffffffffffffffffffffffffffffffff1673ffffffffffffffffffffffffffffffffffffffff1681526020019081526020016000208260090154815481106126a8577f4e487b7100000000000000000000000000000000000000000000000000000000600052603260045260246000fd5b90600052602060002090600b02016000820160009054906101000a900473ffffffffffffffffffffffffffffffffffffffff168160000160006101000a81548173ffffffffffffffffffffffffffffffffffffffff021916908373ffffffffffffffffffffffffffffffffffffffff16021790555060018201548160010155600282015481600201556003820154816003015560048201548160040155600582015481600501556006820160009054906101000a900473ffffffffffffffffffffffffffffffffffffffff168160060160006101000a81548173ffffffffffffffffffffffffffffffffffffffff021916908373ffffffffffffffffffffffffffffffffffffffff1602179055506007820160009054906101000a900473ffffffffffffffffffffffffffffffffffffffff168160070160006101000a81548173ffffffffffffffffffffffffffffffffffffffff021916908373ffffffffffffffffffffffffffffffffffffffff1602179055506007820160149054906101000a900460ff168160070160146101000a81548160ff0219169083600481111561287b577f4e487b7100000000000000000000000000000000000000000000000000000000600052602160045260246000fd5b02179055506008820154816008015560098201548160090155600a82015481600a01559050505050565b6060600160008373ffffffffffffffffffffffffffffffffffffffff1673ffffffffffffffffffffffffffffffffffffffff168152602001908152602001600020805480602002602001604051908101604052809291908181526020016000905b82821015612b1257838290600052602060002090600b0201604051806101800160405290816000820160009054906101000a900473ffffffffffffffffffffffffffffffffffffffff1673ffffffffffffffffffffffffffffffffffffffff1673ffffffffffffffffffffffffffffffffffffffff16815260200160018201548152602001600282015481526020016003820154815260200160048201548152602001600582015481526020016006820160009054906101000a900473ffffffffffffffffffffffffffffffffffffffff1673ffffffffffffffffffffffffffffffffffffffff1673ffffffffffffffffffffffffffffffffffffffff1681526020016007820160009054906101000a900473ffffffffffffffffffffffffffffffffffffffff1673ffffffffffffffffffffffffffffffffffffffff1673ffffffffffffffffffffffffffffffffffffffff1681526020016007820160149054906101000a900460ff166004811115612aa9577f4e487b7100000000000000000000000000000000000000000000000000000000600052602160045260246000fd5b6004811115612ae1577f4e487b7100000000000000000000000000000000000000000000000000000000600052602160045260246000fd5b81526020016008820154815260200160098201548152602001600a8201548152505081526020019060010190612906565b505050509050919050565b60008060008473ffffffffffffffffffffffffffffffffffffffff1673ffffffffffffffffffffffffffffffffffffffff1681526020019081526020016000208281548110612b95577f4e487b7100000000000000000000000000000000000000000000000000000000600052603260045260246000fd5b90600052602060002090600b02019050600081600201549050348114612bf0576040517f08c379a0000000000000000000000000000000000000000000000000000000008152600401612be79061388d565b60405180910390fd5b8160060160009054906101000a900473ffffffffffffffffffffffffffffffffffffffff1673ffffffffffffffffffffffffffffffffffffffff166108fc349081150290604051600060405180830381858888f19350505050158015612c5a573d6000803e3d6000fd5b50338260070160006101000a81548173ffffffffffffffffffffffffffffffffffffffff021916908373ffffffffffffffffffffffffffffffffffffffff16021790555060018260070160146101000a81548160ff02191690836004811115612cec577f4e487b7100000000000000000000000000000000000000000000000000000000600052602160045260246000fd5b0217905550428260040181905550600160003373ffffffffffffffffffffffffffffffffffffffff1673ffffffffffffffffffffffffffffffffffffffff1681526020019081526020016000208290806001815401808255809150506001900390600052602060002090600b02016000909190919091506000820160009054906101000a900473ffffffffffffffffffffffffffffffffffffffff168160000160006101000a81548173ffffffffffffffffffffffffffffffffffffffff021916908373ffffffffffffffffffffffffffffffffffffffff16021790555060018201548160010155600282015481600201556003820154816003015560048201548160040155600582015481600501556006820160009054906101000a900473ffffffffffffffffffffffffffffffffffffffff168160060160006101000a81548173ffffffffffffffffffffffffffffffffffffffff021916908373ffffffffffffffffffffffffffffffffffffffff1602179055506007820160009054906101000a900473ffffffffffffffffffffffffffffffffffffffff168160070160006101000a81548173ffffffffffffffffffffffffffffffffffffffff021916908373ffffffffffffffffffffffffffffffffffffffff1602179055506007820160149054906101000a900460ff168160070160146101000a81548160ff02191690836004811115612f28577f4e487b7100000000000000000000000000000000000000000000000000000000600052602160045260246000fd5b02179055506008820154816008015560098201548160090155600a82015481600a0155505081600283600a015481548110612f8c577f4e487b7100000000000000000000000000000000000000000000000000000000600052603260045260246000fd5b90600052602060002090600b02016000820160009054906101000a900473ffffffffffffffffffffffffffffffffffffffff168160000160006101000a81548173ffffffffffffffffffffffffffffffffffffffff021916908373ffffffffffffffffffffffffffffffffffffffff16021790555060018201548160010155600282015481600201556003820154816003015560048201548160040155600582015481600501556006820160009054906101000a900473ffffffffffffffffffffffffffffffffffffffff168160060160006101000a81548173ffffffffffffffffffffffffffffffffffffffff021916908373ffffffffffffffffffffffffffffffffffffffff1602179055506007820160009054906101000a900473ffffffffffffffffffffffffffffffffffffffff168160070160006101000a81548173ffffffffffffffffffffffffffffffffffffffff021916908373ffffffffffffffffffffffffffffffffffffffff1602179055506007820160149054906101000a900460ff168160070160146101000a81548160ff0219169083600481111561315f577f4e487b7100000000000000000000000000000000000000000000000000000000600052602160045260246000fd5b02179055506008820154816008015560098201548160090155600a82015481600a015590505050505050565b600081836131999190613aaf565b905092915050565b600081836131af9190613a7e565b905092915050565b600081836131c59190613a28565b905092915050565b604051806101800160405280600073ffffffffffffffffffffffffffffffffffffffff1681526020016000815260200160008152602001600081526020016000815260200160008152602001600073ffffffffffffffffffffffffffffffffffffffff168152602001600073ffffffffffffffffffffffffffffffffffffffff1681526020016000600481111561328d577f4e487b7100000000000000000000000000000000000000000000000000000000600052602160045260246000fd5b81526020016000815260200160008152602001600081525090565b60006132bb6132b6846139ad565b613988565b9050828152602081018484840111156132d357600080fd5b6132de848285613c00565b509392505050565b6000813590506132f581613e89565b92915050565b600082601f83011261330c57600080fd5b813561331c8482602086016132a8565b91505092915050565b60008135905061333481613ea0565b92915050565b60008135905061334981613eb7565b92915050565b60006020828403121561336157600080fd5b600061336f848285016132e6565b91505092915050565b6000806000806080858703121561338e57600080fd5b600061339c878288016132e6565b94505060206133ad878288016132e6565b93505060406133be8782880161333a565b925050606085013567ffffffffffffffff8111156133db57600080fd5b6133e7878288016132fb565b91505092959194509250565b6000806040838503121561340657600080fd5b6000613414858286016132e6565b92505060206134258582860161333a565b9150509250929050565b600080600080600060a0868803121561344757600080fd5b600061345588828901613325565b95505060206134668882890161333a565b94505060406134778882890161333a565b93505060606134888882890161333a565b92505060806134998882890161333a565b9150509295509295909350565b6000602082840312156134b857600080fd5b60006134c68482850161333a565b91505092915050565b6000806000606084860312156134e457600080fd5b60006134f28682870161333a565b93505060206135038682870161333a565b92505060406135148682870161333a565b9150509250925092565b600061352a83836136d5565b6101808301905092915050565b61354081613b3d565b82525050565b61354f81613b3d565b82525050565b6000613560826139ee565b61356a8185613a06565b9350613575836139de565b8060005b838110156135a657815161358d888261351e565b9750613598836139f9565b925050600181019050613579565b5085935050505092915050565b6135bc81613b4f565b82525050565b6135cb81613bca565b82525050565b6135da81613bee565b82525050565b60006135ed601d83613a17565b91506135f882613d56565b602082019050919050565b6000613610601283613a17565b915061361b82613d7f565b602082019050919050565b6000613633601683613a17565b915061363e82613da8565b602082019050919050565b6000613656601083613a17565b915061366182613dd1565b602082019050919050565b6000613679601f83613a17565b915061368482613dfa565b602082019050919050565b600061369c601f83613a17565b91506136a782613e23565b602082019050919050565b60006136bf601683613a17565b91506136ca82613e4c565b602082019050919050565b610180820160008201516136ec60008501826135c2565b5060208201516136ff60208501826137cb565b50604082015161371260408501826137cb565b50606082015161372560608501826137cb565b50608082015161373860808501826137cb565b5060a082015161374b60a08501826137cb565b5060c082015161375e60c0850182613537565b5060e082015161377160e0850182613537565b506101008201516137866101008501826135d1565b5061012082015161379b6101208501826137cb565b506101408201516137b06101408501826137cb565b506101608201516137c56101608501826137cb565b50505050565b6137d481613bc0565b82525050565b6137e381613bc0565b82525050565b60006060820190506137fe6000830186613546565b61380b6020830185613546565b61381860408301846137da565b949350505050565b6000602082019050818103600083015261383a8184613555565b905092915050565b6000604082019050818103600083015261385c8185613555565b905061386b60208301846137da565b9392505050565b600060208201905061388760008301846135b3565b92915050565b600060208201905081810360008301526138a6816135e0565b9050919050565b600060208201905081810360008301526138c681613603565b9050919050565b600060208201905081810360008301526138e681613626565b9050919050565b6000602082019050818103600083015261390681613649565b9050919050565b600060208201905081810360008301526139268161366c565b9050919050565b600060208201905081810360008301526139468161368f565b9050919050565b60006020820190508181036000830152613966816136b2565b9050919050565b600060208201905061398260008301846137da565b92915050565b60006139926139a3565b905061399e8282613c0f565b919050565b6000604051905090565b600067ffffffffffffffff8211156139c8576139c7613d16565b5b6139d182613d45565b9050602081019050919050565b6000819050602082019050919050565b600081519050919050565b6000602082019050919050565b600082825260208201905092915050565b600082825260208201905092915050565b6000613a3382613bc0565b9150613a3e83613bc0565b9250827fffffffffffffffffffffffffffffffffffffffffffffffffffffffffffffffff03821115613a7357613a72613c89565b5b828201905092915050565b6000613a8982613bc0565b9150613a9483613bc0565b925082613aa457613aa3613cb8565b5b828204905092915050565b6000613aba82613bc0565b9150613ac583613bc0565b9250817fffffffffffffffffffffffffffffffffffffffffffffffffffffffffffffffff0483118215151615613afe57613afd613c89565b5b828202905092915050565b6000613b1482613bc0565b9150613b1f83613bc0565b925082821015613b3257613b31613c89565b5b828203905092915050565b6000613b4882613ba0565b9050919050565b60007fffffffff0000000000000000000000000000000000000000000000000000000082169050919050565b6000613b8682613b3d565b9050919050565b6000819050613b9b82613e75565b919050565b600073ffffffffffffffffffffffffffffffffffffffff82169050919050565b6000819050919050565b6000613bd582613bdc565b9050919050565b6000613be782613ba0565b9050919050565b6000613bf982613b8d565b9050919050565b82818337600083830152505050565b613c1882613d45565b810181811067ffffffffffffffff82111715613c3757613c36613d16565b5b80604052505050565b6000613c4b82613bc0565b91507fffffffffffffffffffffffffffffffffffffffffffffffffffffffffffffffff821415613c7e57613c7d613c89565b5b600182019050919050565b7f4e487b7100000000000000000000000000000000000000000000000000000000600052601160045260246000fd5b7f4e487b7100000000000000000000000000000000000000000000000000000000600052601260045260246000fd5b7f4e487b7100000000000000000000000000000000000000000000000000000000600052602160045260246000fd5b7f4e487b7100000000000000000000000000000000000000000000000000000000600052604160045260246000fd5b6000601f19601f8301169050919050565b7f6e65656420746f2073656e642074686520726571756972656420776569000000600082015250565b7f6c656e64657220616c7265616479207365740000000000000000000000000000600082015250565b7f6f6e6c7920626f72726f7765722063616e2063616c6c00000000000000000000600082015250565b7f73686f756c642062652061637469766500000000000000000000000000000000600082015250565b7f6e65656420746f2073656e64206d696e207061796261636b20616d6f756e7400600082015250565b7f706179206261636b20646174652073686f756c6420626520696e207061737400600082015250565b7f796f75206d75737420626520746865206c656e64657200000000000000000000600082015250565b60058110613e8657613e85613ce7565b5b50565b613e9281613b3d565b8114613e9d57600080fd5b50565b613ea981613b7b565b8114613eb457600080fd5b50565b613ec081613bc0565b8114613ecb57600080fd5b5056fea264697066735822122048373f23d72f713e20e1089e6e301e9ea0db4b9338db5062f3385d7608e0790364736f6c63430008010033",
  "linkReferences": {},
  "deployedLinkReferences": {}
}