{
  "_format": "hh-sol-artifact-1",
  "contractName": "NFTPawnShop",
  "sourceName": "contracts/NFTPawnShop.sol",
  "abi": [
    {
      "inputs": [],
      "stateMutability": "nonpayable",
      "type": "constructor"
    },
    {
      "inputs": [
        {
          "internalType": "address",
          "name": "borrower",
          "type": "address"
        },
        {
          "internalType": "uint256",
          "name": "termIndex",
          "type": "uint256"
        }
      ],
      "name": "acceptTerms",
      "outputs": [],
      "stateMutability": "payable",
      "type": "function"
    },
    {
      "inputs": [
        {
          "internalType": "address",
          "name": "",
          "type": "address"
        },
        {
          "internalType": "address",
          "name": "",
          "type": "address"
        },
        {
          "internalType": "uint256",
          "name": "",
          "type": "uint256"
        },
        {
          "internalType": "bytes",
          "name": "",
          "type": "bytes"
        }
      ],
      "name": "onERC721Received",
      "outputs": [
        {
          "internalType": "bytes4",
          "name": "",
          "type": "bytes4"
        }
      ],
      "stateMutability": "nonpayable",
      "type": "function"
    },
    {
      "inputs": [
        {
          "internalType": "contract IERC721",
          "name": "_nftAddress",
          "type": "address"
        },
        {
          "internalType": "uint256",
          "name": "_nftTokenID",
          "type": "uint256"
        },
        {
          "internalType": "uint256",
          "name": "_amountInWei",
          "type": "uint256"
        },
        {
          "internalType": "uint256",
          "name": "_duration",
          "type": "uint256"
        },
        {
          "internalType": "uint256",
          "name": "_interestRate",
          "type": "uint256"
        }
      ],
      "name": "pawn",
      "outputs": [],
      "stateMutability": "nonpayable",
      "type": "function"
    }
  ],
  "bytecode": "0x608060405234801561001057600080fd5b50610ddf806100206000396000f3fe6080604052600436106100345760003560e01c8063150b7a0214610039578063977b344c14610076578063f0facce41461009f575b600080fd5b34801561004557600080fd5b50610060600480360381019061005b91906109ea565b6100bb565b60405161006d9190610b9f565b60405180910390f35b34801561008257600080fd5b5061009d60048036038101906100989190610aa1565b6100cf565b005b6100b960048036038101906100b49190610a65565b6103cf565b005b600063150b7a0260e01b9050949350505050565b60006040518061012001604052808773ffffffffffffffffffffffffffffffffffffffff168152602001868152602001858152602001838152602001600081526020018481526020013373ffffffffffffffffffffffffffffffffffffffff168152602001600073ffffffffffffffffffffffffffffffffffffffff1681526020016000600381111561018b577f4e487b7100000000000000000000000000000000000000000000000000000000600052602160045260246000fd5b81525090508573ffffffffffffffffffffffffffffffffffffffff166342842e0e3330886040518463ffffffff1660e01b81526004016101cd93929190610b68565b600060405180830381600087803b1580156101e757600080fd5b505af11580156101fb573d6000803e3d6000fd5b505050506000803373ffffffffffffffffffffffffffffffffffffffff1673ffffffffffffffffffffffffffffffffffffffff16815260200190815260200160002081908060018154018082558091505060019003906000526020600020906008020160009091909190915060008201518160000160006101000a81548173ffffffffffffffffffffffffffffffffffffffff021916908373ffffffffffffffffffffffffffffffffffffffff1602179055506020820151816001015560408201518160020155606082015181600301556080820151816004015560a0820151816005015560c08201518160060160006101000a81548173ffffffffffffffffffffffffffffffffffffffff021916908373ffffffffffffffffffffffffffffffffffffffff16021790555060e08201518160070160006101000a81548173ffffffffffffffffffffffffffffffffffffffff021916908373ffffffffffffffffffffffffffffffffffffffff1602179055506101008201518160070160146101000a81548160ff021916908360038111156103c0577f4e487b7100000000000000000000000000000000000000000000000000000000600052602160045260246000fd5b02179055505050505050505050565b60008060008473ffffffffffffffffffffffffffffffffffffffff1673ffffffffffffffffffffffffffffffffffffffff1681526020019081526020016000208281548110610447577f4e487b7100000000000000000000000000000000000000000000000000000000600052603260045260246000fd5b9060005260206000209060080201604051806101200160405290816000820160009054906101000a900473ffffffffffffffffffffffffffffffffffffffff1673ffffffffffffffffffffffffffffffffffffffff1673ffffffffffffffffffffffffffffffffffffffff16815260200160018201548152602001600282015481526020016003820154815260200160048201548152602001600582015481526020016006820160009054906101000a900473ffffffffffffffffffffffffffffffffffffffff1673ffffffffffffffffffffffffffffffffffffffff1673ffffffffffffffffffffffffffffffffffffffff1681526020016007820160009054906101000a900473ffffffffffffffffffffffffffffffffffffffff1673ffffffffffffffffffffffffffffffffffffffff1673ffffffffffffffffffffffffffffffffffffffff1681526020016007820160149054906101000a900460ff1660038111156105e0577f4e487b7100000000000000000000000000000000000000000000000000000000600052602160045260246000fd5b6003811115610618577f4e487b7100000000000000000000000000000000000000000000000000000000600052602160045260246000fd5b815250509050600081604001519050348114610669576040517f08c379a000000000000000000000000000000000000000000000000000000000815260040161066090610bba565b60405180910390fd5b8160c0015173ffffffffffffffffffffffffffffffffffffffff166108fc349081150290604051600060405180830381858888f193505050501580156106b3573d6000803e3d6000fd5b50338260e0019073ffffffffffffffffffffffffffffffffffffffff16908173ffffffffffffffffffffffffffffffffffffffff16815250506001826101000190600381111561072c577f4e487b7100000000000000000000000000000000000000000000000000000000600052602160045260246000fd5b90816003811115610766577f4e487b7100000000000000000000000000000000000000000000000000000000600052602160045260246000fd5b8152505042826080018181525050600160003373ffffffffffffffffffffffffffffffffffffffff1673ffffffffffffffffffffffffffffffffffffffff16815260200190815260200160002082908060018154018082558091505060019003906000526020600020906008020160009091909190915060008201518160000160006101000a81548173ffffffffffffffffffffffffffffffffffffffff021916908373ffffffffffffffffffffffffffffffffffffffff1602179055506020820151816001015560408201518160020155606082015181600301556080820151816004015560a0820151816005015560c08201518160060160006101000a81548173ffffffffffffffffffffffffffffffffffffffff021916908373ffffffffffffffffffffffffffffffffffffffff16021790555060e08201518160070160006101000a81548173ffffffffffffffffffffffffffffffffffffffff021916908373ffffffffffffffffffffffffffffffffffffffff1602179055506101008201518160070160146101000a81548160ff02191690836003811115610936577f4e487b7100000000000000000000000000000000000000000000000000000000600052602160045260246000fd5b0217905550505050505050565b600061095661095184610bff565b610bda565b90508281526020810184848401111561096e57600080fd5b610979848285610cbb565b509392505050565b60008135905061099081610d64565b92915050565b600082601f8301126109a757600080fd5b81356109b7848260208601610943565b91505092915050565b6000813590506109cf81610d7b565b92915050565b6000813590506109e481610d92565b92915050565b60008060008060808587031215610a0057600080fd5b6000610a0e87828801610981565b9450506020610a1f87828801610981565b9350506040610a30878288016109d5565b925050606085013567ffffffffffffffff811115610a4d57600080fd5b610a5987828801610996565b91505092959194509250565b60008060408385031215610a7857600080fd5b6000610a8685828601610981565b9250506020610a97858286016109d5565b9150509250929050565b600080600080600060a08688031215610ab957600080fd5b6000610ac7888289016109c0565b9550506020610ad8888289016109d5565b9450506040610ae9888289016109d5565b9350506060610afa888289016109d5565b9250506080610b0b888289016109d5565b9150509295509295909350565b610b2181610c41565b82525050565b610b3081610c53565b82525050565b6000610b43601d83610c30565b9150610b4e82610d3b565b602082019050919050565b610b6281610cb1565b82525050565b6000606082019050610b7d6000830186610b18565b610b8a6020830185610b18565b610b976040830184610b59565b949350505050565b6000602082019050610bb46000830184610b27565b92915050565b60006020820190508181036000830152610bd381610b36565b9050919050565b6000610be4610bf5565b9050610bf08282610cca565b919050565b6000604051905090565b600067ffffffffffffffff821115610c1a57610c19610cfb565b5b610c2382610d2a565b9050602081019050919050565b600082825260208201905092915050565b6000610c4c82610c91565b9050919050565b60007fffffffff0000000000000000000000000000000000000000000000000000000082169050919050565b6000610c8a82610c41565b9050919050565b600073ffffffffffffffffffffffffffffffffffffffff82169050919050565b6000819050919050565b82818337600083830152505050565b610cd382610d2a565b810181811067ffffffffffffffff82111715610cf257610cf1610cfb565b5b80604052505050565b7f4e487b7100000000000000000000000000000000000000000000000000000000600052604160045260246000fd5b6000601f19601f8301169050919050565b7f6e65656420746f2073656e642074686520726571756972656420776569000000600082015250565b610d6d81610c41565b8114610d7857600080fd5b50565b610d8481610c7f565b8114610d8f57600080fd5b50565b610d9b81610cb1565b8114610da657600080fd5b5056fea2646970667358221220102cc246d8188feff97420d5e056a54fec747bf87fb2d99fbf99fb70b660888264736f6c63430008010033",
  "linkReferences": {},
  "deployedLinkReferences": {}
}