{
  "_format": "hh-sol-artifact-1",
  "contractName": "NFTPawnShop",
  "sourceName": "contracts/NFTPawnShop.sol",
  "abi": [
    {
      "inputs": [],
      "stateMutability": "nonpayable",
      "type": "constructor"
    },
    {
      "inputs": [
        {
          "internalType": "address",
          "name": "borrower",
          "type": "address"
        },
        {
          "internalType": "uint256",
          "name": "termIndex",
          "type": "uint256"
        }
      ],
      "name": "acceptTerms",
      "outputs": [],
      "stateMutability": "payable",
      "type": "function"
    },
    {
      "inputs": [
        {
          "internalType": "uint256",
          "name": "termIndex",
          "type": "uint256"
        }
      ],
      "name": "claimCollateral",
      "outputs": [],
      "stateMutability": "nonpayable",
      "type": "function"
    },
    {
      "inputs": [
        {
          "internalType": "address",
          "name": "",
          "type": "address"
        },
        {
          "internalType": "address",
          "name": "",
          "type": "address"
        },
        {
          "internalType": "uint256",
          "name": "",
          "type": "uint256"
        },
        {
          "internalType": "bytes",
          "name": "",
          "type": "bytes"
        }
      ],
      "name": "onERC721Received",
      "outputs": [
        {
          "internalType": "bytes4",
          "name": "",
          "type": "bytes4"
        }
      ],
      "stateMutability": "nonpayable",
      "type": "function"
    },
    {
      "inputs": [
        {
          "internalType": "contract IERC721",
          "name": "_nftAddress",
          "type": "address"
        },
        {
          "internalType": "uint256",
          "name": "_nftTokenID",
          "type": "uint256"
        },
        {
          "internalType": "uint256",
          "name": "_amountInWei",
          "type": "uint256"
        },
        {
          "internalType": "uint256",
          "name": "_duration",
          "type": "uint256"
        },
        {
          "internalType": "uint256",
          "name": "_interestRate",
          "type": "uint256"
        }
      ],
      "name": "pawn",
      "outputs": [],
      "stateMutability": "nonpayable",
      "type": "function"
    }
  ],
  "bytecode": "0x608060405234801561001057600080fd5b506111cb806100206000396000f3fe60806040526004361061003f5760003560e01c8063150b7a0214610044578063977b344c14610081578063c49785b4146100aa578063f0facce4146100d3575b600080fd5b34801561005057600080fd5b5061006b60048036038101906100669190610be4565b6100ef565b6040516100789190610e2b565b60405180910390f35b34801561008d57600080fd5b506100a860048036038101906100a39190610c9b565b610103565b005b3480156100b657600080fd5b506100d160048036038101906100cc9190610d12565b610403565b005b6100ed60048036038101906100e89190610c5f565b610725565b005b600063150b7a0260e01b9050949350505050565b60006040518061012001604052808773ffffffffffffffffffffffffffffffffffffffff168152602001868152602001858152602001838152602001600081526020018481526020013373ffffffffffffffffffffffffffffffffffffffff168152602001600073ffffffffffffffffffffffffffffffffffffffff168152602001600060038111156101bf577f4e487b7100000000000000000000000000000000000000000000000000000000600052602160045260246000fd5b81525090508573ffffffffffffffffffffffffffffffffffffffff166342842e0e3330886040518463ffffffff1660e01b815260040161020193929190610df4565b600060405180830381600087803b15801561021b57600080fd5b505af115801561022f573d6000803e3d6000fd5b505050506000803373ffffffffffffffffffffffffffffffffffffffff1673ffffffffffffffffffffffffffffffffffffffff16815260200190815260200160002081908060018154018082558091505060019003906000526020600020906008020160009091909190915060008201518160000160006101000a81548173ffffffffffffffffffffffffffffffffffffffff021916908373ffffffffffffffffffffffffffffffffffffffff1602179055506020820151816001015560408201518160020155606082015181600301556080820151816004015560a0820151816005015560c08201518160060160006101000a81548173ffffffffffffffffffffffffffffffffffffffff021916908373ffffffffffffffffffffffffffffffffffffffff16021790555060e08201518160070160006101000a81548173ffffffffffffffffffffffffffffffffffffffff021916908373ffffffffffffffffffffffffffffffffffffffff1602179055506101008201518160070160146101000a81548160ff021916908360038111156103f4577f4e487b7100000000000000000000000000000000000000000000000000000000600052602160045260246000fd5b02179055505050505050505050565b6000600160003373ffffffffffffffffffffffffffffffffffffffff1673ffffffffffffffffffffffffffffffffffffffff168152602001908152602001600020828154811061047c577f4e487b7100000000000000000000000000000000000000000000000000000000600052603260045260246000fd5b906000526020600020906008020190503373ffffffffffffffffffffffffffffffffffffffff168160070160009054906101000a900473ffffffffffffffffffffffffffffffffffffffff1673ffffffffffffffffffffffffffffffffffffffff161461051e576040517f08c379a000000000000000000000000000000000000000000000000000000000815260040161051590610ea6565b60405180910390fd5b806005015481600401546105329190610f2d565b4211610573576040517f08c379a000000000000000000000000000000000000000000000000000000000815260040161056a90610e86565b60405180910390fd5b600160038111156105ad577f4e487b7100000000000000000000000000000000000000000000000000000000600052602160045260246000fd5b8160070160149054906101000a900460ff1660038111156105f7577f4e487b7100000000000000000000000000000000000000000000000000000000600052602160045260246000fd5b14610637576040517f08c379a000000000000000000000000000000000000000000000000000000000815260040161062e90610e66565b60405180910390fd5b8060000160009054906101000a900473ffffffffffffffffffffffffffffffffffffffff1673ffffffffffffffffffffffffffffffffffffffff166342842e0e303384600101546040518463ffffffff1660e01b815260040161069c93929190610df4565b600060405180830381600087803b1580156106b657600080fd5b505af11580156106ca573d6000803e3d6000fd5b5050505060038160070160146101000a81548160ff0219169083600381111561071c577f4e487b7100000000000000000000000000000000000000000000000000000000600052602160045260246000fd5b02179055505050565b60008060008473ffffffffffffffffffffffffffffffffffffffff1673ffffffffffffffffffffffffffffffffffffffff168152602001908152602001600020828154811061079d577f4e487b7100000000000000000000000000000000000000000000000000000000600052603260045260246000fd5b906000526020600020906008020190506000816002015490503481146107f8576040517f08c379a00000000000000000000000000000000000000000000000000000000081526004016107ef90610e46565b60405180910390fd5b8160060160009054906101000a900473ffffffffffffffffffffffffffffffffffffffff1673ffffffffffffffffffffffffffffffffffffffff166108fc349081150290604051600060405180830381858888f19350505050158015610862573d6000803e3d6000fd5b50338260070160006101000a81548173ffffffffffffffffffffffffffffffffffffffff021916908373ffffffffffffffffffffffffffffffffffffffff16021790555060018260070160146101000a81548160ff021916908360038111156108f4577f4e487b7100000000000000000000000000000000000000000000000000000000600052602160045260246000fd5b0217905550428260040181905550600160003373ffffffffffffffffffffffffffffffffffffffff1673ffffffffffffffffffffffffffffffffffffffff1681526020019081526020016000208290806001815401808255809150506001900390600052602060002090600802016000909190919091506000820160009054906101000a900473ffffffffffffffffffffffffffffffffffffffff168160000160006101000a81548173ffffffffffffffffffffffffffffffffffffffff021916908373ffffffffffffffffffffffffffffffffffffffff16021790555060018201548160010155600282015481600201556003820154816003015560048201548160040155600582015481600501556006820160009054906101000a900473ffffffffffffffffffffffffffffffffffffffff168160060160006101000a81548173ffffffffffffffffffffffffffffffffffffffff021916908373ffffffffffffffffffffffffffffffffffffffff1602179055506007820160009054906101000a900473ffffffffffffffffffffffffffffffffffffffff168160070160006101000a81548173ffffffffffffffffffffffffffffffffffffffff021916908373ffffffffffffffffffffffffffffffffffffffff1602179055506007820160149054906101000a900460ff168160070160146101000a81548160ff02191690836003811115610b30577f4e487b7100000000000000000000000000000000000000000000000000000000600052602160045260246000fd5b0217905550505050505050565b6000610b50610b4b84610eeb565b610ec6565b905082815260208101848484011115610b6857600080fd5b610b73848285610ffd565b509392505050565b600081359050610b8a81611150565b92915050565b600082601f830112610ba157600080fd5b8135610bb1848260208601610b3d565b91505092915050565b600081359050610bc981611167565b92915050565b600081359050610bde8161117e565b92915050565b60008060008060808587031215610bfa57600080fd5b6000610c0887828801610b7b565b9450506020610c1987828801610b7b565b9350506040610c2a87828801610bcf565b925050606085013567ffffffffffffffff811115610c4757600080fd5b610c5387828801610b90565b91505092959194509250565b60008060408385031215610c7257600080fd5b6000610c8085828601610b7b565b9250506020610c9185828601610bcf565b9150509250929050565b600080600080600060a08688031215610cb357600080fd5b6000610cc188828901610bba565b9550506020610cd288828901610bcf565b9450506040610ce388828901610bcf565b9350506060610cf488828901610bcf565b9250506080610d0588828901610bcf565b9150509295509295909350565b600060208284031215610d2457600080fd5b6000610d3284828501610bcf565b91505092915050565b610d4481610f83565b82525050565b610d5381610f95565b82525050565b6000610d66601d83610f1c565b9150610d71826110ac565b602082019050919050565b6000610d89601083610f1c565b9150610d94826110d5565b602082019050919050565b6000610dac601f83610f1c565b9150610db7826110fe565b602082019050919050565b6000610dcf601683610f1c565b9150610dda82611127565b602082019050919050565b610dee81610ff3565b82525050565b6000606082019050610e096000830186610d3b565b610e166020830185610d3b565b610e236040830184610de5565b949350505050565b6000602082019050610e406000830184610d4a565b92915050565b60006020820190508181036000830152610e5f81610d59565b9050919050565b60006020820190508181036000830152610e7f81610d7c565b9050919050565b60006020820190508181036000830152610e9f81610d9f565b9050919050565b60006020820190508181036000830152610ebf81610dc2565b9050919050565b6000610ed0610ee1565b9050610edc828261100c565b919050565b6000604051905090565b600067ffffffffffffffff821115610f0657610f0561106c565b5b610f0f8261109b565b9050602081019050919050565b600082825260208201905092915050565b6000610f3882610ff3565b9150610f4383610ff3565b9250827fffffffffffffffffffffffffffffffffffffffffffffffffffffffffffffffff03821115610f7857610f7761103d565b5b828201905092915050565b6000610f8e82610fd3565b9050919050565b60007fffffffff0000000000000000000000000000000000000000000000000000000082169050919050565b6000610fcc82610f83565b9050919050565b600073ffffffffffffffffffffffffffffffffffffffff82169050919050565b6000819050919050565b82818337600083830152505050565b6110158261109b565b810181811067ffffffffffffffff821117156110345761103361106c565b5b80604052505050565b7f4e487b7100000000000000000000000000000000000000000000000000000000600052601160045260246000fd5b7f4e487b7100000000000000000000000000000000000000000000000000000000600052604160045260246000fd5b6000601f19601f8301169050919050565b7f6e65656420746f2073656e642074686520726571756972656420776569000000600082015250565b7f73686f756c642062652061637469766500000000000000000000000000000000600082015250565b7f706179206261636b20646174652073686f756c6420626520696e207061737400600082015250565b7f796f75206d75737420626520746865206c656e64657200000000000000000000600082015250565b61115981610f83565b811461116457600080fd5b50565b61117081610fc1565b811461117b57600080fd5b50565b61118781610ff3565b811461119257600080fd5b5056fea26469706673582212209f4d35b33af1ce6ea580b2e88b8cabc82985972c905cac171ced7a64a1f706b964736f6c63430008010033",
  "linkReferences": {},
  "deployedLinkReferences": {}
}