{
  "_format": "hh-sol-artifact-1",
  "contractName": "NFTPawnShop",
  "sourceName": "contracts/NFTPawnShop.sol",
  "abi": [
    {
      "inputs": [],
      "stateMutability": "nonpayable",
      "type": "constructor"
    },
    {
      "inputs": [
        {
          "internalType": "address",
          "name": "borrower",
          "type": "address"
        },
        {
          "internalType": "uint256",
          "name": "termIndex",
          "type": "uint256"
        }
      ],
      "name": "acceptTerms",
      "outputs": [],
      "stateMutability": "payable",
      "type": "function"
    },
    {
      "inputs": [
        {
          "internalType": "uint256",
          "name": "_amountInWei",
          "type": "uint256"
        },
        {
          "internalType": "uint256",
          "name": "_duration",
          "type": "uint256"
        },
        {
          "internalType": "uint256",
          "name": "_interestRate",
          "type": "uint256"
        },
        {
          "internalType": "uint256",
          "name": "_startTime",
          "type": "uint256"
        }
      ],
      "name": "calculatePayment",
      "outputs": [
        {
          "internalType": "uint256",
          "name": "amount",
          "type": "uint256"
        }
      ],
      "stateMutability": "view",
      "type": "function"
    },
    {
      "inputs": [
        {
          "internalType": "uint256",
          "name": "termIndex",
          "type": "uint256"
        }
      ],
      "name": "claimCollateral",
      "outputs": [],
      "stateMutability": "nonpayable",
      "type": "function"
    },
    {
      "inputs": [
        {
          "internalType": "address",
          "name": "",
          "type": "address"
        },
        {
          "internalType": "address",
          "name": "",
          "type": "address"
        },
        {
          "internalType": "uint256",
          "name": "",
          "type": "uint256"
        },
        {
          "internalType": "bytes",
          "name": "",
          "type": "bytes"
        }
      ],
      "name": "onERC721Received",
      "outputs": [
        {
          "internalType": "bytes4",
          "name": "",
          "type": "bytes4"
        }
      ],
      "stateMutability": "nonpayable",
      "type": "function"
    },
    {
      "inputs": [
        {
          "internalType": "contract IERC721",
          "name": "_nftAddress",
          "type": "address"
        },
        {
          "internalType": "uint256",
          "name": "_nftTokenID",
          "type": "uint256"
        },
        {
          "internalType": "uint256",
          "name": "_amountInWei",
          "type": "uint256"
        },
        {
          "internalType": "uint256",
          "name": "_duration",
          "type": "uint256"
        },
        {
          "internalType": "uint256",
          "name": "_interestRate",
          "type": "uint256"
        }
      ],
      "name": "pawn",
      "outputs": [],
      "stateMutability": "nonpayable",
      "type": "function"
    },
    {
      "inputs": [
        {
          "internalType": "address",
          "name": "_borrower",
          "type": "address"
        },
        {
          "internalType": "uint256",
          "name": "termIndex",
          "type": "uint256"
        }
      ],
      "name": "paybackTerm",
      "outputs": [],
      "stateMutability": "payable",
      "type": "function"
    },
    {
      "inputs": [
        {
          "internalType": "uint256",
          "name": "delta",
          "type": "uint256"
        }
      ],
      "name": "refund",
      "outputs": [],
      "stateMutability": "nonpayable",
      "type": "function"
    },
    {
      "inputs": [
        {
          "internalType": "address",
          "name": "_borrower",
          "type": "address"
        },
        {
          "internalType": "uint256",
          "name": "termIndex",
          "type": "uint256"
        }
      ],
      "name": "undoTerm",
      "outputs": [],
      "stateMutability": "nonpayable",
      "type": "function"
    }
  ],
  "bytecode": "0x608060405234801561001057600080fd5b50611d6f806100206000396000f3fe60806040526004361061007b5760003560e01c80635593b1181161004e5780635593b1181461012b578063977b344c14610168578063c49785b414610191578063f0facce4146101ba5761007b565b8063150b7a02146100805780632310b0ec146100bd578063278ecde1146100e657806336e44f0e1461010f575b600080fd5b34801561008c57600080fd5b506100a760048036038101906100a291906114d8565b6101d6565b6040516100b491906117eb565b60405180910390f35b3480156100c957600080fd5b506100e460048036038101906100df9190611553565b6101ea565b005b3480156100f257600080fd5b5061010d60048036038101906101089190611606565b61046b565b005b61012960048036038101906101249190611553565b61046e565b005b34801561013757600080fd5b50610152600480360381019061014d919061162f565b610813565b60405161015f91906118e6565b60405180910390f35b34801561017457600080fd5b5061018f600480360381019061018a919061158f565b6108b3565b005b34801561019d57600080fd5b506101b860048036038101906101b39190611606565b610bb3565b005b6101d460048036038101906101cf9190611553565b610ed5565b005b600063150b7a0260e01b9050949350505050565b60008060008473ffffffffffffffffffffffffffffffffffffffff1673ffffffffffffffffffffffffffffffffffffffff1681526020019081526020016000208281548110610262577f4e487b7100000000000000000000000000000000000000000000000000000000600052603260045260246000fd5b9060005260206000209060080201905060008160070160009054906101000a900473ffffffffffffffffffffffffffffffffffffffff1690508373ffffffffffffffffffffffffffffffffffffffff163373ffffffffffffffffffffffffffffffffffffffff1614610309576040517f08c379a000000000000000000000000000000000000000000000000000000000815260040161030090611846565b60405180910390fd5b600073ffffffffffffffffffffffffffffffffffffffff168173ffffffffffffffffffffffffffffffffffffffff1614610378576040517f08c379a000000000000000000000000000000000000000000000000000000000815260040161036f90611826565b60405180910390fd5b60008260000160009054906101000a900473ffffffffffffffffffffffffffffffffffffffff1690506000836001015490508173ffffffffffffffffffffffffffffffffffffffff166342842e0e3088846040518463ffffffff1660e01b81526004016103e7939291906117b4565b600060405180830381600087803b15801561040157600080fd5b505af1158015610415573d6000803e3d6000fd5b505050506000808773ffffffffffffffffffffffffffffffffffffffff1673ffffffffffffffffffffffffffffffffffffffff16815260200190815260200160002060006104639190611345565b505050505050565b50565b60008060008473ffffffffffffffffffffffffffffffffffffffff1673ffffffffffffffffffffffffffffffffffffffff16815260200190815260200160002082815481106104e6577f4e487b7100000000000000000000000000000000000000000000000000000000600052603260045260246000fd5b9060005260206000209060080201604051806101200160405290816000820160009054906101000a900473ffffffffffffffffffffffffffffffffffffffff1673ffffffffffffffffffffffffffffffffffffffff1673ffffffffffffffffffffffffffffffffffffffff16815260200160018201548152602001600282015481526020016003820154815260200160048201548152602001600582015481526020016006820160009054906101000a900473ffffffffffffffffffffffffffffffffffffffff1673ffffffffffffffffffffffffffffffffffffffff1673ffffffffffffffffffffffffffffffffffffffff1681526020016007820160009054906101000a900473ffffffffffffffffffffffffffffffffffffffff1673ffffffffffffffffffffffffffffffffffffffff1673ffffffffffffffffffffffffffffffffffffffff1681526020016007820160149054906101000a900460ff16600381111561067f577f4e487b7100000000000000000000000000000000000000000000000000000000600052602160045260246000fd5b60038111156106b7577f4e487b7100000000000000000000000000000000000000000000000000000000600052602160045260246000fd5b81525050905060006106db82604001518360a0015184606001518560800151610813565b905034811115610720576040517f08c379a000000000000000000000000000000000000000000000000000000000815260040161071790611886565b60405180910390fd5b6000813461072e9190611a49565b90506000811115610743576107428161046b565b5b8260e0015173ffffffffffffffffffffffffffffffffffffffff166108fc349081150290604051600060405180830381858888f1935050505015801561078d573d6000803e3d6000fd5b50600283610100019060038111156107ce577f4e487b7100000000000000000000000000000000000000000000000000000000600052602160045260246000fd5b90816003811115610808577f4e487b7100000000000000000000000000000000000000000000000000000000600052602160045260246000fd5b815250505050505050565b60008061083c603c61082e85426112ed90919063ffffffff16565b61130390919063ffffffff16565b9050600061085460018361130390919063ffffffff16565b90506000610891826108836127106108758a8d61131990919063ffffffff16565b61130390919063ffffffff16565b61131990919063ffffffff16565b90506108a6818961132f90919063ffffffff16565b9350505050949350505050565b60006040518061012001604052808773ffffffffffffffffffffffffffffffffffffffff168152602001868152602001858152602001838152602001600081526020018481526020013373ffffffffffffffffffffffffffffffffffffffff168152602001600073ffffffffffffffffffffffffffffffffffffffff1681526020016000600381111561096f577f4e487b7100000000000000000000000000000000000000000000000000000000600052602160045260246000fd5b81525090508573ffffffffffffffffffffffffffffffffffffffff166342842e0e3330886040518463ffffffff1660e01b81526004016109b1939291906117b4565b600060405180830381600087803b1580156109cb57600080fd5b505af11580156109df573d6000803e3d6000fd5b505050506000803373ffffffffffffffffffffffffffffffffffffffff1673ffffffffffffffffffffffffffffffffffffffff16815260200190815260200160002081908060018154018082558091505060019003906000526020600020906008020160009091909190915060008201518160000160006101000a81548173ffffffffffffffffffffffffffffffffffffffff021916908373ffffffffffffffffffffffffffffffffffffffff1602179055506020820151816001015560408201518160020155606082015181600301556080820151816004015560a0820151816005015560c08201518160060160006101000a81548173ffffffffffffffffffffffffffffffffffffffff021916908373ffffffffffffffffffffffffffffffffffffffff16021790555060e08201518160070160006101000a81548173ffffffffffffffffffffffffffffffffffffffff021916908373ffffffffffffffffffffffffffffffffffffffff1602179055506101008201518160070160146101000a81548160ff02191690836003811115610ba4577f4e487b7100000000000000000000000000000000000000000000000000000000600052602160045260246000fd5b02179055505050505050505050565b6000600160003373ffffffffffffffffffffffffffffffffffffffff1673ffffffffffffffffffffffffffffffffffffffff1681526020019081526020016000208281548110610c2c577f4e487b7100000000000000000000000000000000000000000000000000000000600052603260045260246000fd5b906000526020600020906008020190503373ffffffffffffffffffffffffffffffffffffffff168160070160009054906101000a900473ffffffffffffffffffffffffffffffffffffffff1673ffffffffffffffffffffffffffffffffffffffff1614610cce576040517f08c379a0000000000000000000000000000000000000000000000000000000008152600401610cc5906118c6565b60405180910390fd5b80600501548160040154610ce29190611968565b4211610d23576040517f08c379a0000000000000000000000000000000000000000000000000000000008152600401610d1a906118a6565b60405180910390fd5b60016003811115610d5d577f4e487b7100000000000000000000000000000000000000000000000000000000600052602160045260246000fd5b8160070160149054906101000a900460ff166003811115610da7577f4e487b7100000000000000000000000000000000000000000000000000000000600052602160045260246000fd5b14610de7576040517f08c379a0000000000000000000000000000000000000000000000000000000008152600401610dde90611866565b60405180910390fd5b8060000160009054906101000a900473ffffffffffffffffffffffffffffffffffffffff1673ffffffffffffffffffffffffffffffffffffffff166342842e0e303384600101546040518463ffffffff1660e01b8152600401610e4c939291906117b4565b600060405180830381600087803b158015610e6657600080fd5b505af1158015610e7a573d6000803e3d6000fd5b5050505060038160070160146101000a81548160ff02191690836003811115610ecc577f4e487b7100000000000000000000000000000000000000000000000000000000600052602160045260246000fd5b02179055505050565b60008060008473ffffffffffffffffffffffffffffffffffffffff1673ffffffffffffffffffffffffffffffffffffffff1681526020019081526020016000208281548110610f4d577f4e487b7100000000000000000000000000000000000000000000000000000000600052603260045260246000fd5b90600052602060002090600802019050600081600201549050348114610fa8576040517f08c379a0000000000000000000000000000000000000000000000000000000008152600401610f9f90611806565b60405180910390fd5b8160060160009054906101000a900473ffffffffffffffffffffffffffffffffffffffff1673ffffffffffffffffffffffffffffffffffffffff166108fc349081150290604051600060405180830381858888f19350505050158015611012573d6000803e3d6000fd5b50338260070160006101000a81548173ffffffffffffffffffffffffffffffffffffffff021916908373ffffffffffffffffffffffffffffffffffffffff16021790555060018260070160146101000a81548160ff021916908360038111156110a4577f4e487b7100000000000000000000000000000000000000000000000000000000600052602160045260246000fd5b0217905550428260040181905550600160003373ffffffffffffffffffffffffffffffffffffffff1673ffffffffffffffffffffffffffffffffffffffff1681526020019081526020016000208290806001815401808255809150506001900390600052602060002090600802016000909190919091506000820160009054906101000a900473ffffffffffffffffffffffffffffffffffffffff168160000160006101000a81548173ffffffffffffffffffffffffffffffffffffffff021916908373ffffffffffffffffffffffffffffffffffffffff16021790555060018201548160010155600282015481600201556003820154816003015560048201548160040155600582015481600501556006820160009054906101000a900473ffffffffffffffffffffffffffffffffffffffff168160060160006101000a81548173ffffffffffffffffffffffffffffffffffffffff021916908373ffffffffffffffffffffffffffffffffffffffff1602179055506007820160009054906101000a900473ffffffffffffffffffffffffffffffffffffffff168160070160006101000a81548173ffffffffffffffffffffffffffffffffffffffff021916908373ffffffffffffffffffffffffffffffffffffffff1602179055506007820160149054906101000a900460ff168160070160146101000a81548160ff021916908360038111156112e0577f4e487b7100000000000000000000000000000000000000000000000000000000600052602160045260246000fd5b0217905550505050505050565b600081836112fb9190611a49565b905092915050565b6000818361131191906119be565b905092915050565b6000818361132791906119ef565b905092915050565b6000818361133d9190611968565b905092915050565b50805460008255600802906000526020600020908101906113669190611369565b50565b5b8082111561142d57600080820160006101000a81549073ffffffffffffffffffffffffffffffffffffffff0219169055600182016000905560028201600090556003820160009055600482016000905560058201600090556006820160006101000a81549073ffffffffffffffffffffffffffffffffffffffff02191690556007820160006101000a81549073ffffffffffffffffffffffffffffffffffffffff02191690556007820160146101000a81549060ff02191690555060080161136a565b5090565b600061144461143f84611926565b611901565b90508281526020810184848401111561145c57600080fd5b611467848285611af7565b509392505050565b60008135905061147e81611cf4565b92915050565b600082601f83011261149557600080fd5b81356114a5848260208601611431565b91505092915050565b6000813590506114bd81611d0b565b92915050565b6000813590506114d281611d22565b92915050565b600080600080608085870312156114ee57600080fd5b60006114fc8782880161146f565b945050602061150d8782880161146f565b935050604061151e878288016114c3565b925050606085013567ffffffffffffffff81111561153b57600080fd5b61154787828801611484565b91505092959194509250565b6000806040838503121561156657600080fd5b60006115748582860161146f565b9250506020611585858286016114c3565b9150509250929050565b600080600080600060a086880312156115a757600080fd5b60006115b5888289016114ae565b95505060206115c6888289016114c3565b94505060406115d7888289016114c3565b93505060606115e8888289016114c3565b92505060806115f9888289016114c3565b9150509295509295909350565b60006020828403121561161857600080fd5b6000611626848285016114c3565b91505092915050565b6000806000806080858703121561164557600080fd5b6000611653878288016114c3565b9450506020611664878288016114c3565b9350506040611675878288016114c3565b9250506060611686878288016114c3565b91505092959194509250565b61169b81611a7d565b82525050565b6116aa81611a8f565b82525050565b60006116bd601d83611957565b91506116c882611bd5565b602082019050919050565b60006116e0601283611957565b91506116eb82611bfe565b602082019050919050565b6000611703601683611957565b915061170e82611c27565b602082019050919050565b6000611726601083611957565b915061173182611c50565b602082019050919050565b6000611749601f83611957565b915061175482611c79565b602082019050919050565b600061176c601f83611957565b915061177782611ca2565b602082019050919050565b600061178f601683611957565b915061179a82611ccb565b602082019050919050565b6117ae81611aed565b82525050565b60006060820190506117c96000830186611692565b6117d66020830185611692565b6117e360408301846117a5565b949350505050565b600060208201905061180060008301846116a1565b92915050565b6000602082019050818103600083015261181f816116b0565b9050919050565b6000602082019050818103600083015261183f816116d3565b9050919050565b6000602082019050818103600083015261185f816116f6565b9050919050565b6000602082019050818103600083015261187f81611719565b9050919050565b6000602082019050818103600083015261189f8161173c565b9050919050565b600060208201905081810360008301526118bf8161175f565b9050919050565b600060208201905081810360008301526118df81611782565b9050919050565b60006020820190506118fb60008301846117a5565b92915050565b600061190b61191c565b90506119178282611b06565b919050565b6000604051905090565b600067ffffffffffffffff82111561194157611940611b95565b5b61194a82611bc4565b9050602081019050919050565b600082825260208201905092915050565b600061197382611aed565b915061197e83611aed565b9250827fffffffffffffffffffffffffffffffffffffffffffffffffffffffffffffffff038211156119b3576119b2611b37565b5b828201905092915050565b60006119c982611aed565b91506119d483611aed565b9250826119e4576119e3611b66565b5b828204905092915050565b60006119fa82611aed565b9150611a0583611aed565b9250817fffffffffffffffffffffffffffffffffffffffffffffffffffffffffffffffff0483118215151615611a3e57611a3d611b37565b5b828202905092915050565b6000611a5482611aed565b9150611a5f83611aed565b925082821015611a7257611a71611b37565b5b828203905092915050565b6000611a8882611acd565b9050919050565b60007fffffffff0000000000000000000000000000000000000000000000000000000082169050919050565b6000611ac682611a7d565b9050919050565b600073ffffffffffffffffffffffffffffffffffffffff82169050919050565b6000819050919050565b82818337600083830152505050565b611b0f82611bc4565b810181811067ffffffffffffffff82111715611b2e57611b2d611b95565b5b80604052505050565b7f4e487b7100000000000000000000000000000000000000000000000000000000600052601160045260246000fd5b7f4e487b7100000000000000000000000000000000000000000000000000000000600052601260045260246000fd5b7f4e487b7100000000000000000000000000000000000000000000000000000000600052604160045260246000fd5b6000601f19601f8301169050919050565b7f6e65656420746f2073656e642074686520726571756972656420776569000000600082015250565b7f6c656e64657220616c7265616479207365740000000000000000000000000000600082015250565b7f6f6e6c7920626f72726f7765722063616e2063616c6c00000000000000000000600082015250565b7f73686f756c642062652061637469766500000000000000000000000000000000600082015250565b7f6e65656420746f2073656e64206d696e207061796261636b20616d6f756e7400600082015250565b7f706179206261636b20646174652073686f756c6420626520696e207061737400600082015250565b7f796f75206d75737420626520746865206c656e64657200000000000000000000600082015250565b611cfd81611a7d565b8114611d0857600080fd5b50565b611d1481611abb565b8114611d1f57600080fd5b50565b611d2b81611aed565b8114611d3657600080fd5b5056fea2646970667358221220120796eea4380f9be90c1dee544e97b63abec99e75a4ca626b14ccbcb64193d164736f6c63430008010033",
  "linkReferences": {},
  "deployedLinkReferences": {}
}